:020000040800F2
:10000000880A002009010008433B00087B370008EC
:10001000413B000885140008493C0008000000002E
:10002000000000000000000000000000473B000846
:10003000D114000800000000453B0008493B0008BF
:100040002301000823010008230100082301000800
:1000500023010008230100082301000823010008F0
:1000600023010008230100082301000823010008E0
:100070008914000895140008A1140008AD140008A4
:10008000B9140008C5140008230100082301000862
:1000900023010008230100082301000823010008B0
:1000A00023010008230100082301000823010008A0
:1000B00023010008A13B0008AD3B00082301000814
:1000C0002301000823010008230100082301000880
:1000D00023010008253C0008313C00083D3C000895
:1000E000230100082301000823010008DFF814D0D1
:1000F00000F0FEF800F02AF8004800470960000808
:1001000000F09EF8880A002006488047064800470D
:10011000FEE7FEE7FEE7FEE7FEE7FEE7FEE7FEE7B7
:10012000FEE7FEE7593B0008ED000008202A04DB4B
:10013000203A21FA02F00021704721FA02F3D04060
:10014000C2F12002914008431946704770B5054C32
:10015000054D03E0206820448047241DAC42F9D1BE
:1001600070BD0000A46E0008B46E00082DE9F041D7
:10017000074615460E46102005F0A4FF04000AD0DD
:100180006760C4E9026500F057F801682160046007
:100190000020BDE8F0810120FBE710B505F00DFA65
:1001A000BDE8104005F07CB9421E12F8013F002B5B
:1001B000FBD111F8013B02F8013B002BF9D170474C
:1001C000421C10F8011B0029FBD1801A704703461E
:1001D00011F8012B00F8012B002AF9D118467047BD
:1001E0000246C9B200E0401C0378002BFBD102E0BC
:1001F00003788B4203D0401E9042F9D20020704712
:100200000FB400B58DB010A909900B9000914FF07C
:10021000FF300A9000200C90054806900548079092
:100220006A4609A80F9900F071FC0DB05DF814FB47
:10023000290B0008470B000800487047B800002051
:100240002DE9F0410646FFF7F7FF8046454613E0EB
:1002500016B1E068B0420ED120682860D4E90101EF
:10026000D8F800708847204605F0A6FED8F80000B0
:10027000B842EBD100E025462C68002CE8D1BDE85F
:10028000F081AFF3008010B500F00DF8016919B1ED
:1002900000220261884701E080688047AFF3008058
:1002A00010B5AFF3008070B500F062FC046805463D
:1002B000A4B9202005F006FF040011D00949002050
:1002C0002C60C4E900010849A160207320616061CD
:1002D0000649A06109B100F01DFEE061204670BD35
:1002E000AFF3008000000000A10200080000000041
:1002F000064C074D06E0E06840F0010394E8070073
:1003000098471034AC42F6D3FFF7F4FE846E000831
:10031000A46E000830B50B460146002020220124BF
:1003200009E021FA02F59D4205D303FA02F5491BC3
:1003300004FA02F52844151EA2F10102F1DC30BDD9
:100340002DE9F05F0546002092469B46884606460A
:10035000814640241BE02846414647462246FFF797
:10036000E5FE53465A46C01A914110D3114618462D
:10037000224600F0EDFD2D1A67EB01084F4622469C
:100380000120002100F0E4FD17EB00094E41201E82
:10039000A4F10104DFDC484631462A464346BDE865
:1003A000F09F000000487047406B000810B50446FD
:1003B000FFF7F8FF0068005D00F0010010BD10B508
:1003C000441A0346944209D28418114403E011F8F8
:1003D000013D04F8013D521EF9D210BD40EA01046E
:1003E000A40703D009E010C9121F10C3042AFAD2CF
:1003F00003E011F8014B03F8014B521EF9D210BD76
:1004000010B5002200E0521C835C8C5CA34201D139
:10041000002BF8D1D8B2E1B2401A10BD2DE9FF4F40
:100420001C4681B00021D4E9016791464FF0FF35A9
:100430008A468846A1696D1C02988847216A8346CE
:1004400088470028F6D1BBF1FF3F0CD026F4C066E8
:10045000002F1ADD700615D5BBF12B0F0AD0BBF1AA
:100460002D0F0FD104E04FF0FF3005B0BDE8F08F45
:1004700046F48066A1696D1C029888477F1E8346FA
:10048000002F02DDBBF1300F03D0B9F1000F2AD0ED
:1004900025E0A1696D1C46F400767F1E029888470E
:1004A0008346002F05DDBBF1780F06D0BBF1580F56
:1004B00003D0B9F1000F10D011E0B9F1000F02D054
:1004C000B9F1100F0BD1A1696D1C26F400767F1EC7
:1004D000029888478346102000E0082081464FEAB2
:1004E000E970009017E00A20F8E74346AAFB0928C4
:1004F00003FB0980DDF800C07F1E0AFB0C0112EB34
:100500000B0A41EBEB78A16946F4007605F1010591
:10051000029888478346002F06DD4946584600F07A
:1005200038FD5FEA000BE0D5E16902988847B00525
:1005300002D46FF0010098E7F00718D1700610D5CB
:100540007005514605D50023D1EB030163EB08028A
:1005500000E042462068031D23600068C0E90012E5
:1005600005E02068011D21600068C0E900A8284658
:100570007BE72DE9FF5F1D464FF0FF3BD5E90146C4
:1005800091465F464FF00008A9697F1C0198884793
:10059000296A824688470028F6D1BAF1FF3F0CD07D
:1005A00024F4C064002E19DD600614D5BAF12B0FB7
:1005B00009D0BAF12D0F0ED103E0584604B0BDE8C2
:1005C000F09F44F48064A9697F1C01988847761ED7
:1005D0008246002E02DDBAF1300F03D0B9F1000FD0
:1005E00026D032E0A969761E44F400747F1C01987D
:1005F00088478246002E05DDBAF1780F06D0BAF1A1
:10060000580F03D0B9F1000F10D01EE0B9F1000F60
:1006100002D0B9F1100F18D1A969761E24F4007424
:100620007F1C019888478246102002E0082000E0E5
:100630000A20814609E008FB0908A969761E44F4EE
:1006400000747F1C019888478246002E05DD4946CC
:10065000504600F09EFC0028EDDAE96901988847D1
:10066000A00502D46FF00100A8E7E00725D16006DD
:1006700013D5600502D5C8F1000000E040462968A6
:100680000A1D2A600968220501D5087015E02207B5
:1006900001D5088011E008600FE02868011D29607D
:1006A0000068210502D580F8008006E0210702D508
:1006B000A0F8008001E0C0F8008038467EE72DE910
:1006C000FF5FD2E901A74FF00008916999461446EF
:1006D000DDF838B0464601988847054659EA0B00D0
:1006E00005D009E0A169761C019888470546216A72
:1006F000284688470028F5D1681C03D05FEACA70F5
:1007000005D015E04FF0FF3004B0BDE8F09F206841
:10071000011D2160D0F800800AE05FEACA7001D1B3
:1007200008F8015BA169761C7F1E01988847054681
:10073000002F1ADD681C18D0B9F1000F0DD0E81792
:1007400005EBD060421120F01F0059F822102A1A40
:10075000012090400142E0D107E0BBF1000FDCD165
:10076000216A284688470028D7D0E1690198884740
:10077000BBF1000F07D1002E05DD5FEACA7002D180
:10078000002188F80010A068B84203DDBBF1000F1B
:1007900003D017B16FF00100B6E73046B4E70000B0
:1007A0002DE9FF4F087883B09946FF2805D0491CF2
:1007B0002D2804D00024002008E000200BE00124B4
:1007C000F9E700EB800003EB4000491C0B78FF2B9E
:1007D000F7D104B1404200230293147819461D4614
:1007E0002D2C01D02B2C04D1521C2D2C13D00024E5
:1007F0000294AA461478FF2C0FD00A25A3FB057893
:1008000001FB05814FF0000C03FB0C11521CE31996
:100810004AEB0101EEE70124EAE7814453EA0100D3
:1008200002D019F5C87F06DA03980021C0E900114B
:1008300007B0BDE8F08F0025AE4E2F46DFF8B88236
:10084000184600F0A8FDCDE90001B9F1000002DA78
:10085000C9F1000400E004460023A74A1AEB030B89
:1008600042EB045A12E0E00707D02A4633463846E6
:10087000414600F02CFA074688462A463346104681
:10088000194600F024FA05460E466410002CEAD101
:10089000DDE90001B9F1000F5A46534606DA00F0CF
:1008A00088FA3A46434600F084FA05E000F00FFA71
:1008B0003A46434600F00BFA029A0AB181F0004131
:1008C000039AC2E90001B3E72DE9FF4F1F468DB03F
:1008D000D7E901464FF0FF382E2045464FF000097A
:1008E0000B90B9696D1C0E988847396A8246884713
:1008F0000028F6D1BAF1FF3F0AD024F4D064002ECC
:1009000011DDBAF12B0F08D0BAF12D0F0BD102E097
:10091000404611B08DE744F48064B9696D1C0E98AF
:1009200088478246761E6946600501D52D2000E085
:100930002B208DF8000001F1010B0DF1200809E0DA
:10094000B9696D1C0E98884782460F9844F400746C
:10095000761E0560002E02DDBAF1300FF0D00B9943
:100960008A453ED144F0800406E00F99681CA9F145
:10097000010944F400740860B9696D1C761E0E9874
:10098000884782463028F0D02BE00B998A4505D164
:10099000200603D444F08004761E18E0504604F08C
:1009A00057FF08B30DF11301761E44F400748B4514
:1009B00008D2AAF130000BF8010B200607D5A9F1E7
:1009C000010003E0200602D409F101008146A005E0
:1009D00002D50F99681C0860B9696D1C0E9888478C
:1009E0008246002ED1DC53E0002E51DDBAF1650FB6
:1009F00002D0BAF1450F4BD1A00549D5B9696D1C9C
:100A000024F44074761E0E9888478246002E0CDD32
:100A10002B2804D0BAF12D0F07D144F48074B969A2
:100A20006D1C0E9888478246761EE00501D52D2163
:100A300000E02B2108F8011BCDF82C8021E00DF1FE
:100A40002901761E44F4007488450CD2AAF13000C6
:100A500010F0FF0088F8000002D10B99884509D9F1
:100A600008F1010806E0E00501D5244801E042F262
:100A70000F708146B9696D1C0E98884782460F98A1
:100A80000560002E04DD504604F0E2FE0028D6D1B9
:100A9000F9690E988847FF208BF8000088F800005D
:100AA0000020069007904B466A4608A906A8FFF763
:100AB00077FEA00502D46FF001002AE714F0240F9E
:100AC0000AD0E00714D1DDE906123868031D3B6047
:100AD0000068C0E900120BE0DDE9060100F067FCE8
:100AE0000146E00704D13868021D3A6000680160E1
:100AF00028460EE7000014400000F03FF1D8FFFF49
:100B0000026811441378016018467047D1600449A7
:100B100051610449116200211161114600F048BA87
:100B2000010B0008AD030008426842B1016811F8EA
:100B3000013B23B1521EC0E9001218467047012143
:100B4000C160881E704742685AB1C368016843B9E2
:100B500083688B4205D0491E521CC0E90012002058
:100B600070474FF0FF3070477047000003487047F0
:100B70000248001D011F8860001D7047CC00002046
:100B80002DE9FE4F804681EA0300C00F0C4600901D
:100B900021F0004123F00045B8EB0200A94105D245
:100BA0004046214690461C460B46024623F0004034
:100BB000104347D0270DC7F30A00C3F30A51029030
:100BC000401A019040286BDAC3F3130040F4801BF5
:100BD0000098924620B10023D2EB030A63EB0B0B83
:100BE00001985946C0F14002504600F0B1F906465E
:100BF0000D4650465946019A00F0B9F910EB08002D
:100C00006141002487EA115284EAE7731A4340D015
:100C1000009A62B3019A012A4FEA075215DC001BC1
:100C200061EB02014FF0004202EA0752CDE90042B7
:100C3000001C41F5801132462B4600F05EFB03B0EC
:100C4000BDE8F08F40462146F9E7001B61EB020149
:100C5000001C41F5801300185B412018A2F5001715
:100C600047EB030140EAD570B6196D4111E06D08FC
:100C70004FEA360645EAC0754FEA0752001B61EBA2
:100C80000201001C41F5801149084FEA30000019AB
:100C9000514132462B4603B0BDE8F04F00F01EBB79
:100CA0000098012240000023D0EB020263EBE073C6
:100CB000009821464FEAE074B8EB000061EB0401B4
:100CC000E9E783F000435BE781F0004158E72DE955
:100CD000FE4F81EA030404F0004421F00041009437
:100CE0004FF0000B23F0004350EA01045ED052EABB
:100CF00003045BD0C3F30A54C1F30A552C44A4F295
:100D0000F3340194A0FB0254C1F3130141F48011A8
:100D1000C3F3130343F4801301FB024400FB034EAF
:100D2000840A970A44EA815447EA8357A4FB076878
:100D300002958D0A05FB07854FEA932C04FB0C54A2
:100D40002705029D4FEA065847EA1637B5EB080516
:100D50006EEB070C870E920E47EA811742EA831268
:100D6000A7FB0201B6EB0B0164EB00042B0D43EA79
:100D70000C335E1844EB1C50DA465146E7FB020187
:100D8000C5F313044FEA0B3343EA14534FEA04321A
:100D9000019C43EA0603A4F10C040294009CCDE9F3
:100DA00000B400F0AAFA03B0BDE8F08F00200146BD
:100DB000F9E72DE9F04D81EA030404F0004B21F03E
:100DC000004514464FF0000A23F0004150EA0502A6
:100DD00020D054EA01021DD0C5F30A570246C5F3DC
:100DE0001303C1F31300C1F30A5640F4801543F412
:100DF0008013A7EB0608101BD64608F2FD3873EBEC
:100E0000050002D308F1010801E092185B41B8F136
:100E1000000F03DA00200146BDE8F08D00204FF4FA
:100E20008011064684460EE0171B73EB050705D3B9
:100E3000121B63EB050306434CEA010C49084FEA19
:100E4000300092185B4150EA0107EDD152EA0300ED
:100E500012D082EA040083EA0501084305D0101B82
:100E6000AB4106D20122002306E000224FF00043EE
:100E700002E06FF0010253101AEB06004CEB085130
:100E800010EB0A0041EB0B01BDE8F04D00F026BA73
:100E9000C1F30A52C1F3130140F2FF3341F4801150
:100EA0009A4202DA00200146704740F233439A42E8
:100EB000A2F2334202DC5242FFF738B900F048B8E0
:100EC00030B5041E71F1000404DB4FF000444042D1
:100ED00064EB0101141E73F1000405DB1C464FF0A6
:100EE0000043524263EB0403994208BF904230BD75
:100EF00000DE2DE9F04117460E46054633B107FBEB
:100F00000354E41B2046B047A542FAD1A5F10800DE
:100F1000BDE8F08110B5882005F0D4F8002801D094
:100F20000021017010BD802902D808B1017809B1F3
:100F300000207047012100F8081B704718B100F12C
:100F40000802914201D000207047002101707047D3
:100F5000202A04DB203A00FA02F100207047914079
:100F6000C2F1200320FA03F3194390407047202A6E
:100F700006DBCB17203A41FA02F043EAE07306E0C1
:100F800041FA02F3D040C2F12002914008431946D1
:100F900070473A2800D2303820F02002412A01D38D
:100FA000A2F13700884201D34FF0FF3070470000B4
:100FB0002DE9F34F8BB04FF0000801F10C000C4607
:100FC0004FF0010B46460DF1080A019062690121BC
:100FD00001989047051E2DD0252D2CD0216A8847D9
:100FE000C0B16269012101989047216A88470028B1
:100FF000F7D1411E62690198904700E0761CA16913
:101000000B988847216A88470028F7D1E1690B9837
:101010008847DBE7A1690B9888470746A84201D1BA
:10102000761CD3E7E1690B9888477F1C02D1B8F1A1
:10103000000F6FD046E1002762693D4639460198AE
:1010400090472A2804D1626901210198904701251F
:10105000DFF884926269012101989047A0F1300184
:101060000A290AD24F45E5DC07EB870100EB41076F
:10107000303FDFD445F01005ECE7E90601D46FF00E
:1010800000476C280AD04C2814D0682815D06A284C
:101090000DD074281CD07A281AD01DE06269012175
:1010A000019890476C2802D045F0040514E045F003
:1010B00002050DE045F020050AE062690121019872
:1010C0009047682802D045F0080505E045F4006522
:1010D0006269012101989047C4E9015765283DD014
:1010E00019DC58287AD00CDC452837D004DC2528B8
:1010F00026D0412831D131E046282FD047282CD1A5
:101100002CE05B2877D0612828D063287CD0642825
:1011100023D15AE0D0E06F2848D008DC66281DD0E3
:1011200067281BD0692821D06E2816D127E07028A7
:1011300045D0732868D0752847D078280DD14DE068
:10114000A1690B988847054625283FF469AFE169F6
:101150000B9888476D1C3FF46AAFB3E023466A469C
:101160006FF001000B99FFF7AFFB9EE045F04000E8
:101170006060A80723464FF0000236D43EE0E8073F
:101180007FF447AF2068011D21600068290501D563
:1011900006701BE7290701D5068017E7A90703D5C5
:1011A000F117C0E9006111E706600FE745F0400064
:1011B0006060A80723464FF0080216D41EE040F6F0
:1011C0000E0125EA0100606016E045F04000606015
:1011D000A80723464FF00A0207D40FE045F040006D
:1011E0006060A80708D5234610226FF001000B9914
:1011F000FFF714F959E007E0234610226FF00100D1
:101200000B99FFF7B6F950E04FF000094F464B46F7
:10121000632802D05B2806D040E0E80601D4012014
:10122000A06001273AE062690121019890475E2899
:1012300005D14FF00109626949460198904721693B
:1012400039B900210A46534643F82120491C082990
:10125000FADBB0B3216969B9C11700EBD162531150
:101260000AEB830122F01F02821A01200B689040D2
:1012700003430B6062690121019890475D28E8D122
:10128000B9F1000F09D00020514651F82020D24377
:1012900041F82020401C0828F7DB02AB22460097CB
:1012A0006FF001000B99FFF70AFA00280CDA401CD6
:1012B00008D1BBF1000F05D04FF0FF300DB0BDE8F5
:1012C000F08FFFE74046F9E7E90701D108F101088F
:1012D00006444FF0000B79E6CCCCCC0C10B5141EB4
:1012E00073F1000408DA401C41F1000192185B41DF
:1012F0001A4301D120F0010010BD2DE9F04D9246B6
:101300009B4611B1B1FA81F202E0B0FA80F22032CC
:101310009046FFF71DFE04460F4640EA0A0041EAE8
:101320000B0153465A46084313D0114653EA0100B5
:1013300019D0C8F140025046FEF7F8FE05460E46A9
:10134000504659464246FFF703FE084305D00120A8
:1013500004E020463946BDE8F08D0020054346EA0A
:10136000E0762C4337430A986305E40AA0EB0800B3
:101370000022FD0A44EA47540A3002D50020014603
:10138000E9E7010510196941DDE9084500196941DE
:10139000BDE8F04DA2E70EB540F2334202920022C2
:1013A000CDE900221346FFF7A8FF03B000BD01F00E
:1013B000004330B421F0004150EA010206D00A0D8A
:1013C000A2F56072C1F31301002A02DC30BC0020D8
:1013D0007047440F44EAC104C100E01830BC00EB80
:1013E000C250AFF300800029A8BF7047401C4900DD
:1013F00008BF20F00100704710B4B0FA80FC00FA7A
:101400000CF050EA010404BF10BC704749B1CCF1A4
:10141000200421FA04F411FA0CF118BF0121214330
:101420000843A3EB0C01CB1D4FEA00614FEA1020EB
:1014300042BF002010BC704700EBC350104400298D
:10144000A4BF10BC7047401C490008BF20F0010039
:1014500010BC70472DE9F04116461F460C46851B0F
:1014600002E02846B847AD1B641EFAD2BDE8F08101
:1014700038B504466846AFF300800146204605F0C3
:10148000B3F838BDFEE70000014800F06FB8000077
:10149000D4030020014800F069B8000018040020BF
:1014A000014800F063B80000C4020020014800F0C9
:1014B0005DB8000008030020014800F057B80000A4
:1014C00090030020014800F051B800004C030020B8
:1014D0007047000010B590F821100024022903D0B5
:1014E0000421816301243DE001680A6822F00E02B4
:1014F0000A6001680A6822F001020A601A4A01685B
:10150000914201D1012121E0174A1432914201D1C7
:1015100010211BE0144A2832914201D1891515E0AF
:10152000114A3C32914201D189140FE00E4A5032E7
:10153000914202D14FF4803108E00B4A643291426B
:1015400002D14FF4801101E04FF08071064A083A51
:101550005160012180F82110002180F82010416B9A
:1015600001B18847204610BD080002402DE9F05F18
:10157000C16B0C6801680B68D0F840C0042202FA05
:101580000CF2494DDFF824A1494E4A4FDFF828B14B
:10159000DFF828E122422CD05A072AD50A689206A1
:1015A00003D40A6822F004020A600168A94201D14A
:1015B000042219E0514501D1402215E0B14202D187
:1015C0004FF4806210E0B94202D14FF480420BE048
:1015D000594502D14FF4802206E0714502D14FF403
:1015E000800201E04FF080622F4908394A60C16AE9
:1015F0003BE04FF0020808FA0CF818EA040F4FF02D
:1016000000094FF0010235D05FEA837832D50B68CC
:101610009B0605D40B6823F00A030B6080F8212099
:101620000168A94201D1022219E0514501D12022CD
:1016300015E0B14202D14FF4007210E0B94202D17C
:101640004FF400520BE0594502D14FF4003206E04E
:10165000714502D14FF4001201E04FF000721249BF
:1016600008394A6080F82090816A00291AD0BDE8C4
:10167000F05F0847082505FA0CF5254212D01B0734
:1016800010D50B6823F00E030B6090F84010C36B6D
:1016900002FA01F15960826380F8212080F82090DD
:1016A000016BE2E7BDE8F09F080002401C00024029
:1016B0003000024044000240580002406C000240EA
:1016C00070B504007ED04C49206888421BD04A493E
:1016D0001431884217D048492831884213D04649EE
:1016E0003C3188420FD04449503188420BD04249A6
:1016F0006431884207D040497831884203D0AA211A
:101700003EA004F04FFC606840B1102806D0B0F550
:10171000804F03D0AB2139A004F044FCA0684028DE
:1017200004D018B1AC2135A004F03CFCE06880285E
:1017300004D018B1AD2131A004F034FC206948B1C7
:10174000B0F5807F06D0B0F5007F03D0AE212BA08E
:1017500004F028FC606948B1B0F5806F06D0B0F5A0
:10176000006F03D0AF2125A004F01CFCA06928B1B4
:10177000202803D0B02121A004F014FCE06960B15E
:10178000B0F5805F09D0B0F5005F06D0B0F5405FDE
:1017900003D0B12119A004F005FC04CC1648142193
:1017A00040421044B0FBF1F08000E063124808387A
:1017B000A06302206077116843F6F0708143D4E99A
:1017C000000300E016E01843D4E902352B43184328
:1017D0002369184363691843A369184308431060D9
:1017E00000206062A062E062206360630121617793
:1017F000207770BD012070BD080002402E2E2F44BE
:101800007269766572732F53544D3332463178784E
:101810005F48414C5F4472697665722F5372632F43
:1018200073746D3332663178785F68616C5F646DB4
:10183000612E63002DE9F041884604460025581EBC
:101840004FF6FF711E461746884204D34FF4C0710D
:101850001DA004F0A7FB94F8200001280DD0012062
:1018600084F8200094F821100020012907D084F882
:10187000200002252846BDE8F0810220FBE7022176
:1018800084F82110A0632068016821F00101016043
:1018900033463A464146204602F0D8F9E06A00282D
:1018A0002068016802D041F00E0106E021F0040139
:1018B00001602068016841F00A0101602068016848
:1018C00041F001010160D5E72E2E2F447269766543
:1018D00072732F53544D3332463178785F48414C00
:1018E0005F4472697665722F5372632F73746D3320
:1018F00032663178785F68616C5F646D612E630079
:1019000070B5044600F004FA0546601C02D0044895
:101910000078044400F0FCF9401BA042FAD370BDEB
:10192000640000202DE9F84FDFF8A8B20D46044608
:101930004FF0000958450FD0A74884420CD0A74863
:10194000844209D0A648844206D0A648844203D0E7
:10195000CD21A5A004F026FB28680104090C01D0C4
:10196000000C03D0CE21A0A004F01CFB6868F8B1E5
:1019700001281DD011281BD0022819D0122817D0F9
:10198000A849884214D0A849884211D0A749884262
:101990000ED0A74988420BD0A649884208D0A64954
:1019A000884205D0032803D0CF218FA004F0FAFA93
:1019B00000274FF0010A00BF2E680AFA07F806EA6E
:1019C000080646456FD15C450FD0834884420CD051
:1019D0008248844209D08248844206D081488442A9
:1019E00003D0DD2180A004F0DDFA8E4869680A1A70
:1019F000814259D00EDC032976D006DC002953D071
:101A0000012919D002296AD131E0112921D01229E6
:101A100065D13AE0B2F5881F46D006DCB2F5803FCA
:101A200042D0B2F5801F5AD13EE0B2F5001F3BD044
:101A3000B2F5041F53D137E0E868022807D0012827
:101A400005D0032803D0E52167A004F0ABFAE868CD
:101A50003FE0E868022807D0012805D0032803D01A
:101A6000EC2161A004F09EFAE868001D31E0E8680E
:101A7000022807D0012805D0032803D0F3215AA05B
:101A800004F090FAE868083023E0E868022807D0FC
:101A9000012805D0032803D0FA2153A004F082FACC
:101AA000E8680C3015E089E0A86888B1012812D0F8
:101AB000022808D040F207114BA004F073FAA8687E
:101AC00030B1012807D04FF00809C4F8148006E0AF
:101AD0000420814603E04FF00809C4F81080FF2E6F
:101AE00005D8224605E0FFE74FF00000F1E704F1DA
:101AF00004024FEA870001D9A0F1200013684FF0DB
:101B00000F0101FA00FC23EA0C0309FA00FC43EA86
:101B10000C0313606868C00056D54848826942F0DB
:101B200001028261806927F0030200F00100009049
:101B3000434802449068BB071B0F994088435C45AB
:101B400001D100210FE024498C4201D101210AE09A
:101B500022498C4201D1022105E021498C4201D168
:101B6000032100E004219940014391606868C003AB
:101B70003448016801D5314300E0B1430160686831
:101B800080033148016801D5314300E0B143016071
:101B90006868C00205D52C48001D0168314301600A
:101BA00004E02949091D0868B0430860686880029C
:101BB00005D52549083108683043086004E022480B
:101BC00008300168B14301607F1C102FFFF4F4AEB0
:101BD000BDE8F88F00080140000C014000100140F2
:101BE00000140140001801402E2E2F4472697665C2
:101BF00072732F53544D3332463178785F48414CDD
:101C00005F4472697665722F5372632F73746D33FC
:101C100032663178785F68616C5F6770696F2E63D8
:101C20000000000000001110000021100000311021
:101C300000001210000022100000321000100240BC
:101C400000000140000401400404014070B50C0094
:101C5000054604D140F2F91103A004F0A3F9E868A5
:101C60006040E86070BD00002E2E2F4472697665DA
:101C700072732F53544D3332463178785F48414C5C
:101C80005F4472697665722F5372632F73746D337C
:101C900032663178785F68616C5F6770696F2E6358
:101CA0000000000070B515460C00064604D140F255
:101CB000E31108A004F076F945B1012D04D04FF4EA
:101CC000F27104A004F06EF9346170BD200430613B
:101CD00070BD00002E2E2F447269766572732F53EB
:101CE000544D3332463178785F48414C5F447269D5
:101CF0007665722F5372632F73746D333266317849
:101D0000785F68616C5F6770696F2E630000000028
:101D10000148806870470000640000200248816824
:101D2000027811448160704764000020074810B5B4
:101D3000016841F010010160032000F0F1F800207B
:101D400000F006F800F024F8002010BD002002404A
:101D500070B50D4D04464FF47A712878B1FBF0F060
:101D60000A490968B1FBF0F000F015FD48B9102CE4
:101D700007D200222146501E00F082F800206C603D
:101D800070BD012070BD00006400002070000020C4
:101D9000214808B5816941F001018161816901F043
:101DA00001010091C16941F08051C161C06900F039
:101DB00080500090032000F0B3F8002211466FF02D
:101DC0000B0000F05DF8002211466FF00A0000F0F1
:101DD00057F8002211466FF0090000F051F8002278
:101DE0001146501F00F04CF800221146101F00F061
:101DF00047F800221146901E00F042F800221146DA
:101E0000501E00F03DF80548416821F0E06141F0C6
:101E10000071416008BD0000001002400000014058
:101E200010B5040003D5CE2106A004F0BBF804F0E1
:101E30001F01012088406109890001F1E021C1F8FA
:101E4000000110BD2E2E2F447269766572732F53D8
:101E5000544D3332463178785F48414C5F44726963
:101E60007665722F5372632F73746D3332663178D7
:101E7000785F68616C5F636F727465782E630000D1
:101E800070B515460C460646102A03D3BA2114A095
:101E900004F088F8102C03D3BB2111A004F082F8C1
:101EA0001E480068C0F30223C3F107022046042A3B
:101EB00000D90422191D072901D2002300E0DB1EEE
:101EC000012404FA02F1491E014099409C40641E1D
:101ED0002C4021433046BDE8704002F040B800007D
:101EE0002E2E2F447269766572732F53544D333200
:101EF000463178785F48414C5F4472697665722F4D
:101F00005372632F73746D3332663178785F686112
:101F10006C5F636F727465782E6300000CED00E0F7
:101F200010B5044607280BD0062C09D0052C07D085
:101F3000042C05D0032C03D0A22108A004F032F811
:101F4000154904F0070208684FF6FF03184040EAFD
:101F50000220124A1043086010BD00002E2E2F44AC
:101F60007269766572732F53544D333246317878E7
:101F70005F48414C5F4472697665722F5372632FDC
:101F800073746D3332663178785F68616C5F636F4C
:101F9000727465782E6300000CED00E00000FA0515
:101FA0002DE9F0470E46050004D140F22E3181A004
:101FB00003F0F8FF2868C1070AD1810708D4410758
:101FC00006D4000704D440F22F317AA003F0EAFFD0
:101FD00046B1012E06D0022E04D04FF44C7175A0EC
:101FE00003F0E0FFDFF80482D8F8000000F00700FB
:101FF000B0420CD2D8F8001021F007013143C8F8E4
:102000000010D8F8000000F00700B04272D1287824
:10201000774C80071CD5A868A0B1802812D09028E2
:1020200010D0A0280ED0B0280CD0C0280AD0D028BC
:1020300008D0E02806D0F02804D040F249315DA055
:1020400003F0B0FF6068A96820F0F000084360600A
:102050002878C00753D0686868B1012821D00228C9
:1020600022D04FF4547153A003F09CFF68680128FC
:1020700017D0022818D020688007002850DA60683E
:10208000696820F0030008436060FFF741FE69685B
:10209000074641F28830012910D0022981461AD022
:1020A00029E020688003E8E720688001E5E700BFB9
:1020B000FFF72EFEC11B494501D918E08146606833
:1020C000C0F381000128F3D119E000BFFFF720FE23
:1020D000C11B49450BD86068C0F381000228F5D1C7
:1020E0000DE000BFFFF714FEC11B494503D90320D3
:1020F000BDE8F08714E0606810F00C0FF2D1D8F85A
:102100000010404601F00701B1420BD9016821F0EF
:10211000070131430160006800F00700B04201D0C0
:102120000120E5E728784FF4806640074FF4A06768
:102130004FF4C0684FF4E06914D5E86860B1B0426C
:102140000AD0B84208D0404506D0484504D04FF4E4
:10215000697118A003F026FF6068E96820F4E06068
:10216000084360602878000715D5286960B1B0423F
:102170000AD0B84208D0404506D0484504D040F2C5
:10218000AB310CA003F00EFF6068296920F46050A9
:1021900040EAC100606000F057F86168154AC1F379
:1021A0000311515CC840144908600020FFF7D0FDBE
:1021B00000209DE72E2E2F447269766572732F538F
:1021C000544D3332463178785F48414C5F447269F0
:1021D0007665722F5372632F73746D333266317864
:1021E000785F68616C5F7263632E63000020024059
:1021F0000010024046680008700000200148006896
:1022000070470000700000200448054900684968D4
:10221000044AC1F30221515CC8407047700000209D
:1022200000100240566800080448054900684968E3
:10223000044AC1F3C221515CC840704770000020BD
:10224000001002405668000812A185B00FC98DE841
:102250000F0014A0144A006804905168134811F04C
:102260000C0312D0042B10D0082B0ED1C1F38343E2
:10227000C9031DF803000AD5516804AAC1F34041FF
:10228000515C0A4A5043B0FBF1F005B07047084971
:102290004843FAE702030405060708090A0B0C0D78
:1022A0000E0F1010010200000010024000127A0010
:1022B00000093D002DE9F84F040004D14FF4B87136
:1022C000F4A003F06FFE4FF0010A4FF000084FF446
:1022D0008039FE4EFE4D206860B1C1070DD18107E7
:1022E00063D401077ED440077DD440F27111E9A088
:1022F00003F058FE2078C00754D060684FF4A02740
:1023000040B1484506D0B84204D040F27711E1A070
:1023100003F048FE6868C0F38100012807D06868B0
:10232000C0F38100022809D16868C00306D5286877
:10233000800337D56068002876D033E06068484570
:1023400003D1286840F4803009E008B1B8420DD0CC
:10235000286820F480302860286820F480202860D5
:10236000606890B1FFF7D4FC07460AE0286840F4A3
:1023700080202860E5E700BFFFF7CAFCC01B642887
:1023800077D828688003F7D50CE0FFF7C1FC074633
:1023900005E000BFFFF7BCFCC01B6428F0D828682C
:1023A0008003F7D4207880074ED5206930B101280A
:1023B00004D040F2AB11B7A003F0F4FD60691F2810
:1023C00004D94FF4D671B3A003F0ECFD686810F0A7
:1023D0000C0F0AD06868C0F3810002280CD168682D
:1023E000C00301E033E06CE006D42868800713D511
:1023F0002069012818D10FE02069B0B1C6F800A00B
:10240000FFF786FC074604E0FFF782FCC01B0228AA
:10241000B6D828688007F7D52868616920F0F800E9
:1024200040EAC10028600FE033E1C6F80080FFF702
:102430006FFC074605E000BFFFF76AFCC01B0228DF
:102440009ED828688007F7D42078000736D5A14F9A
:10245000A06920B3012806D04FF4F6718DA003F0D7
:10246000A1FDA069D8B1C7F800A0FFF751FC07464D
:1024700005E052E1FFF74CFCC01B02288ED8686AC9
:102480008007F7D594484FF4FA510068B0FBF1F09B
:10249000009000BF0098411E0091FAD20EE0C7F8EC
:1024A0000080FFF735FC074605E000BFFFF730FC72
:1024B000C01B0228ACD8686A8007F7D42078400790
:1024C0006CD5E068002740B1012806D0052804D06B
:1024D00040F21B216FA003F065FDE869C00008D43D
:1024E000E86940F08050E861E869012700F0805019
:1024F00000907A480168C90512D4016841F48071DE
:102500000160FFF705FC834606E000BFFFF700FC13
:10251000A0EB0B00642893D870480068C005F5D57F
:10252000E06801280AD008B1052811D0286A20F0F7
:1025300001002862286A20F0040002E0286A40F0C6
:1025400001002862E068A8B1FFF7E2FB83460DE0D6
:10255000286A40F004002862F0E700BFFFF7D8FBCC
:10256000A0EB0B0141F28830814287D8286A8007AE
:10257000F4D50EE0FFF7CCFB834607E0FFF7C8FB7E
:10258000A0EB0B0141F28830814293D8286A800782
:10259000F4D41FB1E86920F08050E861E0690028B8
:1025A00076D0012809D0022807D040F2B92139A0FD
:1025B00003F0F8FCE06900286AD06868C0F3810085
:1025C000022866D0E069022805D0C6F86080FFF7CF
:1025D0009FFB0446A4E0206A30B1484504D040F295
:1025E000C2212CA003F0DEFC606A70B3B0F5802F2E
:1025F0002BD0B0F5002F28D0B0F5402F25D0B0F566
:10260000801F22D0B0F5A01F1FD0B0F5C01F1CD076
:10261000B0F5E01F19D0B0F5001F16D0B0F5101FAF
:1026200013D0B0F5201F10D0B0F5301F0DD0B0F58D
:10263000401F0AD0B0F5501F07D0B0F5601F04D07E
:1026400040F2C32113A003F0ADFCC6F86080FFF791
:102650005FFB074605E000BFFFF75AFBC01B0228DF
:102660005BD828688001F7D4206A48450FD1A0685C
:1026700038B1B0F5003F04D040F2D92105A003F0F5
:1026800091FC6868A16820F400300843686027E086
:1026900049E04AE02E2E2F447269766572732F53FB
:1026A000544D3332463178785F48414C5F4472690B
:1026B0007665722F5372632F73746D33326631787F
:1026C000785F68616C5F7263632E63000000424252
:1026D0000010024080044242700000200070004060
:1026E000D4E908010843696821F47411084368605B
:1026F000C6F860A0FFF70CFB044604E0FFF708FBF8
:10270000001B022809D828688001F7D50BE000BF1C
:10271000FFF7FEFA001B022802D90320BDE8F88F5C
:1027200028688001F4D40020F8E70120F6E70000D3
:1027300010B54FF0E024042809D020B140F2D9119F
:1027400005A003F02FFC206920F0040002E02069BE
:1027500040F00400206110BD2E2E2F447269766572
:1027600072732F53544D3332463178785F48414C61
:102770005F4472697665722F5372632F73746D3381
:1027800032663178785F68616C5F636F7274657808
:102790002E630000704710B5401EB0F1807F01D35A
:1027A000012010BD4FF0E02460610F21601701F09F
:1027B000D6FB0020A06107202061002010BD10B5CD
:1027C000FFF7E8FF10BD70477047000070B50D4679
:1027D000044600682A4988420DD0B0F1804F0AD0E3
:1027E0002849884207D02849884204D04FF4C7615D
:1027F00026A003F0D7FB286890B1102810D020281D
:102800000ED030280CD040280AD0502808D060289C
:1028100006D0702804D040F239611CA003F0C2FB3E
:102820006868802805D020B140F23A6117A003F013
:10283000B9FB94F83C0001281FD0012084F83C002B
:10284000022184F83D1021684A6822F070024A6033
:1028500021684A682B681A434A6021688A6822F016
:1028600080028A6021688A686B681A438A6084F8EB
:102870003D00002084F83C0070BD022070BD0000C7
:10288000002C014000040040000800402E2E2F4480
:102890007269766572732F53544D333246317878AE
:1028A0005F48414C5F4472697665722F5372632FA3
:1028B00073746D3332663178785F68616C5F746908
:1028C0006D5F65782E63000010B5040036D0254991
:1028D000206888420CD0B0F1804F09D0224988424C
:1028E00006D02249884203D0D52121A003F05AFB0B
:1028F000A06858B1102809D0202807D0402805D05A
:10290000602803D0D6211AA003F04CFB206948B1FF
:10291000B0F5807F06D0B0F5007F03D0D72114A09A
:1029200003F040FBA06928B1802803D0D82110A073
:1029300003F038FB94F83D0010B107E0012010BD12
:10294000002084F83C00204600F02EF8022084F895
:102950003D00211D206801F02FF9012084F83D0081
:10296000002010BD002C0140000400400008004081
:102970002E2E2F447269766572732F53544D333265
:10298000463178785F48414C5F4472697665722FB2
:102990005372632F73746D3332663178785F686178
:1029A0006C5F74696D2E630008B51A4A01681A4895
:1029B000914208D1816941F400618161806900F42C
:1029C0000060009008BD154A91420ED1C16941F0E6
:1029D0000201C161C069002200F0020000901146AE
:1029E0001D20FFF74DFA1D2010E00D4A9142E9D15C
:1029F000C16941F00401C161C069002200F0040016
:102A0000009011461E20FFF73BFA1E20BDE808404B
:102A1000FFF706BA002C01400010024000040040FD
:102A20000008004010B5044600680F4988420DD0E8
:102A3000B0F1804F0AD00D49884207D00C49884236
:102A400004D040F22F110BA003F0ACFA022084F85E
:102A50003D002068016841F001010160012084F817
:102A60003D00002010BD0000002C0140000400408B
:102A7000000800402E2E2F447269766572732F5322
:102A8000544D3332463178785F48414C5F44726927
:102A90007665722F5372632F73746D33326631789B
:102AA000785F68616C5F74696D2E630010B50446D1
:102AB00000680E4988420DD0B0F1804F0AD00C4911
:102AC000884207D00B49884204D040F25D110AA029
:102AD00003F068FA2068C16841F00101C160206814
:102AE000016841F001010160002010BD002C01408F
:102AF00000040040000800402E2E2F4472697665C5
:102B000072732F53544D3332463178785F48414CBD
:102B10005F4472697665722F5372632F73746D33DD
:102B200032663178785F68616C5F74696D2E63001E
:102B300010B504460068134988420DD0B0F1804FAB
:102B40000AD01149884207D01049884204D04FF476
:102B5000A3710FA003F026FA022084F83D0020683C
:102B6000016A41F21112114207D1016A9210114219
:102B700003D1016821F001010160012084F83D00CA
:102B8000002010BD002C014000040040000800405F
:102B90002E2E2F447269766572732F53544D333243
:102BA000463178785F48414C5F4472697665722F90
:102BB0005372632F73746D3332663178785F686156
:102BC0006C5F74696D2E63002DE9F047044690F840
:102BD0003C000D4601283CD04FF0010984F83C90A0
:102BE000022084F83D0028684FF480564FF40058C6
:102BF000B04215D0404513D090B1102810D02028F5
:102C00000ED030280CD040280AD0502808D0602898
:102C100006D0702804D040F65971C5A003F0C2F95F
:102C20002068816821F0770121F47F418160CF49DC
:102C30002B68CD48CE4ACF134FF0804C502B7DD01F
:102C40000FDC202B7BD007DC002B79D0102B78D128
:102C50003BE10220BDE8F087302B73D0402BF6D14A
:102C6000F7E0602B6FD04FF4405A702B51D0B34235
:102C70003CD04345EBD1236883420AD0634508D05A
:102C80008B4206D0934204D040F68871A8A003F08E
:102C900089F9A86850B1B04208D0404506D05045E7
:102CA00004D040F68B71A2A003F07CF96868B842AA
:102CB00009D040B1022806D00A2804D040F68C7111
:102CC0009BA003F06FF9E8680F2804D940F68D71D6
:102CD00097A003F067F9D5E90121EB68206801F0BE
:102CE0007FF92068816841F4804153E02368834282
:102CF0000AD0634508D08B4206D0934204D040F6F8
:102D000065718BA003F04EF92068816821F00701FE
:102D100040E0236883420AD0634508D08B4206D046
:102D2000934204D040F66E7181A003F03BF9A8688D
:102D300088B1B0420FD040450DD005E02CE0D5E081
:102D4000B2E080E0E3E052E0504504D040F671711B
:102D500077A003F027F96868B84209D040B102288B
:102D600006D00A2804D040F6727171A003F01AF957
:102D7000E8680F2804D940F673716DA003F012F9CA
:102D8000D5E90121EB68206801F02AF92068816803
:102D900041F07701816056E0236883420AD06345A1
:102DA00008D08B4206D0934204D040F69C7160A0BC
:102DB00003F0F8F86868B84209D040B1022806D09C
:102DC0000A2804D040F69F7159A003F0EBF8E86898
:102DD0000F2804D94FF47A6155A003F0E3F8EA68AC
:102DE0006968206801F09FF95021206829E0236874
:102DF00083420AD0634508D08B4206D0934204D068
:102E000040F6AB714AA003F0CDF86868B84209D02B
:102E100040B1022806D00A2804D040F6AE7144A082
:102E200003F0C0F8E8680F2804D940F6AF7140A05D
:102E300003F0B8F8EA686968206801F085F9602154
:102E4000206801F00AF984F83D90002084F83C00E5
:102E500000E7236883420AD0634508D08B4206D03E
:102E6000934204D040F6BA7131A003F09BF8686831
:102E7000B84209D040B1022806D00A2804D040F652
:102E8000BD712BA003F08EF8E8680F2804D940F636
:102E9000BE7127A003F086F8EA686968206801F02F
:102EA00042F940212068CCE7236883420AD0634579
:102EB00008D08B4206D0934204D040F6C9711CA0C2
:102EC00003F070F800212068BBE7236883420AD032
:102ED000634508D08B4206D0934204D040F6D171AE
:102EE00013A003F05FF810212068AAE7236883424B
:102EF0000AD0634508D08B4206D0934204D040F6F6
:102F0000D9710BA003F04EF82021206899E72368BF
:102F100083420AD0634508D08B4206D0934204D046
:102F200040F6E17102A003F03DF83021206888E707
:102F30002E2E2F447269766572732F53544D33329F
:102F4000463178785F48414C5F4472697665722FEC
:102F50005372632F73746D3332663178785F6861B2
:102F60006C5F74696D2E6300002C0140000400400A
:102F700000080040704770B50446006801694FF0D2
:102F80000005C943890715D4C168C943890711D40D
:102F9000E91E0161012020772068806980072046B2
:102FA00002D0FFF7E7FF04E000F098F8204600F0B9
:102FB00096F8257720680169C943490717D4C16885
:102FC000C943490713D46FF004010161022020773F
:102FD0002068806910F4407F204602D0FFF7CAFFC6
:102FE00004E000F07BF8204600F079F825772068AF
:102FF0000169C943090716D4C168C943090712D436
:103000006FF008010161042020772068C069800703
:10301000204602D0FFF7AEFF04E000F05FF8204644
:1030200000F05DF8257720680169C943C90617D407
:10303000C168C943C90613D46FF0100101610820AB
:1030400020772068C06910F4407F204602D0FFF747
:1030500091FF04E000F042F8204600F040F82577A8
:1030600020680169C943C90708D1C168C943C907B4
:1030700004D1891E0161204600F032F82068016900
:10308000C943090609D4C168C943090605D46FF0CC
:10309000800101612046FFF796FB20680169C94362
:1030A000490609D4C168C943490605D46FF04001F7
:1030B0000161204600F032F820680169C9438906A1
:1030C0000BD4C168C943890607D46FF020010161A0
:1030D0002046BDE87040FFF777BB70BD7047704772
:1030E00010B50068084988420CD108490020282200
:1030F00008600749074801F0B7FABDE810400648E4
:10310000FFF716BD10BD00000008004020000020A1
:1031100084020020F8000020C4010020704770479E
:1031200070B5026804461068D168536910F00F0F3B
:1031300050D003F0010501F4907635435DD0C2070D
:1031400005D0CA0503D5E26B42F00102E2634207F3
:1031500005D5DA0703D0E26B42F00202E263820790
:1031600005D5DA0703D0E26B42F00402E2630207FE
:1031700005D5DA0703D0E26B42F00802E263E26BA6
:10318000002A33D0800604D5880602D5204600F0F8
:103190009BFE20684069E16BC0F38010090700D4F2
:1031A00028B3204600F06BFF2068416949061AD514
:1031B000416921F040014161606BA0B11B4941634D
:1031C000606BFEF787F9002810D0606B416BBDE89B
:1031D00070400847830610D58B060ED52046BDE803
:1031E000704000F071BE2046FFF799FF70BD204689
:1031F000FFF795FF0020E06370BD030606D50B06C0
:1032000004D52046BDE8704000F0B9BE4006F3D5B5
:103210004806F1D5D168204621F04001D160202137
:1032200084F8391000F08AFA70BD0000E940000807
:1032300070B5040020D0A06930490028304A314BD5
:1032400020681BD088420AD0904208D0984206D00D
:1032500040F20F112CA002F0A5FEA069C8B1A06930
:10326000B0F5807F15D0B0F5007F12D0B0F5407F6B
:103270000FD04FF4887109E0012070BD884208D05A
:10328000904206D0984204D04FF48A711EA002F0FA
:1032900089FEA06838B1B0F5805F04D04FF48B711F
:1032A00019A002F07FFE94F83900002520B984F8B7
:1032B0003850204600F046F8242084F83900206871
:1032C000C16821F40051C160204600F0F9FC20687B
:1032D000016921F4904101612068416921F02A01CE
:1032E00041612068C16841F40051C160E56320205C
:1032F00084F8390084F83A00002070BD003801409D
:1033000000440040004800402E2E2F44726976652C
:1033100072732F53544D3332463178785F48414CA5
:103320005F4472697665722F5372632F73746D33C5
:1033300032663178785F68616C5F756172742E6394
:10334000000000002DE9F0470446DFF83882D0F88D
:1033500000C08D48022103228C4B102700258026B7
:1033600086B04FF480694FF4005AC44551D1D0F86B
:1033700018C04CF4804CC0F818C08069039200F467
:10338000804004900802CDE900016946984618463D
:10339000FEF7C8FACDE90095694640460295FEF76A
:1033A000C1FADFF8F0817A494046C8F80010C0E958
:1033B0000175C0E90365C8F81450C8E9065AB1465A
:1033C0005746FEF77DF918B19C2173A000F03DFC33
:1033D000704E6F48C4F8308044361430C8F824402A
:1033E000C6E90005C6E9025935617561C6E90657A7
:1033F0003046FEF765F918B1AC2167A000F025FC56
:1034000066630022114625207462FEF739FD2520EF
:1034100059E0DFF89481C4455AD1D0F81CC04CF46F
:10342000003CC0F81CC0C069039200F40030049056
:103430000420CDE90001694698461846FEF772FA65
:103440000820CDE90005694640460295FEF76AFA74
:10345000DFF840814E4908F1880840463C31C0E918
:103460000256C8F81050C8F81450C8F81850C8E9E7
:103470000017D146C8F81CA0FEF722F918B1DA21CE
:1034800045A000F0E2FB434F4148C4F83080CC3700
:103490002830C8F82440C7E90005C7E902563D6155
:1034A0007D61C7E906593846FEF70AF918B1EA21E5
:1034B00039A000F0CAFB67630022114626207C6217
:1034C000FEF7DEFC2620FEF7ABFC06B0BDE8F08779
:1034D000364B9C45F9D1C36943F48023C361C0696D
:1034E000CDE9009100F48020CDE90320DFF8C08011
:1034F00069464046FEF716FA4FF40060CDE9000534
:10350000694640460295FEF70DFADFF8A88020498B
:1035100040462839C0E90256C8F81050C8F814507F
:10352000C8F81850C8E900174FF48059C8F81C9023
:10353000FEF7C6F820B14FF48C7117A000F085FBA0
:103540001C4F1348C4F8308044371438C8F824405E
:10355000C7E90005C7E902563D617D61C7E9065923
:103560003846FEF7ADF820B14FF494710AA000F090
:103570006CFB67630022114627207C62FEF780FC0B
:103580002720A0E700380140001002400008014059
:1035900044000240C40200202E2E2F5372632F7568
:1035A000736172742E6300000044004000480040C4
:1035B000000C0140D4030020F8B5044690F83A000E
:1035C00020283CD1C1B3BAB394F83800012836D0D2
:1035D000012084F83800A162A2850025E56322203D
:1035E00084F83A00636B17489862636B1648D86298
:1035F000636B16481863606B134645630846666B39
:10360000216802463046091DFEF714F9206801685A
:103610004168009184F83850C16841F48071C160FC
:103620002068416941F0010141612068416941F030
:10363000400141610020F8BDFFE70120FBE70220C7
:10364000F9E70000AD4000086B400008773C000837
:1036500070B500681049114C884206D10025104809
:103660002560FFF7DFF90F4805604FF480510E48E1
:10367000FEF7ECFA0D4801F0C1F80D48006800288B
:1036800009D12068002806D1BDE8704028220949E8
:10369000064800F0E9BF70BD004800401800002057
:1036A00044010020242C0140000C0140F8000020BF
:1036B00020000020840200207047000070B50446FE
:1036C00090F83900202830D169B362B394F83800FB
:1036D00001282AD0012084F838002162A284E284E3
:1036E0000025E563212084F83900236B1048986297
:1036F000236B1048D862236B0F481863206B134666
:1037000045632668206B321DFEF794F821686FF040
:103710004000086084F838502068416941F0800119
:103720004161002070BD012070BD022070BD00000D
:10373000F940000875400008773C000810B50068A3
:10374000094988420FD100224FF400410748FEF793
:10375000A9FA0749074B00220868401C08601A6054
:10376000022800D10A6010BD00380140000C014061
:10377000080000202C0000207047FEE71D4808B517
:10378000416941F0010141614069002200F00100FE
:10379000009011460C20FEF773FB0C20FEF740FB57
:1037A000002211460D20FEF76BFB0D20FEF738FBC3
:1037B000002211460E20FEF763FB0E20FEF730FBC1
:1037C000002211460F20FEF75BFB0F20FEF728FBBF
:1037D000002211461020FEF753FB1020FEF720FBBD
:1037E000002211461120FEF74BFBBDE808401120D6
:1037F000FEF716BB001002402DE9F047364886B0B0
:10380000816941F010018161816901F01001049129
:10381000816941F020018161816901F020010491F9
:10382000816941F004018161816901F00401049121
:10383000816941F0080181618069DFF8A09000F0A2
:1038400008000490002250214846FEF72BFADFF8CA
:1038500090A04BF20908002241465046FEF722FA9A
:103860004FF460400324CDE9000469461D48FEF78B
:1038700059F8009469461C480194FEF753F849F63C
:10388000A310CDE9000469464846FEF74BF85020E6
:103890000125002602278DE8E10069464846FEF72B
:1038A00041F801AACDF8008082E8E0006946504660
:1038B000FEF738F844F2F630CDE900046946504688
:1038C000FEF730F80948416841F0E06141F40041F9
:1038D000416006B0BDE8F0870010024000080140DA
:1038E000000C0140001001400014014000000140A4
:1038F00010B5184886B0164901604FF4965100245F
:10390000C0E901141449C0E9031444618461FEF75D
:10391000DBFF18B1422111A000F097F94FF480505D
:10392000009069460B48FFF74FF918B148210BA0EA
:1039300000F08BF9049404A906480594FEF746FFAD
:10394000002803D04F2105A000F07FF906B010BD7C
:10395000002C014044010020A08601002E2E2F5390
:1039600072632F74696D2E630000000010B5184853
:1039700086B0164901604FF496510024C0E9011445
:103980000A21C0E903148461FEF79EFF18B161218A
:1039900010A000F05AF94FF48050009069460C488E
:1039A000FFF712F918B167210AA000F04EF904944C
:1039B00004A907480594FEF709FF002803D06E21EB
:1039C00004A000F042F906B010BD00000004004061
:1039D000840100202E2E2F5372632F74696D2E6385
:1039E0000000000010B5184886B0164901604FF479
:1039F00096510024C0E90114C910C0E90314846180
:103A0000FEF762FF18B1802110A000F01EF94FF4FC
:103A10008050009069460C48FFF7D6F818B186210F
:103A20000AA000F012F9049404A907480594FEF7CF
:103A3000CDFE002803D08D2104A000F006F906B0C9
:103A400010BD000000080040C40100202E2E2F539E
:103A500072632F74696D2E63000000000D4810B56D
:103A60000B4901604FF4E1314160002181600C227B
:103A7000C160C0E904128161C161FFF7D9FB002870
:103A800005D0BDE810404B2103A000F0DEB810BD0A
:103A900000380140040200202E2E2F5372632F7530
:103AA000736172742E6300000D4810B50B490160FC
:103AB0004FF4E1314160002181600C22C160C0E916
:103AC00004128161C161FFF7B3FB002805D0BDE896
:103AD00010405E2103A000F0B8B810BD00440040C3
:103AE000440200202E2E2F5372632F75736172745F
:103AF0002E6300000D4810B50B4901604FF4E13111
:103B00004160002181600C22C160C0E90412816122
:103B1000C161FFF78DFB002805D0BDE81040712181
:103B200003A000F092B810BD0048004084020020BD
:103B30002E2E2F5372632F75736172742E630000E3
:103B4000FEE770477047704710B5FEF7E7F8BDE82D
:103B50001040FEF734BE00000D48016841F001013D
:103B6000016041680B4A1140416001680A4A1140F6
:103B70000160016821F480210160416821F4FE01A7
:103B800041604FF41F0181600449C0030860704721
:103B9000001002400000FFF8FFFFF6FE08ED00E015
:103BA0000148FFF7E8B90000840100200148FFF751
:103BB000E2B90000C4010020F0B50268164B174CB2
:103BC000174D4FF08047984205D0B84203D0A0422D
:103BD00001D0A84203D122F070064A6832439842CD
:103BE00005D0B84203D0A04201D0A84203D122F4AC
:103BF0004074CA68224322F080044A69224302606A
:103C00008A68C2620A688262984201D109690163C6
:103C100001214161F0BD0000002C01400004004082
:103C2000000800400148FFF77BBA000004020020B2
:103C30000148FFF775BA0000440200200148FFF771
:103C40006FBA000084020020FEE7FEE730B590F86E
:103C500040500124AC40C56B6C60046863604368ED
:103C6000102B036803D099600068C26030BD9A6071
:103C70000068C16030BD70B5446A2068406994F83E
:103C80003910C0F3C0100025212904D118B1E584F2
:103C9000204600F002FA2068406994F83A10C0F318
:103CA0008010222904D118B1E585204600F0E7F9FB
:103CB000E06B40F01000E0632046FFF730FA70BD83
:103CC0002DE9F041044640686E49884204D340F62D
:103CD000A7116DA002F066F9E06838B1B0F5005F99
:103CE00004D040F6A81168A002F05CF9206950B138
:103CF000B0F5806F07D0B0F5C06F04D040F6A911C1
:103D000061A002F04FF960694FF6F371084200D1EB
:103D100020B940F6AA115CA002F044F920680169BC
:103D2000E26821F44051114301612169A068084310
:103D3000616908432168CA6841F20C639A430243EF
:103D4000CA6020684169A26921F440711143416150
:103D50005C4920686425322688423CD1FEF764FA2B
:103D600000EBC00101EB001061688900B0FBF1F7C6
:103D7000FEF75AFA00EBC00101EB00106168B04693
:103D80008900B0FBF1F0B0FBF5F06FF0180148438B
:103D900007EB800106EB0110B0FBF5F000F0F00638
:103DA000FEF742FA00EBC00101EB001061688900E8
:103DB000B0FBF1F0B0FBF5F006EB0016FEF734FABD
:103DC00000EBC00101EB001061688900B0FBF1F766
:103DD000FEF72AFA3BE0FEF717FA00EBC00101EB11
:103DE000001061688900B0FBF1F7FEF70DFA00EBF7
:103DF000C00101EB00106168B0468900B0FBF1F032
:103E0000B0FBF5F06FF01801484307EB800106EBBB
:103E10000110B0FBF5F000F0F006FEF7F5F900EB4D
:103E2000C00101EB001061688900B0FBF1F0B0FB4C
:103E3000F5F006EB0016FEF7E7F900EBC00101EB29
:103E4000001061688900B0FBF1F7FEF7DDF900EBC7
:103E5000C00101EB001061688900B0FBF1F0B0FB1C
:103E6000F5F06FF01801484307EB800108EB0110F3
:103E7000B0FBF5F0216800F00F0030448860BDE829
:103E8000F081000021AA44002E2E2F44726976652D
:103E900072732F53544D3332463178785F48414C1A
:103EA0005F4472697665722F5372632F73746D333A
:103EB00032663178785F68616C5F756172742E6309
:103EC000000000000038014010B590F83A10222997
:103ED00001D0022010BD8168B1F5805F11D0016969
:103EE000002901681FD0496801F07F03816A4A1CDC
:103EF00082620B70C18D491E0904090CC18518D05E
:103F00002BE00269816A002A0268526805D0D2B2A9
:103F10000A80816A491C8162ECE7C2F308020A80C8
:103F2000816A891CF7E74A68816A4B1C83620A70C0
:103F3000E0E70168CA6822F02002CA600168CA6826
:103F400022F48072CA6001684A6922F001024A6163
:103F5000202180F83A10FFF77BFB002010BD0907F5
:103F6000090E002806DA00F00F0000F1E02080F8CA
:103F7000141D704700F1E02080F80014704790F89D
:103F80003910212901D0022070478168B1F5805F86
:103F9000016A0BD04A1C0262026809785160C18C28
:103FA000491E0904090CC1840ED017E00988026873
:103FB000C1F30801516001690029016A02D0491C5E
:103FC0000162ECE7891CFBE70168CA6822F0800205
:103FD000CA600068C16841F04001C16000207047BC
:103FE00010B5846842EA032224F47F440A43224342
:103FF000826010BD30B58FB002250120049000957D
:104000001020059000244FF42010CDE908400795BA
:104010006846FEF74FF900B1FEE70F20CDE90A052B
:104020004FF48060CDE90C4001210AA80E94FDF701
:10403000B7FF00B1FEE7FEF7E1F84FF47A71B0FB8D
:10404000F1F0FEF7A8FB0420FEF772FB00221146F8
:10405000501EFDF715FF0FB030BD826822F07002D0
:104060000A4342F007018160704710B5406AFFF7CC
:1040700023FB10BD10B5406AFFF77EFB10BD016841
:10408000CA6822F49072CA6001684A6922F001028B
:104090004A61202180F83A1070470168CA6822F00E
:1040A000C002CA60202180F83910704710B501465F
:1040B000406A09680968890613D40021C18501682E
:1040C000CA6822F48072CA6001684A6922F001025B
:1040D0004A6101684A6922F040024A61202180F861
:1040E0003A10FFF7B5FA10BD10B5406A0021C1853E
:1040F000C184FFF714F810BD10B50146406A096885
:10410000096889060CD40021C18401684A6922F03B
:1041100080024A610068C16841F04001C16010BD81
:10412000FFF70CFB10BD10B5036A046A24F001040C
:104130000462846924F0F00444EA021423F00A02C1
:104140000A438461026210BD10B5036A23F01003B4
:1041500003628369046A23F4704343EA023224F061
:10416000A00343EA01118261016210BD1FB51C4624
:1041700000F0A4FC0449496804B0204610BDAFF328
:104180000080AFF30080F7E7BC00002013B50024E7
:10419000012001F091F90446204601F085F94FF025
:1041A000FF301CBDAFF30080AFF30080F4E730B503
:1041B000DDE90345017042708370C470856030BDD5
:1041C0002DE9F0411F4690460D00064601D00C46F1
:1041D00000E040241EB9204601F06AF906463B463D
:1041E0004246214601F08AF9002802DA00203070A8
:1041F00010E0844202DA00F1010402E00AD14FEA41
:1042000044041DB14FF00000BDE8F081304601F0DC
:1042100047F9E0E73046F7E72DE9FF4F484D002723
:1042200089B028689B469246002857D145A00020B7
:1042300000BF040001D105F10C0420463A21FBF730
:10424000CFFF68B13E4A00F8017B121D40A1FBF789
:10425000D7FF012802D16868002801DC01206860CE
:104260003C4914208946084600BF06001BD04FF485
:104270000070C6E901073848F760306006F11008A1
:1042800007A8AFF300800246344904A802F090F971
:104290000146404602F0B0F9A0F1100604A802F071
:1042A000CAF92F4830602B4E06A8AFF300800246B3
:1042B0002146684602F07CF9074601A801F084F81F
:1042C000024630683946C36830469847A86001A85E
:1042D00001F08AF8684602F0AEF92C60AC68601C08
:1042E00026D06F680DF108081A4E554605A8AFF3A1
:1042F0000080024615A103A802F05AF9CDE900504A
:1043000030683B462246056931464046A84703A827
:1043100002F091F9029A52F8040C60B1DDE909014A
:104320005B46FFF74DFF044602A802F084F92046E1
:104330000DB0BDE8F08F02A802F07DF90020F7E78C
:10434000740000205257535444455252000000005C
:1043500025640000600400204C6B00080C6C000811
:10436000DC6B00082DE9F04180463A480F460068B2
:10437000012868D1384C0320384E394D20600AE0BE
:10438000404602F031FA2168314411F8031C0170F3
:104390002068401C2060014628688142F0DB032130
:1043A000404602F021FA2F49007808600421404677
:1043B00002F01AFA2C49007808600521404602F004
:1043C00013FA2A49007808600621404602F00CFAE8
:1043D0002749007808600721404602F005FA254980
:1043E000007808600821404602F0FEF92249007872
:1043F00008600921404602F0F7F92049007808607A
:104400000A21404602F0F0F91D49007808600B21AE
:10441000404602F0E9F91B49007808600C2140464B
:1044200002F0E2F91849007808600D21404602F0D8
:10443000DBF91649007808600E21404602F0D4F9F5
:1044400013490078086039464046BDE8F04100F065
:1044500083B9000004000020000000201C0100209F
:104460001C00002030000020340000203800002014
:104470003C000020400000204400002048000020B4
:104480004C00002050000020540000205800002064
:104490005C0000202DE9F0470024DDE90865DDE936
:1044A0000B982148DDF828C0DDF834A027460755D1
:1044B000641C0F2CFBDB50240470572444704D24E3
:1044C0008470C1700F21017142718371C6710572D0
:1044D00080F809C080F80A90144980F80B8080F8B1
:1044E0000CA003220F60835C0C68521C2344DC1771
:1044F00003EB146424F0FF041B1B0B600D2AF2DB9A
:10450000097841730D2181730122D1030848FDF719
:10451000C9FB084901200F220860BDE8F0470249A5
:104520000548FFF7CBB80000E80000200C00002091
:10453000000C01402C000020040200202DE9F0476F
:104540008246324886B04FF00009006888B30128DF
:104550002CD10E21504602F047F907780D21504624
:1045600002F042F990F800800C21504602F03CF92C
:1045700006780B21504602F037F905780A2150469B
:1045800002F032F904780921504602F02DF9027840
:10459000CDE90379CDF814908DE8600123462221FE
:1045A0005046FFF777FF1A490120086006B0BDE8C2
:1045B000F087FFE70821504602F016F990F80080D6
:1045C0000721504602F010F907780621504602F004
:1045D0000BF906780521504602F006F9057804210A
:1045E000504602F001F904780321504602F0FCF82D
:1045F0000278CDE90389CDF814908DE8E0002346D8
:1046000021215046FFF746FFD0E7000008000020B8
:104610002400002010B510480C79002200780123F6
:10462000A4B1012C10D0022C0BD14D2809D10B4C78
:10463000886820600A4803600A4BC878186001E067
:104640000B7110BD0A7110BD572802D05028F9D146
:10465000F6E70220087110BD600000201C00002059
:1046600014000020040000200846084909680129B8
:1046700006D0002908D10649012200BFFEF79CBFE1
:10468000D21E92B20349F9E77047000014000020DF
:10469000600000201C0100202DE9F0410A4D00249B
:1046A0004FF40056AF1431462846FDF7CFFA39468D
:1046B0002846FDF7CBFA6420FDF722F9641C062C8E
:1046C000F1DBBDE8F0810000000C0140F8B51C48AA
:1046D000002404601B48FFF7DFFF1B4919488B6863
:1046E0008DF80040D0E900218C1A9C4205D2A3EB42
:1046F00004026B4601F0EBFF16E015D902EB030450
:104700008A4211D00B460D46224603E013F8016B96
:1047100002F8016BAB42F9D1436800E0521C9A42A7
:10472000FCD1091B591A4160012208490848FEF7CB
:1047300043FFBDE8F840012204490648FEF73CBFAC
:1047400020000020F800002004010020600000206C
:1047500084020020040200202DE9F04781461E4813
:104760001E4F002505603968012930D103241C4EF5
:10477000804610E02146484602F036F80078D8F826
:1047800000201044C21700EB126222F0FF02801AD0
:10479000641CC8F800003068801E8442EADB31687F
:1047A0004846491E02F020F800780D280FD10D4927
:1047B000012008600C48FEF779F94FF400510B48CE
:1047C000FDF744FA0A480B490560386808600A4852
:1047D0000560BDE8F0870000100000200400002004
:1047E0001C00002020000020C4010020000C01401B
:1047F000240000202800002014000020054909683A
:1048000021B1012905D10449FFF7ACBD0249FFF7E9
:1048100001BF704714000020040100200021016046
:1048200041608160704710B50446006862680146C7
:1048300000E0491C9142FCD1A1680022091A00F055
:1048400041F8204610BD00000FB47FB5144D2A6812
:10485000002A04D00898032804DC002190477FBC7C
:104860005DF814FB09AE69460820084600BF18B180
:1048700000F0C8FB044600E00024324620460899B8
:1048800000F07EFB206881682046884701462A6840
:10489000089890472068016820468847DFE70000B5
:1048A000B000002013B5002400F006FE044614B941
:1048B0000320FFF7C9FF20461CBDAFF30080AFF314
:1048C0000080F4E700F0F0BD704700002DE9FC47E0
:1048D00007464FF00008C7F800809A46894600F165
:1048E0000805C0F804801400464608D0B4F1804F93
:1048F00001D3AFF30080A00000F0DAFD00E000205B
:10490000C5E9000403E02868641E40F82460002C18
:10491000F9D1A5F10804C5F80880C5F80C80C4E9F0
:10492000068AB9F100000AD0FBF74AFC401C054694
:1049300000F0BEFD2A464946FBF741FDA06106276F
:1049400001A8AFF300800146684601F04DFE8246A3
:104950003946174B174A042000F037FE6568804639
:10496000062D00D33D46C146266806E0314648463E
:1049700001F08EFE09F10409361D206800EB850068
:10498000B042F3D105E008EB850051466D1C01F003
:104990007FFEBD42F7D306492068FBF7FEFBC4E962
:1049A0000087684601F047FE2046BDE8FC8700000E
:1049B000376600087114000810B50446806900F0DD
:1049C0006FFD04F1080001F00BFC083801F016FC43
:1049D00010BD2DE9F04104460D4616461046002153
:1049E0002260002000BF606048B1FBF7E9FB401C7B
:1049F00000F05EFD07466168FBF7E9FB676029464A
:104A00003046002000BF2046BDE8F08110B5416867
:104A1000044629B12068002000BF606800F040FD16
:104A2000204610BD0C0008D00A460DA1104800F029
:104A300057FD204600F034FD09E050B101280AD0AE
:104A400002280AD00BA206A1094800F049FDAFF3E5
:104A500000800AA2F7E70CA2F5E711A2F3E7000035
:104A6000457863657074696F6E3A2025732E0A006D
:104A7000B4000020756E6B6E6F776E20657863658D
:104A80007074696F6E000000756E65787065637490
:104A9000656420657863657074696F6E000000005E
:104AA0006261645F616C6C6F633A206F7574206F34
:104AB00066206D656D6F72790000000010B50A49BF
:104AC00004460020D1E9003200E0401C824204D9B3
:104AD00053F8201009B1A142F7D153F82010002952
:104AE00000D1104610BD0000BC0000204068704797
:104AF0002DE9FC410D46174601684FF0FF340622B0
:104B00006846FFF766FF21462868FFF73FFB064629
:104B1000401C12D000F0A6FC0546D5E9004104EB8C
:104B2000C100A0420FD12846491C01F071FBD5E914
:104B3000000100EBC104083C0AE06846FFF766FF8D
:104B40002046BDE8FC812268521C01D00834E8E709
:104B50003946201D266000F057FC2868201AC41032
:104B6000EBE710B50C4600F07DFC4168A14204DD86
:104B7000006800EBC400001D10BDBDE8104000F04F
:104B8000EBBBF8B51C4615460E4600F06BFC4168C1
:104B9000B1420EDD006850F83600411C09D00021FA
:104BA00000916B4622462946FFF7E0FA69468842A3
:104BB00000D10020F8BD406930F81200084000D054
:104BC000012070472DE9F84F0646006889461D46CA
:104BD0004169DDF828B09246294201D0002406E060
:104BE00000693749284201D0CC6800E08C684FF05A
:104BF000000884B1D9F80070E068B84207D86A4666
:104C0000791C04F10800CDF8008001F0BEFAA0681C
:104C100050F82770F7BBBAF1000F02D10420FFF75C
:104C200013FE84B1D9F80070E068B84207D86A462C
:104C3000791C04F10800CDF8008001F0A6FAA06804
:104C400050F8277037BB326800231EA150692842F4
:104C50000ED00223102100200D4203D0116851F81C
:104C6000201009E04900401C0628F5D3164903E04E
:104C70001069284200D00123184600225B4698475D
:104C800007463CB13068A04212D02146684600F089
:104C900085FB00E00CE04A463946684600F016F80D
:104CA000CDF80080E069401EE061684600F09CFBA2
:104CB0004A463946304600F009F83846BDE8F88FD4
:104CC0009400002000000000086C0008F8B50646BB
:104CD000087A15460C46C0070FD1286820B9174935
:104CE0000868401C086028602068314682682046B9
:104CF0009047A06840F00100A06030682D68C0684F
:104D0000A84207D80020009030686A46691C083025
:104D100001F03BFA3068806850F8250030B1C16876
:104D2000491EC16002D1016849688847E068401C9B
:104D3000E0603068806840F82540F8BDD800002069
:104D40007CB5054608680C46806948B16846AFF3F3
:104D50000080024620688169284601F029FC7CBD5C
:104D600001A8AFF30080024600A1F5E72A00000089
:104D700010B50446FBF723FB204610BD7CB5044666
:104D80002DA1FBF73DFBE8B32CA12046FBF738FB38
:104D9000C0B34FF4007000F08BFB054602222146A1
:104DA0006846FFF716FE0024FBF7FCFA06464FF4B0
:104DB000807330680021005D10F0010F00D00121E8
:104DC00010F03E0F01D041F0020110F0400F01D071
:104DD00041F0040110F0100F01D041F0080110F073
:104DE000080F01D041F0100110F0980F01D041F0F0
:104DF000200120281DD000220AB141F0400110F00E
:104E0000020F00E013E001D041F0800180EA800051
:104E100010F0800F01D041F4807125F81410641C4B
:104E20009C42C6D16846FFF7F1FD28467CBD054887
:104E30007CBD0122E0E7000043000000504F5349D1
:104E400058000000BC6800082DE9FC4106461546E4
:104E50000C460846FFF792FF01462B4600223046DB
:104E600000F086F93E490160064640693D498842A6
:104E700073D001203076022221466846FFF7A9FD53
:104E80000024FF25E2B210213046FFF794FE38B926
:104E900009E0EAB210213046FFF78DFE30B96D1EF1
:104EA000A542F6D802E0641CAC42EBD3C6E9074544
:104EB000F76A18E0A4F16100192810D8E2B21021B5
:104EC0003046FFF778FE50B1A4F1200808F0FF0249
:104ED00008213046FFF76FFE08B1404600E020464B
:104EE00007F8010B641CAC42E4D90024FF25E2B2B0
:104EF00008213046FFF75FFE38B909E0EAB2082121
:104F00003046FFF758FE30B96D1EA542F6D802E0D4
:104F1000641CAC42EBD3C6E90945376B18E0A4F139
:104F20004100192810D8E2B208213046FFF743FEAD
:104F300050B104F1200808F0FF0210213046FFF7BD
:104F40003AFE08B1404600E0204607F8010B641C19
:104F5000AC42E4D96846FFF759FD3046BDE8FC8114
:104F6000606B0008BC68000810B500F004F8BDE8EC
:104F7000104000F099BA10B500F08EF910BD000095
:104F8000F7B51746002413460D4606460A46214645
:104F90002046FFF741F904000DD1002D01DB172D4C
:104FA00000D30025164800213B4650F8252008462E
:104FB000FFF706F904467068B8B1FBF701F905463A
:104FC0002046FBF7FDF82844401C00F071FA716898
:104FD000FBF7FDF82146FBF7E7F80546706800F09F
:104FE0005FFA204600F05CFA2C4674603046FEBD45
:104FF000AFF30080204600F053FAAFF30080F5E7EE
:105000006068000810B500F027FA0249016000212D
:10501000416010BD946B000810B504460448206040
:10502000606800F03DFA2046AFF3008010BD00003C
:10503000946B000810B501F0FEFA10BD10B50446DF
:105040004FF0FF30206000F087F90146201D00F08E
:10505000B5F9001F10BD10B5001D00F0C5F9001F07
:1050600010BD10B5044601C92060201D00F0CCF928
:10507000204610BD2DE9FE43064602A8FFF760FE5C
:10508000022268460299FFF7A4FC02A801F0D3FAB5
:105090000024FF25E2B210213046FFF78CFD38B91D
:1050A00009E0EAB210213046FFF785FD30B96D1EE8
:1050B000A542F6D802E0641CAC42EBD3C6E9074532
:1050C000F76A18E0A4F16100192810D8E2B21021A3
:1050D0003046FFF770FD50B1A4F1200808F0FF0240
:1050E00008213046FFF767FD08B1404600E0204642
:1050F00007F8010B641CAC42E4D90024FF25E2B29E
:1051000008213046FFF757FD38B909E0EAB2082117
:105110003046FFF750FD30B96D1EA542F6D802E0CB
:10512000641CAC42EBD3C6E90945376B18E0A4F127
:105130004100192810D8E2B208213046FFF73BFDA4
:1051400050B104F1200808F0FF0210213046FFF7AB
:1051500032FD08B1404600E0204607F8010B641C10
:10516000AC42E4D96846FFF751FCBDE8FE8300007D
:105170002DE9F0410646202070600020C6E90203B8
:105180003F4B33607161327611B93E4971613076BF
:105190000024FF25E2B210213046FFF70CFD38B99C
:1051A00009E0EAB210213046FFF705FD30B96D1E67
:1051B000A542F6D802E0641CAC42EBD3281BC6E93A
:1051C0000745401C00F074F90746F06218E0A4F1AE
:1051D0006100192810D8E2B210213046FFF7EBFC2D
:1051E00050B1A4F1200808F0FF0208213046FFF773
:1051F000E2FC08B1404600E0204607F8010B641CC1
:10520000AC42E4D90024FF25E2B208213046FFF782
:10521000D2FC38B909E0EAB208213046FFF7CBFCEE
:1052200030B96D1EA542F6D802E0641CAC42EBD347
:10523000281BC6E90945401C00F03AF907463063CF
:1052400018E0A4F14100192810D8E2B20821304634
:10525000FFF7B1FC50B104F1200808F0FF02102163
:105260003046FFF7A8FC08B1404600E0204607F8AA
:10527000010B641CAC42E4D93046BDE8F08100006B
:10528000A86B0008BC68000810B500F005F8BDE880
:10529000104000F009B9000010B50446084820602D
:1052A000207E10B1606900F0FBF8E06A00F0F8F8C9
:1052B000206B00F0F5F82046AFF3008010BD000031
:1052C000A86B000810B5AFF30080BDE8104000F0F7
:1052D000EBB8000070B51D4E3069002827D12020A2
:1052E00000F0EAF8044602230A2219A1FFF7EEFAB9
:1052F00000241025B06008E0B1680868896900EBF7
:10530000840001F09FF96D00641C15F47C7FF3D1DB
:10531000202000F0D1F8044601230A220DA1FFF756
:10532000D5FA4FF47C71F0600161B068306170BDF6
:10533000AFF30080B06818B1FFF73EFB00F0B4F89F
:1053400000203061B060AFF3008070BD9400002099
:10535000430000000000000010B50D4C206908B9A2
:10536000FFF7B8FF2078C0070FD1094800F037F9E0
:1053700058B10748A168001D00F010F8054A064919
:10538000FAF7F4FE0248AFF300800148001D10BD9B
:105390009400002000000008E953000810B50446FE
:1053A00001600548006908B9FFF794FF2168C869E2
:1053B000401CC861204610BD9400002009680160AF
:1053C000CA69521CCA61704770B5064C0546206810
:1053D00008B9FFF77FFF21682960C869401CC861D0
:1053E000284670BDA400002010B50446006848B1EE
:1053F000C169491EC16105D1206818B1FFF7DCFA07
:1054000000F052F8204610BD70B50D460446016804
:10541000286881420FD0C169491CC1612068C169F7
:10542000491EC16105D1206818B1FFF7C5FA00F027
:105430003BF828682060204670BD10B500F004F8E5
:10544000BDE8104000F030B810B51030FFF7F2FDA5
:105450001038AFF3008010BD0149016070470000B3
:10546000FC6B00080A4810B50078C0070ED1084848
:1054700000F0B5F850B107480021074A01604160CB
:105480000649FAF773FE0248AFF30080014810BDE9
:10549000DC000020E0000020000000089962000805
:1054A00010B500F001F810BD10B500F085FD10BD7D
:1054B00010B500F001F810BD10B5040007D10124AB
:1054C00005E0FBF753FB006800B90448804720461D
:1054D00000F0F8FD0028F4D010BD000083020008A1
:1054E0000FB4024610B504A9034B039800F0B8F9B5
:1054F00010BC5DF814FB0000A75F00087CB50446F3
:1055000000201D46164600290BD0491ECDE900415A
:10551000044B6A462946304600F0A2F9009A002161
:1055200011707CBD8F5F00082DE9FF4D82B08B4666
:10553000824601200F9990460AFB0BF6009006B9AF
:1055400001261446301911B1884720B101E0FFF758
:10555000AFFF044400E0002484B1B8F1000F01D093
:1055600044E902BA059848B10025274604E00599A8
:10557000384688475F446D1C5545F8DB06B0204629
:10558000BDE8F08DAFF300800E9828B103465A466F
:1055900029463846FBF75EFF009860B1109AA4EBED
:1055A000080006EB0801904705E0AFF30080FAF72A
:1055B0006AFEAFF30080FBF79BFC002804D0A0F14B
:1055C00008020CCAFBF795BC704738B50C4600932F
:1055D000134601460822204600F00AF838BD01684B
:1055E00009B10020704701210160084670470000A2
:1055F000FEB5044E089C00258DE87000FFF794FF6F
:10560000FEBD0000A154000802E008C8121F08C136
:10561000002AFAD170477047002001E001C1121F33
:10562000002AFBD170470000024800210160001DE4
:1056300001607047A800002070B50A4D02240026C2
:105640000820FFF735FFC5E900042868641E40F80C
:105650002460FAD12846BDE87040034A0349FAF7AE
:1056600085BD0000BC00002000000008EF610008BC
:105670001CB50F48FFF7D2F80E4A0F49FAF776FD2E
:1056800028210120CDE9000109484D23572250214E
:105690000C30FEF78CFD0E210420CDE900010448FA
:1056A0004423452248211830FEF781FD1CBD00002F
:1056B000F8000020000000082748000802480021E8
:1056C0000160001D016070478C0000202DE9FF5F24
:1056D00082B00021DDE90430020DDDF840B0034363
:1056E00018D044F61050A2F2FF324243151411981C
:1056F00001281FD0A5EB0B00401C5FEA000A4FF009
:1057000000064E4FDFF83891B046504615D5CAF125
:10571000000413E0119801244AA3012801D16FEA83
:105720000B010298119AC0E90031C0E9024206B0AB
:10573000BDE8F09FCBF10000DFE704460021404ABE
:10574000491842EB0450CDE9001012E0E00707D001
:1057500032463B4640464946FBF7B9FA8046894601
:1057600032463B4610461946FBF7B1FA06460F464D
:105770006410002CEAD1DDE90401DDE90023BAF16F
:10578000000F06DAFBF7A3FA42464B46FBF79FFAF7
:1057900005E0FBF70EFB42464B46FBF70AFB0446CF
:1057A0000E460022284BFBF78BFB03D84FF0FF304F
:1057B000014607E00022254B20463146FBF7E0F981
:1057C000FBF766FB102409E0002C0ADB0A22002309
:1057D000FAF7B6FD039B30321A55641E50EA0102F7
:1057E000F2D1641C039AC4F111031444119A012AE2
:1057F00003D0012208430DD10AE0084304D0002061
:105800004FF0110B119072E7A3EB0B056D1E0DE02D
:105810005B4504DD4FF0000205F1010504E003DA09
:105820004FF00002A5F10105002AECD00298119971
:10583000C0E90231C0E9004579E7000000001440EA
:105840000000F03F300000000000F0430000E03FA7
:1058500030380A2801D2012070470020704700002C
:105860002DE9FF4F95B09B468946064600250FE27D
:10587000252877D100242746F84A0121059400E025
:10588000044316F8013F203B01FA03F01042F7D120
:1058900030782A2811D06FF02F033078A0F1300231
:1058A000092A16D8059A44F0020402EB820203EB9F
:1058B00042021044761C0590EFE759F8042B05923C
:1058C000002A03DA504244F40054059044F00204E4
:1058D000761C30782E2816D116F8010F44F00404F7
:1058E0002A280DD06FF02F023078A0F13003092B59
:1058F00009D807EB870302EB4303C718761CF3E7CD
:1059000059F8047B761C30786C280FD006DC4C28C4
:1059100017D068280DD06A2814D104E0742810D05C
:105920007A280FD10DE044F400140AE044F4801406
:1059300001E044F440147278824202D104F58014EC
:10594000761C761C307866280BD013DC582877D06C
:1059500009DC002875D04528F6D04628F4D0472821
:105960001AD19DE118E0632835D0642879D06528E4
:1059700012D195E1702873D008DC6728F1D069282E
:105980006FD06E280DD06F2806D1B5E073282CD0CB
:10599000752875D0782874D05A46179990476D1C91
:1059A00075E1C4F30250022809D003280DD0D9F8BC
:1059B000001004280DD00D6009F1040967E1D9F841
:1059C0000010EA17C1E90052F6E7D9F800100D807F
:1059D000F2E70D70F0E719F8041B8DF800100020B5
:1059E0008DF80100EA46012003E059F804AB4FF0BE
:1059F000FF3061074FF0000102D40DE008F1010112
:105A00008846B9420FDA8045F8DB1AF808100029F9
:105A1000F4D108E008F1010188468142FADB1AF866
:105A200008100029F6D105985B46A0EB080721462F
:105A30003846179A00F094FA284400EB080507E06E
:105A40004DE029E10DE01AF8010B5A4617999047ED
:105A5000B8F10108F7D25B4621463846179A13E1A0
:105A600042E00A220092C4F302524FF0000A022AD6
:105A700008D059F804CB032A4FEAEC710AD00DE0A4
:105A800029E02AE009F1070121F00702F2E802C14A
:105A9000914609E00FFA8CFC4FEAEC71042A03D11D
:105AA0004FFA8CFC4FEAEC71002907DA0A46002114
:105AB000DCF1000C61EB02012D2202E0220504D58D
:105AC0002B228DF80420012203E0E20701D02022DE
:105AD000F7E7904659E00A2102E010220DE010217C
