:020000040800F2
:10000000780D0020A5010008F7330008772D0008BF
:10001000F5330008B1150008DD35000800000000C8
:10002000000000000000000000000000FB3300089A
:10003000F115000800000000F9330008FD33000846
:10004000BF010008BF010008BF010008BF01000890
:10005000BF010008BF010008BF010008BF01000880
:10006000BF010008BF010008BF010008BF01000870
:10007000B5150008C1150008CD150008D9150008F0
:10008000BF010008BF010008BF010008BF01000850
:10009000BF010008BF010008BF010008BF01000840
:1000A000BF010008BF010008BF010008BF01000830
:1000B000BF010008BF010008BF010008BF01000820
:1000C000BF010008BF010008BF010008BF01000810
:1000D000BF010008BF010008BF010008D1350008BA
:1000E000BF010008BF010008BF0100086D3400080F
:1000F000BF010008BF010008BF010008BF010008E0
:10010000BF010008BF010008BF010008BF010008CF
:10011000C5350008BF010008BF01000861340008B0
:10012000E5150008BF010008BF010008BF01000875
:10013000BF010008BF010008BF010008BF0100089F
:10014000BF010008BF010008BF010008BF0100088F
:10015000BF010008BF010008BF010008BF0100087F
:10016000BF010008BF010008BF010008BF0100086F
:10017000BF010008BF010008BF0100080000000027
:10018000BF010008BF010008DFF814D000F0D2FB67
:1001900000F04CF800480047055B000800F0DEFA6C
:1001A000780D00200648804706480047FEE7FEE736
:1001B000FEE7FEE7FEE7FEE7FEE7FEE7FEE7FEE717
:1001C0000D340008890100082DE9F05F0546002084
:1001D00092469B4688460646814640241BE02846B8
:1001E00041464746224600F04BFA53465A46C01A4B
:1001F000914110D311461846224600F032FA2D1ACA
:1002000067EB01084F4622460120002100F029FA41
:1002100017EB00094E41201EA4F10104DFDC484623
:1002200031462A464346BDE8F09F000070B5054CB4
:10023000054D03E0206820448047241DAC42F9D1DD
:1002400070BD0000146B0008286B00082DE9F04118
:10025000074615460E46102005F054FD04000AD04E
:100260006760C4E9026500F075FA01682160046006
:100270000020BDE8F0810120FBE72DE9FE4F80461C
:1002800081EA0300C00F0C46009021F0004123F0EA
:100290000045B8EB0200A94105D2404621469046F0
:1002A0001C460B46024623F00040104347D0270D62
:1002B000C7F30A00C3F30A510290401A0190402884
:1002C0006BDAC3F3130040F4801B0098924620B110
:1002D0000023D2EB030A63EB0B0B01985946C0F1E4
:1002E0004002504600F0BDF906460D4650465946BC
:1002F000019A00F0D5F910EB08006141002487EA6B
:10030000115284EAE7731A4340D0009A62B3019A0B
:10031000012A4FEA075215DC001B61EB02014FF086
:10032000004202EA0752CDE90042001C41F580116B
:1003300032462B4600F079FA03B0BDE8F08F404614
:100340002146F9E7001B61EB0201001C41F5801317
:1003500000185B412018A2F5001747EB030140EAA3
:10036000D570B6196D4111E06D084FEA360645EAC1
:10037000C0754FEA0752001B61EB0201001C41F5FA
:10038000801149084FEA30000019514132462B468E
:1003900003B0BDE8F04F00F039BA009801224000E8
:1003A0000023D0EB020263EBE073009821464FEA92
:1003B000E074B8EB000061EB0401E9E783F000436F
:1003C0005BE781F0004158E72DE9FE4F81EA030425
:1003D00004F0004421F0004100944FF0000B23F0A2
:1003E000004350EA01045ED052EA03045BD0C3F339
:1003F0000A54C1F30A552C44A4F2F3340194A0FB2F
:100400000254C1F3130141F48011C3F3130343F405
:10041000801301FB024400FB034E840A970A44EA5E
:10042000815447EA8357A4FB076802958D0A05FBB0
:1004300007854FEA932C04FB0C542705029D4FEAD5
:10044000065847EA1637B5EB08056EEB070C870E22
:10045000920E47EA811742EA8312A7FB0201B6EB2C
:100460000B0164EB00042B0D43EA0C335E1844EBE4
:100470001C50DA465146E7FB0201C5F313044FEA6C
:100480000B3343EA14534FEA0432019C43EA060358
:10049000A4F10C040294009CCDE900B400F0C5F96D
:1004A00003B0BDE8F08F00200146F9E72DE9F04DDB
:1004B00081EA030404F0004B21F0004514464FF09C
:1004C000000A23F0004150EA050220D054EA01025C
:1004D0001DD0C5F30A570246C5F31303C1F3130039
:1004E000C1F30A5640F4801543F48013A7EB0608C5
:1004F000101BD64608F2FD3873EB050002D308F155
:10050000010801E092185B41B8F1000F03DA002006
:100510000146BDE8F08D00204FF480110646844668
:100520000EE0171B73EB050705D3121B63EB0503E6
:1005300006434CEA010C49084FEA300092185B412F
:1005400050EA0107EDD152EA030012D082EA04001A
:1005500083EA0501084305D0101BAB4106D20122F6
:10056000002306E000224FF0004302E06FF001029A
:1005700053101AEB06004CEB085110EB0A0041EB4C
:100580000B01BDE8F04D00F041B90EB5C10F80EA96
:10059000E0700844CA07002140F233438DE80E00A2
:1005A0000A460B4600F041F903B000BD70B5C1F337
:1005B0000A5201F000450024C1F3130140F2FF3359
:1005C00041F480119A4201DA002070BD40F23343B9
:1005D0009A42A2F2334203DC524200F051F800E0AA
:1005E00090402C43F1D0404270BDC1F30A5210B587
:1005F000C1F3130140F2FF3341F480119A4201DA52
:10060000002010BD40F233439A42A2F2334203DC91
:10061000524200F035F810BD904010BD01F000438B
:1006200030B421F0004150EA010206D00A0DA2F5D3
:100630006072C1F31301002A02DC30BC0020704755
:10064000440F44EAC104C100E01830BC00EBC250C2
:1006500000F0A5B810B504F02AFDBDE8104004F084
:1006600099BC202A04DB203A00FA02F100207047EE
:100670009140C2F1200320FA03F3194390407047E0
:10068000202A04DB203A21FA02F00021704721FAE7
:1006900002F3D040C2F1200291400843194670474E
:1006A000202A06DBCB17203A41FA02F043EAE07336
:1006B00006E041FA02F3D040C2F120029140084323
:1006C00019467047421E12F8013F002BFBD111F86A
:1006D000013B02F8013B002BF9D17047421C10F896
:1006E000011B0029FBD1801A7047034611F8012B2A
:1006F00000F8012B002AF9D1184670470246C9B20A
:1007000000E0401C0378002BFBD102E003788B4211
:1007100003D0401E9042F9D2002070470FB400B5BC
:100720008DB010A909900B9000914FF0FF300A9006
:1007300000200C9005480690054807906A4609A8D5
:100740000F9900F0D3FC0DB05DF814FB09110008FF
:100750002711000800487047B80000202DE9F0413B
:100760000646FFF7F7FF8046454613E016B1E068FE
:10077000B0420ED120682860D4E90101D8F8007099
:100780008847204605F096F9D8F80000B842EBD12A
:1007900000E025462C68002CE8D1BDE8F081002956
:1007A000A8BF7047401C490008BF20F001007047F7
:1007B00010B4B0FA80FC00FA0CF050EA010404BF57
:1007C00010BC704749B1CCF1200421FA04F411FAAD
:1007D0000CF118BF012121430843A3EB0C01CB1DF1
:1007E0004FEA00614FEA102042BF002010BC704762
:1007F00000EBC35010440029A4BF10BC7047401C3C
:10080000490008BF20F0010010BC704710B5141E4D
:1008100073F1000408DA401C41F1000192185B41B9
:100820001A4301D120F0010010BD2DE9F04D924690
:100830009B4611B1B1FA81F202E0B0FA80F22032A7
:100840009046FFF70EFF04460F4640EA0A0041EAD1
:100850000B0153465A46084313D0114653EA010090
:1008600019D0C8F140025046FFF70AFF05460E4670
:10087000504659464246FFF7F4FE084305D0012092
:1008800004E020463946BDE8F08D0020054346EAE5
:10089000E0762C4337430A986305E40AA0EB08008E
:1008A0000022FD0A44EA47540A3002D500200146DE
:1008B000E9E7010510196941DDE9084500196941B9
:1008C000BDE8F04DA2E7AFF3008010B500F00DF8E1
:1008D000016919B100220261884701E08068804700
:1008E000AFF3008010B5AFF3008070B500F030FCBE
:1008F00004680546A4B9202005F004FA040011D0CC
:10090000094900202C60C4E900010849A160207356
:10091000206160610649A06109B100F063FCE061FB
:10092000204670BDAFF3008000000000E50800081D
:1009300000000000064C074D06E0E06840F00103AF
:1009400094E8070098471034AC42F6D3FFF720FC38
:10095000F46A0008146B000830B50B46014600200D
:100960002022012409E021FA02F59D4205D303FA71
:1009700002F5491B04FA02F52844151EA2F10102F2
:10098000F1DC30BD00487047B067000810B5044680
:10099000FFF7F8FF0068005D00F0010010BD10B522
:1009A000441A0346944209D28418114403E011F812
:1009B000013D04F8013D521EF9D210BD40EA010488
:1009C000A40703D009E010C9121F10C3042AFAD2E9
:1009D00003E011F8014B03F8014B521EF9D210BD90
:1009E00010B5002200E0521C835C8C5CA34201D154
:1009F000002BF8D1D8B2E1B2401A10BD2DE9FF4F5B
:100A00001C4681B00021D4E9016791464FF0FF35C3
:100A10008A468846A1696D1C02988847216A8346E8
:100A200088470028F6D1BBF1FF3F0CD026F4C06602
:100A3000002F1ADD700615D5BBF12B0F0AD0BBF1C4
:100A40002D0F0FD104E04FF0FF3005B0BDE8F08F5F
:100A500046F48066A1696D1C029888477F1E834614
:100A6000002F02DDBBF1300F03D0B9F1000F2AD007
:100A700025E0A1696D1C46F400767F1E0298884728
:100A80008346002F05DDBBF1780F06D0BBF1580F70
:100A900003D0B9F1000F10D011E0B9F1000F02D06E
:100AA000B9F1100F0BD1A1696D1C26F400767F1EE1
:100AB000029888478346102000E0082081464FEACC
:100AC000E970009017E00A20F8E74346AAFB0928DE
:100AD00003FB0980DDF800C07F1E0AFB0C0112EB4E
:100AE0000B0A41EBEB78A16946F4007605F10105AC
:100AF000029888478346002F06DD4946584600F095
:100B00008FFB5FEA000BE0D5E16902988847B005EA
:100B100002D46FF0010098E7F00718D1700610D5E5
:100B20007005514605D50023D1EB030163EB0802A4
:100B300000E042462068031D23600068C0E90012FF
:100B400005E02068011D21600068C0E900A8284672
:100B50007BE72DE9FF5F1D464FF0FF3BD5E90146DE
:100B600091465F464FF00008A9697F1C01988847AD
:100B7000296A824688470028F6D1BAF1FF3F0CD097
:100B800024F4C064002E19DD600614D5BAF12B0FD1
:100B900009D0BAF12D0F0ED103E0584604B0BDE8DC
:100BA000F09F44F48064A9697F1C01988847761EF1
:100BB0008246002E02DDBAF1300F03D0B9F1000FEA
:100BC00026D032E0A969761E44F400747F1C019897
:100BD00088478246002E05DDBAF1780F06D0BAF1BB
:100BE000580F03D0B9F1000F10D01EE0B9F1000F7B
:100BF00002D0B9F1100F18D1A969761E24F400743F
:100C00007F1C019888478246102002E0082000E0FF
:100C10000A20814609E008FB0908A969761E44F408
:100C200000747F1C019888478246002E05DD4946E6
:100C3000504600F0F5FA0028EDDAE9690198884796
:100C4000A00502D46FF00100A8E7E00725D16006F7
:100C500013D5600502D5C8F1000000E040462968C0
:100C60000A1D2A600968220501D5087015E02207CF
:100C700001D5088011E008600FE02868011D296097
:100C80000068210502D580F8008006E0210702D522
:100C9000A0F8008001E0C0F8008038467EE72DE92A
:100CA000FF5FD2E901A74FF0000891699946144609
:100CB000DDF838B0464601988847054659EA0B00EA
:100CC00005D009E0A169761C019888470546216A8C
:100CD000284688470028F5D1681C03D05FEACA700F
:100CE00005D015E04FF0FF3004B0BDE8F09F20685C
:100CF000011D2160D0F800800AE05FEACA7001D1CE
:100D000008F8015BA169761C7F1E0198884705469B
:100D1000002F1ADD681C18D0B9F1000F0DD0E817AC
:100D200005EBD060421120F01F0059F822102A1A5A
:100D3000012090400142E0D107E0BBF1000FDCD17F
:100D4000216A284688470028D7D0E169019888475A
:100D5000BBF1000F07D1002E05DD5FEACA7002D19A
:100D6000002188F80010A068B84203DDBBF1000F35
:100D700003D017B16FF00100B6E73046B4E70000CA
:100D80002DE9FF4F087883B09946FF2805D0491C0C
:100D90002D2804D00024002008E000200BE00124CE
:100DA000F9E700EB800003EB4000491C0B78FF2BB8
:100DB000F7D104B1404200230293147819461D462E
:100DC0002D2C01D02B2C04D1521C2D2C13D00024FF
:100DD0000294AA461478FF2C0FD00A25A3FB0578AD
:100DE00001FB05814FF0000C03FB0C11521CE319B1
:100DF0004AEB0101EEE70124EAE7814453EA0100EE
:100E000002D019F5C87F06DA03980021C0E9001165
:100E100007B0BDE8F08F0025AE4E2F46DFF8B88250
:100E2000184600F0A1FBCDE90001B9F1000002DA9B
:100E3000C9F1000400E004460023A74A1AEB030BA3
:100E400042EB045A12E0E00707D02A463346384600
:100E50004146FFF7B9FA074688462A463346104608
:100E60001946FFF7B1FA05460E466410002CEAD188
:100E7000DDE90001B9F1000F5A46534606DAFFF7E3
:100E800015FB3A464346FFF711FB05E0FFF79CFAD6
:100E90003A464346FFF798FA029A0AB181F00041B8
:100EA000039AC2E90001B3E72DE9FF4F1F468DB059
:100EB000D7E901464FF0FF382E2045464FF0000994
:100EC0000B90B9696D1C0E988847396A824688472D
:100ED0000028F6D1BAF1FF3F0AD024F4D064002EE6
:100EE00011DDBAF12B0F08D0BAF12D0F0BD102E0B2
:100EF000404611B08DE744F48064B9696D1C0E98CA
:100F000088478246761E6946600501D52D2000E09F
:100F10002B208DF8000001F1010B0DF1200809E0F4
:100F2000B9696D1C0E98884782460F9844F4007486
:100F3000761E0560002E02DDBAF1300FF0D00B995D
:100F40008A453ED144F0800406E00F99681CA9F15F
:100F5000010944F400740860B9696D1C761E0E988E
:100F6000884782463028F0D02BE00B998A4505D17E
:100F7000200603D444F08004761E18E0504604F0A6
:100F8000E5F908B30DF11301761E44F400748B45A6
:100F900008D2AAF130000BF8010B200607D5A9F101
:100FA000010003E0200602D409F101008146A005FA
:100FB00002D50F99681C0860B9696D1C0E988847A6
:100FC0008246002ED1DC53E0002E51DDBAF1650FD0
:100FD00002D0BAF1450F4BD1A00549D5B9696D1CB6
:100FE00024F44074761E0E9888478246002E0CDD4D
:100FF0002B2804D0BAF12D0F07D144F48074B969BD
:101000006D1C0E9888478246761EE00501D52D217D
:1010100000E02B2108F8011BCDF82C8021E00DF118
:101020002901761E44F4007488450CD2AAF13000E0
:1010300010F0FF0088F8000002D10B99884509D90B
:1010400008F1010806E0E00501D5244801E042F27C
:101050000F708146B9696D1C0E98884782460F98BB
:101060000560002E04DD504604F070F90028D6D14A
:10107000F9690E988847FF208BF8000088F8000077
:101080000020069007904B466A4608A906A8FFF77D
:1010900077FEA00502D46FF001002AE714F0240FB8
:1010A0000AD0E00714D1DDE906123868031D3B6061
:1010B0000068C0E900120BE0DDE90601FFF7AEFAB7
:1010C0000146E00704D13868021D3A6000680160FB
:1010D00028460EE7000014400000F03FF1D8FFFF63
:1010E000026811441378016018467047D1600449C2
:1010F00051610449116200211161114600F09EB84E
:10110000E11000088D090008426842B1016811F839
:10111000013B23B1521EC0E900121846704701215D
:10112000C160881E704742685AB1C368016843B9FC
:1011300083688B4205D0491E521CC0E90012002072
:1011400070474FF0FF30704770470000034870470A
:101150000248001D011F8860001D7047CC00002060
:10116000C1F30A52C1F3130140F2FF3341F480117D
:101170009A4202DA00200146704740F233439A4215
:10118000A2F2334202DC5242FFF77ABAFFF769BAA1
:1011900030B5041E71F1000404DB4FF000444042FE
:1011A00064EB0101141E73F1000405DB1C464FF0D3
:1011B0000043524263EB0403994208BF904230BDA2
:1011C00000DE2DE9F04117460E46054633B107FB18
:1011D0000354E41B2046B047A542FAD1A5F108000C
:1011E000BDE8F08110B5882004F08CFD002801D006
:1011F0000021017010BD802902D808B1017809B121
:1012000000207047012100F8081B704718B100F159
:101210000802914201D00020704700210170704700
:101220003A2800D2303820F02002412A01D3A2F11E
:101230003700884201D34FF0FF3070472DE9F34F5C
:101240008BB04FF0000801F10C000C464FF0010B81
:1012500046460DF1080A0190626901210198904704
:10126000051E2DD0252D2CD0216A8847C0B162697A
:10127000012101989047216A88470028F7D1411E33
:1012800062690198904700E0761CA1690B98884735
:10129000216A88470028F7D1E1690B988847DBE786
:1012A000A1690B9888470746A84201D1761CD3E76D
:1012B000E1690B9888477F1C02D1B8F1000F6FD00D
:1012C00046E1002762693D463946019890472A2841
:1012D00004D162690121019890470125DFF88492C9
:1012E0006269012101989047A0F130010A290AD2D0
:1012F0004F45E5DC07EB870100EB4107303FDFD4CA
:1013000045F01005ECE7E90601D46FF000476C28C2
:101310000AD04C2814D0682815D06A280DD074281B
:101320001CD07A281AD01DE06269012101989047EB
:101330006C2802D045F0040514E045F002050DE0EC
:1013400045F020050AE0626901210198904768286C
:1013500002D045F0080505E045F400656269012109
:1013600001989047C4E9015765283DD019DC5828F9
:101370007AD00CDC452837D004DC252826D041283B
:1013800031D131E046282FD047282CD12CE05B28E2
:1013900077D0612828D063287CD0642823D15AE0F4
:1013A000D0E06F2848D008DC66281DD067281BD005
:1013B000692821D06E2816D127E0702845D07328DF
:1013C00068D0752847D078280DD14DE0A1690B98D9
:1013D0008847054625283FF469AFE1690B9888479F
:1013E0006D1C3FF46AAFB3E023466A466FF001001C
:1013F0000B99FFF759FD9EE045F040006060A8079B
:1014000023464FF0000236D43EE0E8077FF447AFB2
:101410002068011D21600068290501D506701BE7C1
:10142000290701D5068017E7A90703D5F117C0E9F9
:10143000006111E706600FE745F040006060A80713
:1014400023464FF0080216D41EE040F60E0125EAAE
:101450000100606016E045F040006060A807234688
:101460004FF00A0207D40FE045F040006060A80783
:1014700008D5234610226FF001000B99FFF7BEFA42
:1014800059E007E0234610226FF001000B99FFF7A7
:1014900060FB50E04FF000094F464B46632802D0F6
:1014A0005B2806D040E0E80601D40120A0600127B7
:1014B0003AE062690121019890475E2805D14FF01A
:1014C00001096269494601989047216939B90021AB
:1014D0000A46534643F82120491C0829FADBB0B3D9
:1014E000216969B9C11700EBD16253110AEB83017D
:1014F00022F01F02821A01200B68904003430B6008
:1015000062690121019890475D28E8D1B9F1000F87
:1015100009D00020514651F82020D24341F8202024
:10152000401C0828F7DB02AB224600976FF0010051
:101530000B99FFF7B4FB00280CDA401C08D1BBF173
:10154000000F05D04FF0FF300DB0BDE8F08FFFE782
:101550004046F9E7E90701D108F1010806444FF0D8
:10156000000B79E6CCCCCC0C0EB540F233420292A3
:101570000022CDE900221346FFF757F903B000BD62
:101580002DE9F04116461F460C46851B02E0284611
:10159000B847AD1B641EFAD2BDE8F08138B50446E9
:1015A0006846AFF300800146204604F03DFE38BD9A
:1015B000FEE70000014800F057B900004C0500208C
:1015C000014800F051B900002C040020014800F04F
:1015D0004BB90000EC040020014800F045B90000C0
:1015E0008C040020014800F03FB9000030010020C9
:1015F0007047000078B50024009490F83C20012A40
:1016000019D0012280F83C200A6807230568092ABE
:1016100013D9EE680A3A02EB420293409E43EE6011
:101620000B788A680A3B03EB43039A400368DD6842
:101630002A43DA6010E0022078BD2E6902EB4202F4
:1016400093409E432E610B788A6803EB43039A40D4
:1016500003681D692A431A614A681F23072A13D2A7
:1016600005686E6B521E02EB820293409E436E63CE
:101670000B790A885B1E92B203EB83039A400368DE
:101680005D6B2A435A6327E005680D2A12D22E6B40
:10169000D21F02EB820293409E432E630B790A888D
:1016A000DB1F92B203EB83039A4003681D6B2A434E
:1016B0001A6311E0EE6A0D3A02EB820293409E43F8
:1016C000EE620B790A880D3B92B203EB83039A40DA
:1016D0000368DD6A2A43DA62164B0568144A9D42A4
:1016E00006D10D68122D03D1556845F4800555606B
:1016F00005689D4218D10B68102B01D0112B13D116
:10170000536843F400035360096810290CD10A4957
:101710000A4A0968B1FBF2F101EB8101490000E0DE
:10172000491E00910029FBD180F83C40002078BD83
:1017300000230140002001407000002040420F00C3
:1017400070B504004FF0000503D0206C002610B1E6
:1017500007E0012070BD666484F83C60204600F01C
:1017600019F8206CC00610D4206C20F4885040F08A
:1017700002002064204602F08FFA6664206C20F09C
:10178000020040F00100206400E0012584F83C6084
:10179000284670BD70B5064600681F4986B088426D
:1017A00038D11E480025016841F48071016000684D
:1017B000032400F48070059080208DE83100694694
:1017C000174800F09DF910208DE831006946154852
:1017D00000F096F901208DE831006946124800F0CA
:1017E0008FF9134C1148C4E900050015A560C4E940
:1017F0000350400060618000C4E906052562204670
:10180000656200F001F918B199210AA001F0E7FE24
:10181000B463A66306B070BD0020014044380240A6
:101820000000024000080240000402401064024030
:10183000300100202E2E2F5372632F6164632E63BC
:101840000000000090F83510022903D08021416586
:1018500001207047052180F835100068016821F0EB
:1018600001010160002070472DE9F84304464FF064
:101870000009CDF8009063484FF41651A56D00683B
:10188000B0FBF1F72E6894F85C10082000FA01F123
:1018900031420FD021680A6852070BD50A6822F03E
:1018A00004020A6094F85C108840A860606D40F003
:1018B0000100606594F85C104FF0010808FA01F02F
:1018C000304208D021684969090604D5A860606DD6
:1018D00040F00200606594F85C10042088403042BB
:1018E00008D021680968890704D5A860606D40F0B8
:1018F0000400606594F85C1010208840304218D0D5
:1019000021680968090714D5A8602068016849039F
:1019100004D50068000308D5A16C07E00168C9057B
:1019200003D4016821F008010160216C09B120464F
:10193000884794F85C1020208840304231D02168DC
:101940000968C9062DD5A86094F8350005282068D7
:10195000016806D0490347D5006800031DD4616CB7
:101960001CE021F0160101602068416921F080012E
:101970004161206C08B9A06C20B12068016821F099
:101980000801016094F85C103F208840A86084F84A
:10199000349084F83580216D1FE0E16B09B1204659
:1019A0008847606D00282BD0606DC00714D00520DB
:1019B00084F835002068016821F001010160009879
:1019C000401C0090B84203D820680068C007F6D1D8
:1019D00084F8349084F83580E16C002910D001B08F
:1019E0002046BDE8F04308470168C905D5D4016821
:1019F00021F01001016084F8349084F83580CCE740
:101A0000BDE8F883700000202DE9F041044600F0A5
:101A100059F906465CB1002584F83450022084F858
:101A200035002068016821F0010101600DE001200E
:101A3000BDE8F08100F046F9801B052805D920207B
:101A40006065032084F83500F2E720680068C0076D
:101A5000F0D12268116820480140D4E901031843FD
:101A6000D4E903363343184363691843A369184321
:101A7000E3691843236A18430843616A042903D1C0
:101A8000D4E90B1319430843106020684069666A63
:101A900020F0070130460E43012704280CD1A06A2C
:101AA0000643E06A40B1204602F006F820B140202B
:101AB000606584F83570BAE720684661204602F018
:101AC00091F894F85C203F2191408160656584F82D
:101AD00035700020ACE700003F8010F070B5044680
:101AE00000F0F0F80546601C02D004480078044479
:101AF00000F0E8F8401BA042FAD370BD640000205B
:101B00002DE9F84FDFF87CB100224FF001084FF0CB
:101B1000030A4FF00F090BF1040E00BF0B6808FA1F
:101B200002F42340A3426ED14D68022D01D0122D44
:101B30000ED1D50800EB850CDCF820505607F70EC7
:101B400009FA07F6B5430E69BE402E43CCF8206073
:101B5000066855000F790AFA05FC07F0030726EA24
:101B60000C06AF40374307604E68012E05D0022EA9
:101B700003D0112E01D0122E0ED18668CF6826EA2E
:101B80000C06AF40374387604668A6430C79C4F320
:101B90000014944034434460C6688C6826EA0C06FE
:101BA000AC403443C4604C68E40065D5364C2568CD
:101BB00045F480452560246822F0030504F4804440
:101BC0000094324C2E19D6F8084895072F0F09FAC1
:101BD00007F5AC432E4DA84201D1002524E02D4D40
:101BE000A84201D101251FE02B4DA84201D10225B9
:101BF0001AE02A4DA84201D1032515E0284DA8423C
:101C000002D1042510E037E0264DA84201D1052578
:101C10000AE0254DA84201D1062505E0234DA84242
:101C200001D1072500E00825BD402543C6F8085826
:101C3000DBF800405D464E689C43F60300D51C432C
:101C40002C60DEF8004075464E689C43B60300D514
:101C50001C432C600B4D08352C684E689C43F602E3
:101C600000D51C432C60074D0C352C684E689C43F6
:101C7000B60200D51C432C60521C102AFFF44EAF54
:101C8000BDE8F88F003C014044380240003001407C
:101C9000000002400004024000080240000C024024
:101CA000001002400014024000180240001C0240D4
:101CB00042694A40426170470AB181617047090434
:101CC000FBE70000014880687047000064000020C6
:101CD00002488168027811448160704764000020E6
:101CE0000B4810B5016841F400710160016841F4CE
:101CF00080610160016841F480710160032000F09F
:101D000097F8002000F006F800F024F8002010BD3D
:101D1000003C024070B50D4D04464FF47A712878AE
:101D2000B1FBF0F00A490968B1FBF0F000F01DFBCF
:101D300048B9102C07D200222146501E00F058F856
:101D400000206C6070BD012070BD000064000020A8
:101D5000700000201F4808B5016841F4804101600F
:101D6000006800F4804000901A48001F016841F0AC
:101D700080510160006800F080500090032000F066
:101D800057F8002211466FF00B0000F031F80022E6
:101D900011466FF00A0000F02BF8002211466FF098
:101DA000090000F025F800221146501F00F020F82D
:101DB00000221146101F00F01BF800221146901E51
:101DC00000F016F80022BDE808401146501E00F051
:101DD0000FB800004438024000F01F02012191407A
:101DE0004009800000F1E020C0F8001170470000B9
:101DF000F0B40E4B1B680C46C3F30223C3F1070576
:101E0000042D00D90425191D072901D2002300E063
:101E1000DB1E012606FA05F1491E214099409E402D
:101E2000761E16403143F0BC01F076BD0CED00E0AB
:101E3000064900F0070208684FF6FF03184040EA21
:101E40000220034A10430860704700000CED00E0D8
:101E50000000FA052DE9F0470E46050065D0DFF8D1
:101E60001481D8F80000F7B200F00F00B04207D29A
:101E700088F80070D8F8000000F00F00B04254D18C
:101E800028683D4C810712D5400703D5206840F4EF
:101E9000E05020602878000703D5206840F46040B7
:101EA00020602068A96820F0F000084320602878AE
:101EB000C0072DD0304968680839012812D002289F
:101EC00013D0032811D00968890700292DDA216869
:101ED00021F0030101432160FFF7F4FE814641F246
:101EE000883A0EE009688903EFE709688901ECE7A1
:101EF000FFF7E8FEA0EB0901514502D90320BDE838
:101F0000F0872068696800F00C00B0EB810FEFD11A
:101F1000D8F80010404601F00F01B14207D9077010
:101F2000006800F00F00B04201D00120E7E72878F8
:101F3000400705D52068E96820F4E0500843206098
:101F40002878000706D52068296920F4604040EA17
:101F5000C100206000F03CF82168084AC1F3031179
:101F6000515CC840064908600020FFF7D3FE0020FE
:101F7000C5E70000003C024008380240B864000891
:101F800070000020014800687047000070000020C9
:101F90000448054900680968044AC1F38221515C7C
:101FA000C84070477000002008380240C86400082C
:101FB0000448054900680968044AC1F34231515C8C
:101FC000C84070477000002008380240C86400080C
:101FD000154810B5006810F00C02144813D01449CD
:101FE000042A0FD0082A0ED10F4C241F2268236820
:101FF00002F03F025B0207D52068C0F38810A0FB07
:10200000010106E0084610BD2168C1F38811A1FB5B
:1020100000010023FEF7D8F82168C1F30141491CF3
:102020004900B0FBF1F010BD083802400024F40074
:1020300040787D012DE9F84F050076D02878DFF84B
:10204000F8B2BE4CC00749D0DBF800105846C1F3C7
:102050008101012908D00068C0F3810002280AD15B
:10206000201D0068400206D52068800336D56868C8
:102070000028E2D032E06868B0F5803F10D0B0F5BB
:10208000A02F206810D020F480302060206820F439
:10209000802020606868A0B1FFF714FE06460CE0BF
:1020A000206840F48030F4E740F480202060F7E7B7
:1020B000FFF708FE801B642873D820688003F7D5DB
:1020C0000CE0FFF7FFFD064605E000BFFFF7FAFD55
:1020D000801B6428F0D820688003F7D42878DFF8C4
:1020E000608280074FF000093ED5DBF800105846AB
:1020F00011F00C0F09D00068C0F3810002280BD149
:102100008D48001F0068400206D42068800715D55E
:10211000E868012809D111E0E868B8B10120C8F8E1
:102120000000FFF7CFFD064605E002E1FFF7CAFD1C
:10213000801B0228C0D820688007F7D5206829694D
:1021400020F0F80040EAC10020600DE0C8F80090DF
:10215000FFF7B8FD064604E0FFF7B4FD801B022838
:102160001FD820688007F7D42878000722D5724E40
:10217000744869696C3671B101210160FFF7A2FDF5
:10218000074604E0FFF79EFDC01B022809D830680F
:102190008007F7D50EE0C0F80090FFF793FD0746E3
:1021A00005E083E0FFF78EFDC01B02287ED8306873
:1021B0008007F7D42878400768D5DFF87CA100278E
:1021C0000AF1380ADAF80000C0000BD4DAF800107F
:1021D00041F08051CAF80010DAF80000012700F041
:1021E00080500090584E3068C00510D4306840F4DC
:1021F00080703060FFF766FD009005E0FFF762FD3C
:102200000099401A022851D83068C005F6D54A4EC8
:10221000A868683601280FD00528306810D020F053
:1022200001003060306820F004003060A868B8B168
:10223000FFF748FD00900FE0306840F00100F4E740
:1022400040F004003060F7E7FFF73CFD0099411AC9
:1022500041F28830814264D830688007F4D50EE0BE
:10226000FFF730FD009007E0FFF72CFD0099411AC1
:1022700041F28830814254D830688007F4D42FB1BD
:10228000DAF8001021F08051CAF80010A869C0B334
:10229000DBF80010C1F3810102294AD00228484628
:1022A00007D0C8F86000FFF70DFD00E039E00546F3
:1022B0003AE04746C8F86000FFF704FD064604E030
:1022C000FFF700FD801B02282BD820688001F7D47F
:1022D000D5E907010843A96A1C4A490802EB0141F4
:1022E0006A6A41EA8211084395F82C1040EA0161BC
:1022F0001148001F016001203866FFF7E3FC054626
:1023000005E014E0FFF7DEFC401B022809D8206836
:102310008001F7D50BE000BFFFF7D4FC401B02287B
:1023200002D90320BDE8F88F20688001F4D4002092
:10233000F8E70120F6E700000838024000380240C4
:1023400000004742800E4742007000400000FFFF3F
:102350004FF0E0210428086903D020F00400086150
:10236000704740F00400FAE7704710B5401EB0F126
:10237000807F01D3012010BD4FF0E02460610F2168
:10238000601701F0C9FA0020A06107202061002039
:1023900010BD10B5FFF7E8FF10BD7047704730B5AE
:1023A00090F83820012A20D0012280F8382002231A
:1023B00080F8393003685C6824F070045C6003685E
:1023C0005C680D682C435C6003689C6824F08004A2
:1023D0009C6003689C6849680C439C6080F83920C5
:1023E000002180F83810084630BD022030BD10B5FD
:1023F000040003D094F8390010B107E0012010BDAB
:10240000002084F83800204600F00CF8022084F800
:102410003900211D206801F037F8012084F83900C7
:10242000002010BD30B501684B4800234B4A022400
:10243000012587B081420ED1106840F00100106084
:102440001068694600F00100059080200090CDE9F9
:102450000143434826E04148001FB1F1804F13D0AB
:10246000404DA94224D1016841F002010160006899
:10247000694600F00200059004200090CDE9014378
:10248000CDE9033438480FE0016841F001010160F3
:102490000068694600F00100059020200090CDE919
:1024A00001433248CDE90335FFF72AFB07B030BDC1
:1024B0002F4B994207D1016841F004010160006887
:1024C00000F0040009E02B4B994208D1016841F06B
:1024D00008010160006800F008000590E6E7264B5F
:1024E00099420ED1016841F020010160006800228C
:1024F00000F02000059008213720FFF779FC3720F5
:102500000AE01E4B99420AD1106840F002001060A8
:10251000106800F0020017E0FFF75EFCC6E7184BFA
:10252000994207D1106840F480301060106800F4C0
:102530008030D2E7134A9142B8D1016841F040019E
:102540000160006800F040000590002203212B206C
:10255000FFF74EFC2B20DFE700000140443802402B
:102560000010024000040040000C02400000024045
:1025700000080040000C004000140040000401402E
:102580000040014000180040022180F83910016825
:102590000A6842F001020A60012180F83910002027
:1025A000704770B5044690F83800012817D001250F
:1025B00084F83850022084F839002068826822F0BC
:1025C000770222F47F4282600868502837D00DDC01
:1025D000202859D005DC88B3102841D151E00220D1
:1025E00070BD302853D040283AD13FE060282ED02B
:1025F00070280BD0B0F5805F03D0B0F5005F2FD10D
:1026000010E02068816821F0070115E0CB68D1E96E
:102610000121206801F0C1F92168886840F0770045
:1026200088601DE0CB68D1E90121206801F0B5F98F
:102630002068816841F48041816011E01EE0CA6831
:102640004968206801F0E2FA5021206806E0CA6873
:102650004968206801F0EBFA6021206801F0A4FAD3
:1026600084F83950002084F8380070BDCA68496881
:10267000206801F0CBFA40212068EFE700212068B4
:10268000ECE710212068E9E720212068E6E7302107
:102690002068E3E7704770B50446006801694FF0B1
:1026A0000005C943890715D4C168C943890711D4F6
:1026B000E91E01610120207620688069800720469C
:1026C00002D0FFF7E7FF04E000F0D2F8204600F068
:1026D00054F9257620680169C943490717D4C168B0
:1026E000C943490713D46FF0040101610220207629
:1026F0002068806910F4407F204602D0FFF7CAFFAF
:1027000004E000F0B5F8204600F037F9257620689F
:102710000169C943090716D4C168C943090712D41E
:102720006FF008010161042020762068C0698007ED
:10273000204602D0FFF7AEFF04E000F099F82046F3
:1027400000F01BF9257620680169C943C90617D432
:10275000C168C943C90613D46FF010010161082094
:1027600020762068C06910F4407F204602D0FFF731
:1027700091FF04E000F07CF8204600F0FEF825769A
:1027800020680169C943C90708D1C168C943C9079D
:1027900004D1891E0161204600F00CF9206801690E
:1027A000C943090609D4C168C943090605D46FF0B5
:1027B000800101612046FFF7F0FD20680169C943EF
:1027C000490609D4C168C943490605D46FF04001E0
:1027D0000161204600F0EFF820680169C9438906CD
:1027E0000BD4C168C943890607D46FF02001016189
:1027F0002046BDE87040FFF7D1BD70BD00B5164B57
:1028000002680020022185B09A4208D1CA010092D4
:10281000CDE90110CDE90301694610480AE0104BEB
:102820009A420BD104220092CDE90110CDE90301B7
:1028300069460C48FFF764F905B000BD0A4B9A429F
:10284000FAD120220092CDE90110039003200490D8
:1028500069460648EEE70000000800400004024018
:10286000000C004000000240004001400010024007
:10287000704770B5044690F838000D4601280DD019
:10288000012684F83860022084F8390042B1042A15
:1028900018D0082A2AD00C2A4DD139E0022070BD68
:1028A000206801F085F82068816941F008018161A4
:1028B0002068816921F004018161206881692A69A9
:1028C000114311E0206800F04BFE2068816941F45B
:1028D000006181612068816921F4806181612068E3
:1028E00081692A6941EA0221816124E0206801F0BE
:1028F0008BF82068C16941F00801C1612068C16995
:1029000021F00401C1612068C1692A69114311E005
:10291000206801F0A9F82068C16941F40061C16133
:102920002068C16921F48061C1612068C1692A6998
:1029300041EA0221C16184F83960002084F838003E
:1029400070BD10B5040003D094F8390010B107E051
:10295000012010BD002084F83800204600F00CF85B
:10296000022084F83900211D206800F08DFD01202F
:1029700084F83900002010BD7047704710B5044638
:102980000068012200F0E0FD08492068884202D07A
:102990000749884203D1416C41F4004141642068F9
:1029A000016841F001010160002010BD00000140FC
:1029B00000040140704770477047000070B502681E
:1029C00004461068D168536910F00F0F50D003F01F
:1029D000010501F4907635435DD0C20705D0CA05E4
:1029E00003D5E26B42F00102E263420705D5DA0744
:1029F00003D0E26B42F00202E263820705D5DA07F8
:102A000003D0E26B42F00402E263020705D5DA0765
:102A100003D0E26B42F00802E263E26B002A33D09B
:102A2000800604D5880602D5204600F02FFF2068D6
:102A30004069E16BC0F38010090700D428B3204639
:102A400001F0BAF82068416949061AD5416921F0B8
:102A500040014161606BA0B11B490165606BFEF7ED
:102A6000F1FE002810D0606B016DBDE87040084792
:102A7000830610D58B060ED52046BDE8704000F0C9
:102A800005BF2046FFF798FF70BD2046FFF794FF73
:102A90000020E06370BD030606D50B0604D5204672
:102AA000BDE8704000F048BF4006F3D54806F1D5B8
:102AB000D168204621F04001D160202184F83910EE
:102AC00000F058F970BD0000D53B000870B5040057
:102AD00004D094F83900002510B106E0012070BD43
:102AE00084F83850204600F023F8242084F8390078
:102AF0002068C16821F40051C160204600F070FDDB
:102B00002068016921F4904101612068416921F048
:102B10002A0141612068C16841F40051C160E56348
:102B2000202084F8390084F83A00002070BD0000AD
:102B30002DE9F047044606685748DFF858C10321DD
:102B4000022201230025470586B04FF0400A4FF4CA
:102B5000806966454AD1066846F40026066000682A
:102B600000F4002005908DE80E000820CDE9031048
:102B700069464A48FEF7C4FF4A4E4948B8463060A5
:102B8000C6E90175C6E9035975614FF44030B56176
:102B9000C6E907504F4630467562FEF735FF18B15B
:102BA000842141A000F01BFD6663B4633D4E3C48A8
:102BB00060363030C6E903577561B56186E80105B6
:102BC0004FF40030C6E9075030467562FEF71CFF2F
:102BD00018B1962134A000F002FD266300220221E4
:102BE0003420B463FFF704F934204EE0DFF8C8C0A6
:102BF00066454CD1066846F480260660006800F4FD
:102C0000802005904FF440708DE80D000720CDE93D
:102C1000031069462948FEF773FF224E2048C0364C
:102C2000B846C6E903597561B561F561356218307A
:102C3000756286E801054F463046FEF7E5FE18B19D
:102C4000C32119A000F0CBFC2663B46314481C4ECA
:102C500018383060C6E90185C6E9035775614FF43D
:102C60008030B561C6E9075030467562FEF7CCFE8C
:102C700018B1D5210CA000F0B2FC66630022072138
:102C80002720B463FFF7B4F82720FFF7A5F806B0B4
:102C9000BDE8F087004C0040403802400000024090
:102CA000406002402C0400202E2E2F5372632F759B
:102CB000736172742E63000000480040000C0240F3
:102CC0004C05002090F83A30202B1DD1D1B1CAB16B
:102CD00090F83830012B17D081628285C28500219F
:102CE000C163222280F83A2080F8381001684A69CE
:102CF00042F001024A610068C16841F49071C1600C
:102D000000207047012070470220704710B500680E
:102D10000F4988421AD10F4801F0E8FA20210E48E5
:102D2000FEF7C6FF0D48006868B101280ED10C48B7
:102D30000C4900880988401A0B4982B2BDE810404E
:102D40000A48FFF7BFBF01220949F7E710BD00009D
:102D5000004C00401C0700200004024050000020EE
:102D6000540000205800002040070020AC03002041
:102D7000600000207047FEE77FB521481F4900250D
:102D8000C0E900158560012405621E490461C0E99F
:102D90000A150326C560C0E9064604634461FEF7D0
:102DA000CFFC18B14A2118A000F019FC07208DE8CB
:102DB000310069461248FEF71DFC18B1542112A0DB
:102DC00000F00DFC0E2000900220019069460C4896
:102DD000FEF710FC18B15D210BA000F000FC0820EC
:102DE000CDE9000669460648FEF704FC002803D03A
:102DF000662105A000F0F3FB7FBD0000002001402C
:102E0000E80000200100000F2E2E2F5372632F6167
:102E100064632E63000000001D4808B5016841F49A
:102E200080010160016801F480010091016841F4B2
:102E3000001101600068002200F4001000900521DC
:102E40000C20FEF7D5FF0C20FEF7C6FF002211462E
:102E50000D20FEF7CDFF0D20FEF7BEFF002206215C
:102E60000E20FEF7C5FF0E20FEF7B6FF002201215F
:102E70000F20FEF7BDFF0F20FEF7AEFF0022114628
:102E80003820FEF7B5FFBDE808403820FEF7A4BFA4
:102E9000303802402DE9F04F524887B000240168D5
:102EA00041F010010160016801F010010591016815
:102EB00041F004010160016801F00401059101681D
:102EC00041F080010160016801F080010591016815
:102ED00041F001010160016801F001010591016803
:102EE00041F002010160016801F0020105910168F1
:102EF00041F00801016000683B4F00F0080040F21B
:102F000016550590002229463846FEF7D5FEDFF813
:102F1000DC804FF4C046002231464046FEF7CCFE2E
:102F2000DFF8CC90002202214846FEF7C5FEDFF80C
:102F3000C4A0002208215046FEF7BEFEDFF8B8B05C
:102F4000002240215846FEF7B7FE0022A0212B4860
:102F5000FEF7B2FE00950125CDE9015469463846D9
:102F60000394FEF7CDFD0096CDE901546946404635
:102F70000394FEF7C5FD02200090CDE90154694697
:102F800048460394FEF7BCFD08200090CDE90154AB
:102F9000694650460394FEF7B3FD4FF404408DE8B4
:102FA000310069465846FEF7ABFD4FF488508DE876
:102FB000310069465046FEF7A3FD40200090CDE960
:102FC0000154694658460394FEF79AFDA0200090EC
:102FD000CDE90154694609480394FEF791FD07B015
:102FE000BDE8F08F30380240001002400008024077
:102FF000001C024000000240000C0240000402409D
:103000001FB512481049322201604FF4E15141606E
:103010000021C0E902120161FFF7E9F920B140F295
:1030200065110BA000F0DBFA4FF480500090694668
:103030000648FFF7B6FA002804D040F26B1104A04E
:1030400000F0CDFA1FBD0000001800407003002002
:103050002E2E2F5372632F74696D2E6300000000B3
:1030600010B5184886B016490024C0E900148460E1
:10307000C46004614461FFF7BAF918B1492112A094
:1030800000F0ADFA4FF40050CDE900040294694617
:103090000C480394FFF785FA18B152210AA000F0FA
:1030A0009EFA049404A907480594FFF778F90028CC
:1030B00003D0592104A000F092FA06B010BD000020
:1030C00000000140900100202E2E2F5372632F74B8
:1030D000696D2E630000000010B5174886B04FF0F0
:1030E00080410024C0E900148460C4600461FFF7DB
:1030F0007EF918B16A2111A000F071FA4FF4005066
:10310000CDE90004029469460B480394FFF749FA9D
:1031100018B1732109A000F062FA049404A90648CA
:103120000594FFF73CF9002803D07A2103A000F0B2
:1031300056FA06B010BD0000CC0100202E2E2F53F1
:1031400072632F74696D2E630000000010B517487C
:1031500086B015490024C0E900148460C46004618D
:10316000FFF745F918B18B2111A000F038FA4FF4A0
:103170000050CDE90004029469460C480394FFF71F
:1031800010FA18B194210AA000F029FA049404A9B5
:1031900006480594FFF703F9002803D09B2104A0FB
:1031A00000F01DFA06B010BD000400400802002027
:1031B0002E2E2F5372632F74696D2E630000000052
:1031C00010B524488EB02249016003210024C0E9D3
:1031D00001144FF41661C0E90314FFF708F918B1A0
:1031E000AD211DA000F0FBF94FF48050079007A916
:1031F0001848FFF7D6F918B1B32117A000F0EFF97E
:103200001448FFF79EFB18B1B82113A000F0E7F9AE
:103210000B940BA90F480C94FFF7C1F818B1BF210C
:103220000DA000F0DCF96020CDE900040294082232
:10323000694608480494FFF71CFB18B1C82106A092
:1032400000F0CDF90348FFF7D9FA0EB010BD000029
:1032500000080040440200202E2E2F5372632F746A
:10326000696D2E630000000010B524488EB022491D
:10327000016003210024C0E901144FF41661C0E984
:103280000314FFF7B4F818B1DC211DA000F0A7F972
:103290004FF48050079007A91848FFF782F918B13A
:1032A000E22117A000F09BF91448FFF74AFB18B180
:1032B000E72113A000F093F90B940BA90F480C948D
:1032C000FFF76DF818B1EE210DA000F088F960202D
:1032D000CDE9000402940822694608480494FFF7E7
:1032E000C8FA18B1F72106A000F079F90348FFF7F2
:1032F00085FA0EB010BD0000000C004080020020D6
:103300002E2E2F5372632F74696D2E630000000000
:1033100010B520488CB01E49016003210024C0E98B
:1033200001144FF41661C0E90314FFF760F820B1EF
:1033300040F23F1118A000F052F94FF4805007906E
:1033400007A91448FFF72DF920B140F2451112A04A
:1033500000F045F90F48FFF7F4FA20B14FF4A571DA
:103360000DA000F03CF96020CDE900040294002299
:10337000694608480494FFF77CFA20B140F25311E3
:1033800005A000F02CF90348FFF738FA0CB010BD87
:1033900000400140340300202E2E2F5372632F74FF
:1033A000696D2E63000000000D4810B50B490160E7
:1033B0004FF4E1314160002181600C22C160C0E91D
:1033C00004128161C161FFF781FB002805D0BDE8CF
:1033D0001040472103A000F002B910BD004C00408E
:1033E000AC0300202E2E2F5372632F7573617274FD
:1033F0002E630000FEE770477047704710B5FEF778
:1034000067FCBDE81040FEF7C4BF0000104801682B
:1034100041F4700101600F48016841F00101016051
:103420000C4A00210832116002680B4B1A400260FE
:10343000031D0A4A1A60026822F4802202600548CD
:103440000C3001600249580680390860704700005E
:1034500088ED00E000380240FFFFF6FE1030002447
:103460000148FFF718B90000BC02002010B504485D
:10347000FFF711F9BDE810400248FFF70CB9000052
:10348000F802002070030020F0B50268234B244DA1
:10349000244E254F254C4FF0804C984209D0604572
:1034A00007D0A84205D0B04203D0B84201D0A04214
:1034B00004D122F0700E4A6842EA0E0298421BD0F4
:1034C000604519D0A84217D0B04215D0B84213D0E9
:1034D000A04211D0164DA8420ED0164DA8420BD0D6
:1034E000154DA84208D0154DA84205D0144DA8424C
:1034F00002D0144DA84203D122F44075CA682A4371
:1035000002608A68C2620A688262984201D0A04260
:1035100001D10969016301214161F0BD0000014051
:103520000004004000080040000C0040000401407E
:1035300000400140004401400048014000180040A4
:10354000001C00400020004010B50123046A8B409D
:103550009C430462036A8A401343036210BD000067
:1035600030B5026A22F010020262026A436884697E
:103570000D6824F4E64444EA05248D6822F0200214
:1035800042EA05120D4DA84202D00D4DA8420ED1BF
:10359000CD6822F0800242EA05124D6923F44063AF
:1035A00043EA85038D6922F0400243EA85034360C4
:1035B000846149688163026230BD000000000140FF
:1035C000000401400148FFF7F9B90000AC030020F6
:1035D0000148FFF7F3B90000EC030020FEE7FEE727
:1035E0002DE9F04104460068016921F44052E16888
:1035F000114301612168C86849F20C629043236954
:10360000A268E5691A4363692B431A430243CA60FF
:103610002168486920F44072A06910434861E1695B
:103620006425B1F5004F9748974A21684FF032085A
:103630003FD0914201D081427CD1FEF7B9FC00EB32
:10364000C00101EB001061688900B0FBF1F6FEF7E4
:10365000AFFC00EBC00101EB001061688900B0FB1A
:10366000F1F0B0FBF5F06FF01801484306EB800174
:1036700008EB0110B0FBF5F000F0F006FEF798FC47
:1036800000EBC00101EB001061688900B0FBF1F0B4
:10369000B0FBF5F006EB0016FEF78AFC00EBC0016C
:1036A00001EB001061688900B0FBF1F7FEF780FCC8
:1036B000D2E0914201D081423DD1FEF779FC00EB8E
:1036C000C00101EB001061684900B0FBF1F0B0FBF4
:1036D000F5F00601FEF76CFC00EBC00101EB0010F9
:1036E00061684900B0FBF1F7FEF762FC00EBC00136
:1036F00001EB001061684900B0FBF1F0B0FBF5F0A0
:103700006FF01801484307EB800108EBC100B0FBE4
:10371000F5F000F0F80006EB4006FEF749FC00EB80
:10372000C00101EB001061684900B0FBF1F7FEF742
:103730003FFC3CE055E0FEF72BFC00EBC00101EB49
:10374000001061684900B0FBF1F0B0FBF5F0060134
:10375000FEF71EFC00EBC00101EB001061684900A0
:10376000B0FBF1F7FEF714FC00EBC00101EB001019
:1037700061684900B0FBF1F0B0FBF5F06FF01801A3
:10378000484307EB800108EBC100B0FBF5F000F007
:10379000F80006EB4006FEF7FBFB00EBC00101EB77
:1037A000001061684900B0FBF1F7FEF7F1FB00EB98
:1037B000C00101EB001061684900B0FBF1F0B0FB03
:1037C000F5F06FF01801484307EB800108EBC100EA
:1037D000B0FBF5F000F00700216830448860BDE8D8
:1037E000F081FEF7D5FB00EBC00101EB0010616832
:1037F0008900B0FBF1F6FEF7CBFB00EBC00101EB5B
:10380000001061688900B0FBF1F0B0FBF5F06FF0DB
:103810001801484306EB800108EB0110B0FBF5F0FE
:1038200000F0F006FEF7B4FB00EBC00101EB001066
:1038300061688900B0FBF1F0B0FBF5F006EB001613
:10384000FEF7A6FB00EBC00101EB001061688900E8
:10385000B0FBF1F7FEF79CFB00EBC00101EB0010A1
:1038600061688900B0FBF1F0B0FBF5F06FF0180172
:10387000484307EB800108EB0110B0FBF5F000F0C6
:103880000F00A9E7001401400010014010B590F8A6
:103890003A10222901D0022010BD8168B1F5805F65
:1038A00011D00169002901681FD0496801F07F0328
:1038B000816A4A1C82620B70C18D491E0904090C81
:1038C000C18518D026E00269816A002A0268526820
:1038D00005D0D2B20A80816A491C8162ECE7C2F34A
:1038E00008020A80816A891CF7E74A68816A4B1CD2
:1038F00083620A70E0E70168CA6822F49072CA60C5
:1039000001684A6922F001024A61202180F83A10D8
:10391000FFF7FCF9002010BD0907090E002806DAA0
:1039200000F00F0000F1E02080F8141D704700F156
:10393000E02080F80014704790F83910212901D058
:10394000022070478168B1F5805F016A0BD04A1C84
:103950000262026809785160C18C491E0904090C91
:10396000C1840ED017E009880268C1F308015160D4
:1039700001690029016A02D0491C0162ECE7891C37
:10398000FBE70168CA6822F08002CA600068C1686B
:1039900041F04001C1600020704710B5846842EAE0
:1039A000032224F47F440A432243826010BD0000B6
:1039B00030B5026A22F001020262026A4368846939
:1039C0000D6824F07304254322F002048A68224320
:1039D0000B4CA04202D00B4CA0420BD122F00804A9
:1039E000CA6823F4407322434C6922F004021C434A
:1039F0008B6923434360856149684163026230BD3E
:103A0000000001400004014030B5026A22F48072D7
:103A10000262036A4268C46923F4007324F07305E8
:103A20000C682C438D6843EA05230D4DA84202D053
:103A30000C4DA8420ED1CD6823F4006343EA052360
:103A40004D6922F4405242EA05128D6923F48063E5
:103A500042EA05124260C4614968C163036230BD35
:103A6000000001400004014030B5026A22F4805297
:103A70000262046A4268C3690D6823F4E64343EABC
:103A800005238D6824F4005444EA0534084DA84207
:103A900002D0084DA84204D14D6922F4804242EA86
:103AA00085124260C36149680164046230BD000050
:103AB000000001400004014010B5014600208B6960
:103AC0008A6A4FF0C07453B1B3F5005F15D072B17C
:103AD000012A0CD0022A0AD0032A09D104E01AB123
:103AE000012A06D0022A03D1C96AC90100D50120E2
:103AF00010BDC96AA142FAD010BD002AF7D0012A30
:103B0000F2D0022AF3D0032AF3D010BD30B52448F6
:103B100093B00024016841F080510160006800F01A
:103B2000805011901F48016841F480410160006895
:103B3000022500F480401190012003901020049091
:103B4000009506950820CDE907404820CDE90905F4
:103B500004200B906846FEF76DFA00B1FEE70F20D7
:103B6000CDE90C054FF48050CDE90E4002210CA8A0
:103B70001094FEF76FF900B1FEE7FEF703FA4FF479
:103B80007A71B0FBF1F0FEF7F0FB0420FEF7E0FBEA
:103B900000221146501EFEF72BF913B030BD000075
:103BA0004038024000700040826822F070020A43F0
:103BB00042F00701816070470168CA6822F4907280
:103BC000CA6001684A6922F001024A61202180F836
:103BD0003A10704710B5806B0021C185C184FEF793
:103BE000EBFE10BD01681823CAB2103AB2FBF3F223
:103BF000054B6FF30901032A9B5CC36500D9091DBE
:103C00008165084670470000B064000810B5036A7B
:103C1000046A24F001040462846924F0F00444EA94
:103C2000021423F00A020A438461026210BD10B537
:103C3000036A23F0100303628369046A23F4704368
:103C400043EA023224F0A00343EA011182610162D7
:103C500010BD00001FB51C4600F0AAFC04494968CD
:103C600004B0204610BDAFF30080AFF30080F7E74B
:103C7000BC00002013B50024012001F097F9044690
:103C8000204601F08BF94FF0FF301CBDAFF30080F0
:103C9000AFF30080F4E70000454910B54A6822F40C
:103CA00040324A604A6843681A434A6001684A6879
:103CB00022F480724A6001684A68036942EA03227A
:103CC0004A6001684A6822F040724A6001684A68A6
:103CD00083681A434A6001688A6822F400628A6035
:103CE00001688A68C3681A438A60816A6FF07062EB
:103CF000D14201688A6822F070628A6001688A682D
:103D00000CD0836A1A438A6001688A6822F04052A4
:103D10008A6001688A68C36A1A4301E022F040524F
:103D20008A6001688A6822F002028A6001688A68F3
:103D3000836942EA43028A60016A002901684A688D
:103D40000FD042F400624A6001684A6822F460427F
:103D50004A6001684A68174C436A04EB43331A43CC
:103D600001E022F400624A600168CA6A22F470022B
:103D7000CA620168CA6A838B0F4C04EB03531A436F
:103D8000CA6201688A6822F400728A6001688A68DF
:103D9000036B42EA43228A6001688A6822F48062E7
:103DA0008A6001688A68406942EA8020886010BDA4
:103DB0000023014000E0FFFF0000F0FF2DE9F0418B
:103DC0001F4690460D00064601D00C4600E04024F8
:103DD0001EB9204601F0E6F806463B46424621461B
:103DE00001F006F9002802DA0020307010E0844269
:103DF00002DA00F1010402E00AD14FEA44041DB1E5
:103E00004FF00000BDE8F081304601F0C3F8E0E774
:103E10003046F7E72DE9FF4F484D002789B0286865
:103E20009B469246002857D145A0002000BF0400C1
:103E300001D105F10C0420463A21FCF75FFC68B182
:103E40003E4A00F8017B121D40A1FCF767FC0128E7
:103E500002D16868002801DC012068603C49142018
:103E60008946084600BF06001BD04FF40070C6E923
:103E700001073848F760306006F1100807A8AFF373
:103E800000800246344904A802F0B2F901464046D7
:103E900002F0D2F9A0F1100604A802F0ECF92F48C4
:103EA00030602B4E06A8AFF30080024621466846DC
:103EB00002F09EF9074601A801F000F802463068BA
:103EC0003946C36830469847A86001A801F006F853
:103ED000684602F0D0F92C60AC68601C26D06F6890
:103EE0000DF108081A4E554605A8AFF300800246AA
:103EF00015A103A802F07CF9CDE9005030683B46DB
:103F00002246056931464046A84703A802F0B3F9A6
:103F1000029A52F8040C60B1DDE909015B46FFF733
:103F20004DFF044602A802F0A6F920460DB0BDE8F8
:103F3000F08F02A802F09FF90020F7E7740000203C
:103F4000525753544445525200000000256400006B
:103F500050070020BC6700087C6800084C68000817
:103F60002DE9F84300258B680C468DF80050D0E908
:103F700000218E1A80469E4205D2A3EB06026B46B4
:103F800002F0C5F917E016D902EB03068A4212D0F7
:103F90000B460F46324603E013F801CB02F801CB83
:103FA000BB42F9D1436800E0521C9A42FCD1891B04
:103FB000591AC8F804100021404602F035FA502181
:103FC00001700121404602F02FFA572101700221B1
:103FD000404602F029FA4D2101700321404602F0CB
:103FE00023FA1F49097801700421404602F01CFAA7
:103FF0001C491D4E1D4F09780170052030600AE0F4
:10400000404602F011FA3168394411F8051C01707C
:104010003068401C3060A06831688842F0DC144E83
:10402000356003250EE02946404602F0FDF9007890
:1040300031680844C11700EB116121F0FF01401AFB
:104040006D1C3060A068801EA842ECDC2146404612
:1040500000F01AF94046BDE8F84300F04DB8000002
:1040600048000020540000204000002040070020AD
:104070004C00002070B519480C460B790021012234
:104080000078052B05D2DFE803F00D070B181E00A2
:10409000227170BD217170BD572803D102200AE042
:1040A0004D2802D05028F5D1F2E720210C48FDF729
:1040B000FFFD2079401C207170BD0A4A12689042B1
:1040C000E8D10420F7E7084D05232B60074B186063
:1040D00007480260074AE0781060DBE760000020D4
:1040E0000004024048000020580000205400002036
:1040F000500000204400002070B53B4D06460024CF
:104100002146304602F090F9007845F82400641CFE
:104110000F2CF5DB0021304602F086F93349007898
:1041200008600121304602F07FF9314900780860CB
:104130000221304602F078F92E4900780860032108
:10414000304602F071F92C490078086004213046AD
:1041500002F06AF92949007808600521304602F02A
:1041600063F92749007808600621304602F05CF9BF
:104170002449007808600721304602F055F92249A9
:10418000007808600821304602F04EF91F49007897
:1041900008600921304602F047F91D49007808609F
:1041A0000A21304602F040F91A49007808600B21D4
:1041B000304602F039F91849007808600C21304681
:1041C00002F032F91549007808600D21304602F0FE
:1041D0002BF91349007808600E21304602F024F9CB
:1041E00010490078086070BD900600200000002093
:1041F00004000020080000200C0000201000002017
:1042000014000020180000201C00002020000020C6
:1042100024000020280000202C0000203000002076
:10422000340000203800002070B5094D094E0024EC
:1042300020212846FDF73CFD40213046FDF738FDA2
:104240006420FDF74BFC641C062CF1DB70BD000004
:1042500000040240000C024010B50748FFF7E4FFDD
:10426000064922200022086002210548FDF724FDAE
:1042700004490020086010BD1C07002048000020F1
:10428000001C02405000002070B50C4689680646AC
:10429000891E02F0C9F80F49007800250968884294
:1042A00014D1A1683046491E02F0BEF800780D28EE
:1042B0000CD120210848FDF7FBFC40210748FDF701
:1042C000F7FC0748074905600120086006480560BB
:1042D00070BD00004C00002000040240000C0240B1
:1042E0005C0000203C0000205000002006480068D0
:1042F00028B1012807D105490548FFF731BE034918
:104300000348FFF7B7BE7047500000203407002075
:104310001C0700201CB5694602F09AF801A90C3070
:1043200002F096F80C381CBD10B50C3002F095F870
:10433000BDE810400C3802F090B800000FB47FB513
:10434000144D2A68002A04D00898032804DC0021B0
:1043500090477FBC5DF814FB09AE6946082008460B
:1043600000BF18B100F0C8FB044600E0002432464C
:104370002046089900F07EFB206881682046884727
:1043800001462A68089890472068016820468847B7
:10439000DFE70000B000002013B5002400F006FEA7
:1043A000044614B90320FFF7C9FF20461CBDAFF334
:1043B0000080AFF30080F4E700F0F0BD704700002C
:1043C0002DE9FC4707464FF00008C7F800809A46E1
:1043D000894600F10805C0F804801400464608D05C
:1043E000B4F1804F01D3AFF30080A00000F0DAFDFC
:1043F00000E00020C5E9000403E02868641E40F8DE
:104400002460002CF9D1A5F10804C5F80880C5F88E
:104410000C80C4E9068AB9F100000AD0FCF75EF905
:10442000401C054600F0BEFD2A464946FCF7B7FA97
:10443000A061062701A8AFF300800146684601F09D
:10444000F3FE82463946174B174A042000F037FE28
:1044500065688046062D00D33D46C146266806E0C5
:104460003146484601F034FF09F10409361D206841
:1044700000EB8500B042F3D105E008EB8500514622
:104480006D1C01F025FFBD42F7D306492068FCF7FB
:10449000E1F8C4E90087684601F0EDFE2046BDE87A
:1044A000FC870000776200089D15000810B50446DF
:1044B000806900F06FFD04F1080001F0B1FC0838DC
:1044C00001F0BCFC10BD2DE9F04104460D46164636
:1044D000104600212260002000BF606048B1FCF758
:1044E000FDF8401C00F05EFD07466168FCF7FDF832
:1044F000676029463046002000BF2046BDE8F081B5
:1045000010B54168044629B12068002000BF6068EA
:1045100000F040FD204610BD0C0008D00A460DA159
:10452000104800F057FD204600F034FD09E050B17E
:1045300001280AD002280AD00BA206A1094800F0DF
:1045400049FDAFF300800AA2F7E70CA2F5E711A23C
:10455000F3E70000457863657074696F6E3A202553
:10456000732E0A00B4000020756E6B6E6F776E209C
:10457000657863657074696F6E000000756E6578AC
:1045800070656374656420657863657074696F6EC7
:10459000000000006261645F616C6C6F633A206FC1
:1045A0007574206F66206D656D6F72790000000074
:1045B00010B50A4904460020D1E9003200E0401C51
:1045C000824204D953F8201009B1A142F7D153F81F
:1045D0002010002900D1104610BD0000BC000020B2
:1045E000406870472DE9FC410D46174601684FF0C1
:1045F000FF3406226846FFF766FF21462868FFF76A
:1046000039FB0646401C12D000F0A6FC0546D5E951
:10461000004104EBC100A0420FD12846491C01F023
:1046200017FCD5E9000100EBC104083C0AE068462C
:10463000FFF766FF2046BDE8FC812268521C01D0CE
:104640000834E8E73946201D266000F057FC28684A
:10465000201AC410EBE710B50C4600F07DFC416851
:10466000A14204DD006800EBC400001D10BDBDE8E0
:10467000104000F0EBBBF8B51C4615460E4600F0A6
:104680006BFC4168B1420EDD006850F83600411CF9
:1046900009D0002100916B4622462946FFF7DAFA3D
:1046A0006946884200D10020F8BD406930F8120008
:1046B000084000D0012070472DE9F84F06460068F9
:1046C00089461D464169DDF828B09246294201D04D
:1046D000002406E000693749284201D0CC6800E098
:1046E0008C684FF0000884B1D9F80070E068B842D7
:1046F00007D86A46791C04F10800CDF8008001F063
:1047000064FBA06850F82770F7BBBAF1000F02D124
:104710000420FFF713FE84B1D9F80070E068B842B6
:1047200007D86A46791C04F10800CDF8008001F032
:104730004CFBA06850F8277037BB326800231EA1DD
:10474000506928420ED00223102100200D4203D0D0
:10475000116851F8201009E04900401C0628F5D3E3
:10476000164903E01069284200D0012318460022B0
:104770005B46984707463CB13068A04212D02146BC
:10478000684600F085FB00E00CE04A463946684682
:1047900000F016F8CDF80080E069401EE061684640
:1047A00000F09CFB4A463946304600F009F838468E
:1047B000BDE8F88F94000020000000007868000831
:1047C000F8B50646087A15460C46C0070FD128688A
:1047D00020B917490868401C0860286020683146E5
:1047E000826820469047A06840F00100A0603068D1
:1047F0002D68C068A84207D80020009030686A463B
:10480000691C083001F0E1FA3068806850F8250032
:1048100030B1C168491EC16002D10168496888474A
:10482000E068401CE0603068806840F82540F8BDD2
:10483000D80000207CB5054608680C46806948B160
:104840006846AFF30080024620688169284601F07F
:10485000CFFC7CBD01A8AFF30080024600A1F5E7C4
:104860002A00000010B50446FCF799F8204610BD58
:104870007CB504462DA1FCF7B3F8E8B32CA1204683
:10488000FCF7AEF8C0B34FF4007000F08BFB0546A8
:10489000022221466846FFF716FE0024FCF772F854
:1048A00006464FF4807330680021005D10F0010F60
:1048B00000D0012110F03E0F01D041F0020110F0B4
:1048C000400F01D041F0040110F0100F01D041F071
:1048D000080110F0080F01D041F0100110F0980FFE
:1048E00001D041F0200120281DD000220AB141F062
:1048F000400110F0020F00E013E001D041F0800110
:1049000080EA800010F0800F01D041F4807125F81A
:104910001410641C9C42C6D16846FFF7F1FD28467E
:104920007CBD05487CBD0122E0E70000430000009B
:10493000504F5349580000002C6500082DE9FC41F8
:10494000064615460C460846FFF792FF01462B46E1
:104950000022304600F086F93E4901600646406973
:104960003D49884273D001203076022221466846B4
:10497000FFF7A9FD0024FF25E2B210213046FFF722
:1049800094FE38B909E0EAB210213046FFF78DFEF7
:1049900030B96D1EA542F6D802E0641CAC42EBD3E0
:1049A000C6E90745F76A18E0A4F16100192810D894
:1049B000E2B210213046FFF778FE50B1A4F1200892
:1049C00008F0FF0208213046FFF76FFE08B14046AD
:1049D00000E0204607F8010B641CAC42E4D9002437
:1049E000FF25E2B208213046FFF75FFE38B909E043
:1049F000EAB208213046FFF758FE30B96D1EA542D5
:104A0000F6D802E0641CAC42EBD3C6E90945376B2B
:104A100018E0A4F14100192810D8E2B2082130466C
:104A2000FFF743FE50B104F1200808F0FF02102107
:104A30003046FFF73AFE08B1404600E0204607F84E
:104A4000010B641CAC42E4D96846FFF759FD3046BF
:104A5000BDE8FC81D06700082C65000810B500F0A7
:104A600004F8BDE8104000F099BA10B500F08EF9D6
:104A700010BD0000F7B51746002413460D46064644
:104A80000A4621462046FFF7C5F904000DD1002D46
:104A900001DB172D00D30025164800213B4650F8B6
:104AA00025200846FFF78AF904467068B8B1FBF77D
:104AB00015FE05462046FBF711FE2844401C00F079
:104AC00071FA7168FBF711FE2146FBF7FBFD054605
:104AD000706800F05FFA204600F05CFA2C467460C3
:104AE0003046FEBDAFF30080204600F053FAAFF32E
:104AF0000080F5E7D064000810B500F027FA0249FD
:104B000001600021416010BD0468000810B5044632
:104B100004482060606800F03DFA2046AFF3008052
:104B200010BD00000468000810B501F0A4FB10BD22
:104B300010B504464FF0FF30206000F087F90146C1
:104B4000201D00F0B5F9001F10BD10B5001D00F0CC
:104B5000C5F9001F10BD10B5044601C92060201D15
:104B600000F0CCF9204610BD2DE9FE43064602A810
:104B7000FFF760FE022268460299FFF7A4FC02A834
:104B800001F079FB0024FF25E2B210213046FFF747
:104B90008CFD38B909E0EAB210213046FFF785FDF7
:104BA00030B96D1EA542F6D802E0641CAC42EBD3CE
:104BB000C6E90745F76A18E0A4F16100192810D882
:104BC000E2B210213046FFF770FD50B1A4F1200889
:104BD00008F0FF0208213046FFF767FD08B14046A4
:104BE00000E0204607F8010B641CAC42E4D9002425
:104BF000FF25E2B208213046FFF757FD38B909E03A
:104C0000EAB208213046FFF750FD30B96D1EA542CB
:104C1000F6D802E0641CAC42EBD3C6E90945376B19
:104C200018E0A4F14100192810D8E2B2082130465A
:104C3000FFF73BFD50B104F1200808F0FF021021FE
:104C40003046FFF732FD08B1404600E0204607F845
:104C5000010B641CAC42E4D96846FFF751FCBDE887
:104C6000FE8300002DE9F041064620207060002000
:104C7000C6E902033F4B33607161327611B93E4998
:104C8000716130760024FF25E2B210213046FFF733
:104C90000CFD38B909E0EAB210213046FFF705FDF6
:104CA00030B96D1EA542F6D802E0641CAC42EBD3CD
:104CB000281BC6E90745401C00F074F90746F0625E
:104CC00018E0A4F16100192810D8E2B21021304692
:104CD000FFF7EBFC50B1A4F1200808F0FF02082117
:104CE0003046FFF7E2FC08B1404600E0204607F8F6
:104CF000010B641CAC42E4D90024FF25E2B2082178
:104D00003046FFF7D2FC38B909E0EAB20821304654
:104D1000FFF7CBFC30B96D1EA542F6D802E0641C4B
:104D2000AC42EBD3281BC6E90945401C00F03AF918
:104D30000746306318E0A4F14100192810D8E2B208
:104D400008213046FFF7B1FC50B104F1200808F00B
:104D5000FF0210213046FFF7A8FC08B1404600E0F2
:104D6000204607F8010B641CAC42E4D93046BDE88C
:104D7000F0810000186800082C65000810B500F0EC
:104D800005F8BDE8104000F009B9000010B5044670
:104D900008482060207E10B1606900F0FBF8E06AEE
:104DA00000F0F8F8206B00F0F5F82046AFF3008033
:104DB00010BD00001868000810B5AFF30080BDE812
:104DC000104000F0EBB8000070B51D4E30690028AF
:104DD00027D1202000F0EAF8044602230A2219A174
:104DE000FFF7EEFA00241025B06008E0B16808680B
:104DF000896900EB840001F045FA6D00641C15F42C
:104E00007C7FF3D1202000F0D1F8044601230A2250
:104E10000DA1FFF7D5FA4FF47C71F0600161B06825
:104E2000306170BDAFF30080B06818B1FFF73EFB92
:104E300000F0B4F800203061B060AFF3008070BDC6
:104E400094000020430000000000000010B50D4C4D
:104E5000206908B9FFF7B8FF2078C0070FD10948CB
:104E600000F037F958B10748A168001D00F010F8AC
:104E7000054A0649FBF7EAF90248AFF3008001480A
:104E8000001D10BD9400002000000008DD4E000849
:104E900010B5044601600548006908B9FFF794FFA2
:104EA0002168C869401CC861204610BD94000020DC
:104EB00009680160CA69521CCA61704770B5064C26
:104EC0000546206808B9FFF77FFF21682960C86997
:104ED000401CC861284670BDA400002010B50446DF
:104EE000006848B1C169491EC16105D1206818B187
:104EF000FFF7DCFA00F052F8204610BD70B50D4601
:104F000004460168286881420FD0C169491CC1610B
:104F10002068C169491EC16105D1206818B1FFF739
:104F2000C5FA00F03BF828682060204670BD10B537
:104F300000F004F8BDE8104000F030B810B51030B3
:104F4000FFF7F2FD1038AFF3008010BD014901609A
:104F5000704700006C6800080A4810B50078C00768
:104F60000ED1084800F0B5F850B107480021074AB3
:104F7000016041600649FBF769F90248AFF3008020
:104F8000014810BDDC000020E00000200000000807
:104F9000D95E000810B500F001F810BD10B500F0A2
:104FA00089FD10BD10B500F001F810BD10B504006A
:104FB00007D1012405E0FCF7C9F8006800B90448EE
:104FC0008047204600F09EFE0028F4D010BD00006F
:104FD000C70800080FB4024610B504A9034B039894
:104FE00000F0BCF910BC5DF814FB0000A15A0008E9
:104FF0007CB5044600201D46164600290BD0491EEC
:10500000CDE90041044B6A462946304600F0A6F936
:10501000009A002111707CBD8B5A00082DE9FF4DCC
:1050200082B08B46824601200F9990460AFB0BF610
:10503000009006B901261446301911B1884720B1F5
:1050400001E0FFF7AFFF044400E0002484B1B8F1B1
:10505000000F01D044E902BA059848B1002527465F
:1050600004E00599384688475F446D1C5545F8DBD8
:1050700006B02046BDE8F08DAFF300800E9828B151
:1050800003465A4629463846FCF77AFA009860B13A
:10509000109AA4EB080006EB0801904705E0AFF377
:1050A0000080FBF712FCAFF30080FCF789F80028C2
:1050B00004D0A0F108020CCAFCF783B8704738B5D9
:1050C0000C460093134601460822204600F00AF8D9
:1050D00038BD016809B10020704701210160084610
:1050E00070470000FEB5044E089C00258DE8700056
:1050F000FFF794FFFEBD0000954F000802E008C8CE
:10510000121F08C1002AFAD170477047002001E041
:1051100001C1121F002AFBD1704700000248002184
:105120000160001D01607047A800002070B50A4DA5
:10513000022400260820FFF735FFC5E9000428688F
:10514000641E40F82460FAD12846BDE87040034A46
:105150000349FBF77BB80000BC00002000000008FA
:105160002F5E000870B50A48FFF7D4F8094A0A49CB
:10517000FBF76CF806485025183057244D2305706E
:105180000122447083700F21C270816070BD0000E5
:105190001C070020000000082943000802480021E5
:1051A0000160001D016070478C000020054801214E
:1051B000416300F14C01022048634C3103204863F5
:1051C00070470000AC0500202DE9FF5F82B0002190
:1051D000DDE90430020DDDF840B0034318D044F699
:1051E0001050A2F2FF3242431514119801281FD02B
:1051F000A5EB0B00401C5FEA000A4FF000064E4F83
:10520000DFF83891B046504615D5CAF1000413E0D6
:10521000119801244AA3012801D16FEA0B010298D9
:10522000119AC0E90031C0E9024206B0BDE8F09F22
:10523000CBF10000DFE704460021404A491842EB69
:105240000450CDE9001012E0E00707D032463B469B
:1052500040464946FBF7B8F88046894632463B4609
:1052600010461946FBF7B0F806460F466410002CAE
:10527000EAD1DDE90401DDE90023BAF1000F06DA25
:10528000FBF7A2F842464B46FBF79EF805E0FBF71A
:105290000DF942464B46FBF709F904460E4600223B
:1052A000284BFBF775FF03D84FF0FF30014607E0AE
:1052B0000022254B20463146FAF7DFFFFBF750FF6F
:1052C000102409E0002C0ADB0A220023FAF77CFFF5
:1052D000039B30321A55641E50EA0102F2D1641C5D
:1052E000039AC4F111031444119A012A03D0012234
:1052F00008430DD10AE0084304D000204FF0110B01
:10530000119072E7A3EB0B056D1E0DE05B4504DD0C
:105310004FF0000205F1010504E003DA4FF000024E
:10532000A5F10105002AECD002981199C0E90231DB
:10533000C0E9004579E70000000014400000F03F9C
:10534000300000000000F0430000E03F30380A2841
:1053500001D2012070470020704700002DE9FF4F67
:1053600095B09B468946064600250FE2252877D151
:1053700000242746F84A0121059400E0044316F86A
:10538000013F203B01FA03F01042F7D130782A2880
:1053900011D06FF02F033078A0F13002092A16D80F
:1053A000059A44F0020402EB820203EB420210442D
:1053B000761C0590EFE759F8042B0592002A03DAD2
:1053C000504244F40054059044F00204761C3078B6
:1053D0002E2816D116F8010F44F004042A280DD007
:1053E0006FF02F023078A0F13003092B09D807EBBA
:1053F000870302EB4303C718761CF3E759F8047BD5
:10540000761C30786C280FD006DC4C2817D0682822
:105410000DD06A2814D104E0742810D07A280FD156
:105420000DE044F400140AE044F4801401E044F474
:1054300040147278824202D104F58014761C761CE6
:10544000307866280BD013DC582877D009DC002888
:1054500075D04528F6D04628F4D047281AD19DE1CA
:1054600018E0632835D0642879D0652812D195E1F9
:10547000702873D008DC6728F1D069286FD06E28B7
:105480000DD06F2806D1B5E073282CD0752875D0C3
:10549000782874D05A46179990476D1C75E1C4F36B
:1054A0000250022809D003280DD0D9F80010042892
:1054B0000DD00D6009F1040967E1D9F80010EA1771
:1054C000C1E90052F6E7D9F800100D80F2E70D703F
:1054D000F0E719F8041B8DF8001000208DF801008A
:1054E000EA46012003E059F804AB4FF0FF306107B2
:1054F0004FF0000102D40DE008F101018846B942E5
:105500000FDA8045F8DB1AF808100029F4D108E01A
:1055100008F1010188468142FADB1AF808100029D7
:10552000F6D105985B46A0EB080721463846179A46
:1055300000F094FA284400EB080507E04DE029E16B
:105540000DE01AF8010B5A4617999047B8F1010877
:10555000F7D25B4621463846179A13E142E00A2209
:105560000092C4F302524FF0000A022A08D059F800
:1055700004CB032A4FEAEC710AD00DE029E02AE0BF
:1055800009F1070121F00702F2E802C1914609E0A2
:105590000FFA8CFC4FEAEC71042A03D14FFA8CFC11
:1055A0004FEAEC71002907DA0A460021DCF1000C11
:1055B00061EB02012D2202E0220504D52B228DF899
:1055C0000420012203E0E20701D02022F7E7904601
:1055D00059E00A2102E010220DE010214FF0000AEC
:1055E00000910BE010224FF0000A44F00404082759
:1055F000009203E008224FF0000A0092C4F3025226
:10560000022A05D059F804CB0021032A08D009E06A
:1056100009F1070121F00702F2E802C1914605E015
:105620001FFA8CFC042A01D10CF0FF0C4FF000088B
:10563000220728D5702806D0009B83F0100353EA78
:105640000A0305D00EE040228DF80420012208E074
:105650005CEA010206D030228DF804208DF80500A6
:1056600002229046009B83F0080353EA0A030AD102
:105670005CEA010201D1620705D530228DF80420D1
:105680004FF001087F1E582804D034A003900EA8C4
:1056900002900DE036A0F9E753466046009AFAF70B
:1056A00093FD84460398825C0298401E029002702B
:1056B0005CEA0100F0D1029806A9081A00F1200A5C
:1056C000600702D524F4803400E00127574502DD4D
:1056D000A7EB0A0000E0002000EB0A01009005980B
:1056E0004144401A0590E00306D45B462146179AD0
:1056F000059800F0B3F90544002706E001A85A46D2
:10570000C05D179990476D1C7F1C4745F6DBE00391
:105710000CD55B462146179A059800F09FF9054481
:1057200004E030205A46179990476D1C0099481E96
:1057300000900029F5DC08E0029802995A460078AA
:10574000491C0291179990476D1CBAF10001AAF10A
:10575000010AF1DC65E10000092801003031323333
:10576000343536373839616263646566000000009D
:105770003031323334353637383941424344454687
:105780000000000000F058F90544761C307800282D
:105790007FF4ECAD19B02846BDE8F08F620700D465
:1057A000062709F1070222F0070CFCE80223E14674
:1057B00003F000485FEA080C02D00FF2702C0DE0F5
:1057C0005FEA045C02D50FF2682C07E05FEAC47C54
:1057D00002D00FF2602C01E0AFF2700C4FF0FF38F6
:1057E00023F00043CDF850C065280CD006DC4528D6
:1057F00009D046281DD047283DD13DE0662818D065
:1058000067287ED138E00021112F01DB112000E054
:10581000781CCDE9000106A90EA8FFF7D5FCDDE94B
:105820000F010E9A03910021009207F1010A0491E1
:105830004DE04FF000400097CDE9011006A90EA8F9
:10584000FFF7C2FCDDE90F0203920E9B11990022C3
:10585000DDF80CA00093049211B9791C00EB010A49
:10586000B7EB0A0004D4C0F1FF3007F1010A04903D
:10587000AAEB0700019044E0012F00DA0127002184
:10588000112F01DD112000E03846CDE9000106A905
:105890000EA8FFF799FCDDE90F010E9A0391002194
:1058A00004910092BA4621070CD40399514500DABD
:1058B0008A46BAF1010F05DD009AAAF10101515C97
:1058C000302908D0B84202DA10F1040F06DA0121BB
:1058D000CDE9011015E0AAF10101E9E7002805DC96
:1058E000049901440491AAEB000102E0411C5145D6
:1058F00000DD8A460499401A401C01904FF0004098
:105900000290200704D40198504501DBCDF80480B3
:1059100000208DF84F0002980DF14F07B0F1004FB5
:1059200025D02B200E9002984FF0020800280CDAA8
:10593000404202902D200E9007E00A210298FBF7CA
:105940000BF83031029007F8011DB8F10001A8F101
:105950000108F2DC02980028EFD1791E0E98087039
:10596000307800F0200040F0450007F8020D12A842
:10597000C01B00F107081498007800B1012000EB6B
:105980000A01019801EBE07105984144401A401E5C
:105990000590E00306D45B462146179A059800F06F
:1059A0005DF805441498007818B15A461799904745
:1059B0006D1CE00324D55B462146179A059800F03C
:1059C0004DF805441CE00498002807DBDDE90301DD
:1059D000884203DD0098405C179901E01799302058
:1059E0005A469047049805F10105401C049001981F
:1059F000401E019004D12E205A46179990476D1CE5
:105A0000BAF10001AAF1010ADDDC05E017F8010B8B
:105A10005A46179990476D1CB8F10001A8F101088A
:105A2000F4DC5B462146179A0598ABE62D00000092
:105A30002B000000200000002DE9F0410446002565
:105A40001E461746880404D405E039462020B04796
:105A50006D1C641EF9D52846BDE8F0812DE9F041A2
:105A6000044600251E469046C80301D5302700E0B5
:105A70002027880404D505E041463846B0476D1C10
:105A8000641EF9D52846BDE8F0814A68002A06D090
:105A90000A68531C0B6010704868401E48607047CD
:105AA00038B504468DF8000069460320ABBE204699
:105AB00038BD000010B5002821D0114B0022001F76
:105AC000196803E0814203D80A4649680029F9D1E0
:105AD00052B11368841A9C4204D1006818441060C3
