:020000040800F2
:10000000A80700209D0100087F240008371B000876
:10001000552200081F080008ED2E0008000000000F
:10002000000000000000000000000000A324000801
:100030002109000800000000A1240008A5240008F0
:10004000B7010008B7010008B7010008B7010008B0
:10005000B7010008B7010008B7010008B7010008A0
:10006000B7010008B7010008B7010008B701000890
:10007000B7010008B7010008B7010008B701000880
:10008000B7010008B7010008B7010008B701000870
:10009000B7010008B7010008B7010008B701000860
:1000A000B7010008B7010008B7010008B701000850
:1000B000B7010008B7010008B7010008B701000840
:1000C000B7010008B7010008B7010008B701000830
:1000D000B7010008B7010008B7010008B701000820
:1000E000B7010008B7010008B7010008B701000810
:1000F000B7010008B7010008B7010008B701000800
:10010000B7010008B7010008B7010008B7010008EF
:10011000D5260008B7010008B7010008B70100089C
:10012000B7010008B7010008B7010008B7010008CF
:10013000B7010008B7010008B7010008B7010008BF
:10014000B7010008B7010008B7010008B7010008AF
:10015000B7010008B7010008B7010008B70100089F
:10016000B7010008B7010008B7010008B70100088F
:10017000B7010008B7010008B7010008000000003F
:10018000B7010008B7010008DFF80CD000F0E8FA6A
:100190000048004731470008A8070020064880476C
:1001A00006480047FEE7FEE7FEE7FEE7FEE7FEE75C
:1001B000FEE7FEE7FEE7FEE7552500088901000897
:1001C00040EA01039B0703D009E008C9121F08C0D9
:1001D000042AFAD203E011F8013B00F8013B521E59
:1001E000F9D270472DE9FE4F804681EA0300C00F27
:1001F0000C46009021F0004123F00045B8EB0200CE
:10020000A94105D24046214690461C460B4602466F
:1002100023F00040104347D0270DC7F30A00C3F373
:100220000A510290401A019040286BDAC3F3130080
:1002300040F4801B0098924620B10023D2EB030AC1
:1002400063EB0B0B01985946C0F14002504600F099
:1002500080F906460D4650465946019A00F088F945
:1002600010EB08006141002487EA115284EAE77329
:100270001A4340D0009A62B3019A012A4FEA07520A
:1002800015DC001B61EB02014FF0004202EA07524D
:10029000CDE90042001C41F5801132462B4600F0AA
:1002A000BFF903B0BDE8F08F40462146F9E7001BD7
:1002B00061EB0201001C41F5801300185B4120181E
:1002C000A2F5001747EB030140EAD570B6196D415E
:1002D00011E06D084FEA360645EAC0754FEA07524D
:1002E000001B61EB0201001C41F5801149084FEA37
:1002F00030000019514132462B4603B0BDE8F04FA3
:1003000000F07FB90098012240000023D0EB0202E8
:1003100063EBE073009821464FEAE074B8EB00000D
:1003200061EB0401E9E783F000435BE781F0004102
:1003300058E72DE9FE4F81EA030404F0004421F060
:10034000004100944FF0000B23F0004350EA0104F9
:100350005ED052EA03045BD0C3F30A54C1F30A55DA
:100360002C44A4F2F3340194A0FB0254C1F3130112
:1003700041F48011C3F3130343F4801301FB0244DF
:1003800000FB034E840A970A44EA815447EA8357E4
:10039000A4FB076802958D0A05FB07854FEA932C9D
:1003A00004FB0C542705029D4FEA065847EA16370E
:1003B000B5EB08056EEB070C870E920E47EA811726
:1003C00042EA8312A7FB0201B6EB0B0164EB0004C7
:1003D0002B0D43EA0C335E1844EB1C50DA465146B1
:1003E000E7FB0201C5F313044FEA0B3343EA14534E
:1003F0004FEA0432019C43EA0603A4F10C04029480
:10040000009CCDE900B400F00BF903B0BDE8F08F1B
:1004100000200146F9E72DE9F04D81EA030404F0DC
:10042000004B21F0004514464FF0000A23F0004134
:1004300050EA050220D054EA01021DD0C5F30A5744
:100440000246C5F31303C1F31300C1F30A5640F487
:10045000801543F48013A7EB0608101BD64608F25C
:10046000FD3873EB050002D308F1010801E0921892
:100470005B41B8F1000F03DA00200146BDE8F08DC2
:1004800000204FF48011064684460EE0171B73EBE4
:10049000050705D3121B63EB050306434CEA010C69
:1004A00049084FEA300092185B4150EA0107EDD14C
:1004B00052EA030012D082EA040083EA05010843ED
:1004C00005D0101BAB4106D20122002306E000221A
:1004D0004FF0004302E06FF0010253101AEB0600E8
:1004E0004CEB085110EB0A0041EB0B01BDE8F04D5D
:1004F00000F087B800F0004230F000400AD0C10D93
:1005000001F56071C0F3160042EA0151C2084007CC
:100510001143704700200146704701F0004330B49A
:1005200021F0004150EA010206D00A0DA2F56072E6
:10053000C1F31301002A02DC30BC00207047440FD5
:1005400044EAC104C100E01830BC00EBC25000F026
:1005500021B8202A04DB203A00FA02F1002070477B
:100560009140C2F1200320FA03F3194390407047F1
:10057000202A06DBCB17203A41FA02F043EAE07367
:1005800006E041FA02F3D040C2F120029140084354
:10059000194670470029A8BF7047401C490008BF92
:1005A00020F00100704710B4B0FA80FC00FA0CF0A3
:1005B00050EA010404BF10BC704749B1CCF12004DB
:1005C00021FA04F411FA0CF118BF01212143084368
:1005D000A3EB0C01CB1D4FEA00614FEA102042BF94
:1005E000002010BC704700EBC35010440029A4BF8A
:1005F00010BC7047401C490008BF20F0010010BC2F
:10060000704710B5141E73F1000408DA401C41F164
:10061000000192185B411A4301D120F0010010BD86
:100620002DE9F04D92469B4611B1B1FA81F202E0FC
:10063000B0FA80F220329046FFF78BFF04460F4657
:1006400040EA0A0041EA0B0153465A46084313D0D8
:10065000114653EA010019D0C8F14002504600F09B
:1006600091F805460E46504659464246FFF771FF3F
:10067000084305D0012004E020463946BDE8F08D4E
:100680000020054346EAE0762C4337430A98630589
:10069000E40AA0EB08000022FD0A44EA47540A30AD
:1006A00002D500200146E9E7010510196941DDE99D
:1006B000084500196941BDE8F04DA2E72DE9F04D6C
:1006C00000231A461B1A8A4103DB00200146BDE8BD
:1006D000F08DC1F30A52C1F3130141F480154FF0BC
:1006E000000BD10702D100186D41521E00270446AD
:1006F00040F2FF11384601EB620A3E468046024650
:1007000000204FF4801100F03DF8C2197141BB1870
:1007100046EB0100B4EB030C75EB000C04D3E41AB8
:1007200065EB000517460E46241908F101006D41DE
:1007300080463428E3DDF91946EB0600091BA84181
:1007400003D24FF0FF32134601E0002213461BEBA9
:10075000070046EB0A51BDE8F04DFFF752BF00001D
:10076000064C074D06E0E06840F0010394E80700FE
:1007700098471034AC42F6D3FFF70AFD184D000835
:10078000384D0008202A04DB203A21FA02F000212B
:10079000704721FA02F3D040C2F120029140084391
:1007A000194670470EB5C10F80EAE0700844CA07C9
:1007B000002140F233438DE80E000A460B46FFF756
:1007C0002FFF03B000BD0EB540F23341029100216E
:1007D000CDE900110A460B46FFF722FF03B000BD2A
:1007E00070B5C1F30A5201F000450024C1F31301B2
:1007F00040F2FF3341F480119A4201DA002070BDCB
:1008000040F233439A42A2F2334203DC5242FFF7F2
:10081000B9FF00E090402C43F1D0404270BDFEE7AC
:1008200070B504462DED048B0D46D0ED058ADFED45
:100830003B9A90ED049A28EEA90A10EE100AFFF7F1
:1008400059FE41EC100B03F023F851EC100BFFF7AD
:1008500064FE29EE290A08EE100A10EE100AFFF7CE
:1008600049FE41EC100B02F06FFFB0EE409A95ED9F
:10087000100AF0EE609AB1EE400A10EE100AFFF78F
:1008800039FE53EC192BFFF754FDFFF746FE00EE3F
:10089000100AB7EE001A84ED0F0AD5ED100A08EE23
:1008A000081A60EEA00A40EE400A80EE810A10EEBF
:1008B000100AFFF71FFE41EC100B02F0A9FF51ECEC
:1008C000100BFFF72AFE00EE900AC4ED110A95ED19
:1008D000100A94ED0F1A20EE000A01EE410A00EE14
:1008E000E00A10EE100AFFF705FE41EC100B02F0D3
:1008F0008FFF51EC100BFFF710FE00EE100AF5EE23
:10090000C08A84ED100AF1EE10FA03D2B1EE400A6B
:1009100084ED100ABDEC048B70BD000035FA8E3CEE
:10092000704790F83510022903D0802141650120DD
:100930007047052180F835100068016821F0010139
:1009400001600020704731B500F0EEF8009C0546CC
:10095000601C00D0641C00F0E7F8401BA042FAD3F2
:1009600038BD00002DE9F84FDFF87CB100224FF0D0
:1009700001084FF0030A4FF00F090BF1040E00BFFE
:100980000B6808FA02F42340A3426ED14D68022D91
:1009900001D0122D0ED1D50800EB850CDCF82050CB
:1009A0005607F70E09FA07F6B5430E69BE402E4307
:1009B000CCF82060066855000F790AFA05FC07F0AC
:1009C000030726EA0C06AF40374307604E68012E46
:1009D00005D0022E03D0112E01D0122E0ED1866822
:1009E000CF6826EA0C06AF40374387604668A643C7
:1009F0000C79C4F30014944034434460C6688C6896
:100A000026EA0C06AC403443C4604C68E40065D56B
:100A1000364C256845F480452560246822F003059E
:100A200004F480440094324C2E19D6F808489507F7
:100A30002F0F09FA07F5AC432E4DA84201D100252E
:100A400024E02D4DA84201D101251FE02B4DA842E5
:100A500001D102251AE02A4DA84201D1032515E053
:100A6000284DA84202D1042510E037E0264DA842C7
:100A700001D105250AE0254DA84201D1062505E052
:100A8000234DA84201D1072500E00825BD4025439C
:100A9000C6F80858DBF800405D464E689C43F603F4
:100AA00000D51C432C60DEF8004075464E689C4320
:100AB000B60300D51C432C600B4D08352C684E68DE
:100AC0009C43F60200D51C432C60074D0C352C6866
:100AD0004E689C43B60200D51C432C60521C102A61
:100AE000FFF44EAFBDE8F88F003C014044380240AF
:100AF00000300140000002400004024000080240B3
:100B0000000C024000100240001402400018024095
:100B1000001C024042694A40426170470AB181614B
:100B200070470904FBE700000148006870470000B7
:100B30000400002070B5040004D094F83D000025A6
:100B400010B106E0012070BD84F83C50204600F052
:100B500011FA242084F83D002068016821F0010189
:100B6000016000F091FB33492268B0FBF1F1516064
:100B7000314A6368934206D94FF4967359434FF450
:100B80007A73B1FBF3F12368491C196261689142E1
:100B90000BD84900B0FBF1F2C2F30B02042A01D2D8
:100BA000042019E0B0FBF1F016E0A3689BB301EB61
:100BB000C10202EB0112B0FBF2F242F480421205D4
:100BC00030D04BB301EBC10202EB0111B0FBF1F0ED
:100BD00040F4804040F400402168C861D4E9070136
:100BE000084321680860D4E903100843216888603D
:100BF000D4E9050108432168C8602068016841F014
:100C0000010101602564202084F83D00256384F8FB
:100C10003E50002070BD00E006E001EB4102B0FB59
:100C2000F2F2CCE70120D7E701EB4101B0FBF1F094
:100C3000D0E7000040420F00A08601002DE9FF4FE1
:100C400083B09A46DDE9118793460446DDF840906B
:100C5000FFF76AFF054694F83D00202874D1192358
:100C6000012272492046009501F069F80028F5D16B
:100C700094F83C00012867D0012084F83C002068EB
:100C80000168C90703D1016841F0010101602068D2
:100C9000016821F400610160222084F83D004020B9
:100CA00084F83E0000262664C4F82490A4F82A8024
:100CB0005F48E062608D2085CDE9007553465A4655
:100CC0002046049900F04CFF28B1206C84F83C6069
:100CD000042843D076E0208DC8B1012820D0022816
:100CE000206823D0416980690090208D03286BD84B
:100CF00001282AD04F4902283B464FF000020095B8
:100D00005BD08846204601F01AF8E8BB40E0206836
:100D1000416981690091016841F40071016076E0E8
:100D20002068016821F480610160F0E7016821F426
:100D3000806101602068016841F400610160206801
:100D400041698069009062E06EE02A46394620469B
:100D500001F06AF830B1206C202833D0012007B0B0
:100D6000BDE8F08F206847E02068016841F4007119
:100D7000016020680169606A421C62620170208D16
:100D8000401E2085608D00E01CE0401E6085E9E784
:100D90002068016821F48061016020680169606A4F
:100DA000421C62620170208D401E2085608D401EB5
:100DB00060853B46002241460095204600F0BFFF7B
:100DC0000028D1D00320CAE72A463946204601F040
:100DD0002BF80028BFD120680169606A421C62625A
:100DE0000170208D401E2085608D401E608520682A
:100DF0004169C94349070AD40169606A421C6262B9
:100E00000170208D401E2085608D401E6085208DE4
:100E100000287FF46AAF202084F83D0084F83E600B
:100E200084F83C6000209AE7022098E70200100056
:100E30000000FFFF040001002DE9FF4F83B09A4638
:100E4000DDE9118793460446DDF84090FFF76CFE1C
:100E5000064694F83D0020287DD1192301224349FC
:100E60002046009600F06BFF00287CD194F83C00EF
:100E7000012878D0012084F83C0020680168C90767
:100E800003D1016841F0010101602068016821F48B
:100E900000610160212084F83D00402084F83E007C
:100EA00000252564C4F82490A4F82A803048E06224
:100EB000608D2085CDE9007653465A462046049938
:100EC00000F0C6FE80B3206C84F83C50042848D063
:100ED00008E032463946204600F0D7FF30B1206C9A
:100EE000042839D0032007B0BDE8F08F606A411CA8
:100EF0006162216800780861208D401E80B22085E3
:100F0000618D491E618521684A69D24352070BD41D
:100F100068B1606A421C626200780861208D401EE0
:100F20002085608D401E6085208D0028D1D13246FD
:100F30003946204600F0DCFE0028D0D154F83D0BA5
:100F4000016841F400710160202004F81E09E57772
:100F500065770020C7E706E02068016841F400716A
:100F600001600120BFE70220BDE700000200100081
:100F70000000FFFF00B500680E4987B0884217D116
:100F80004FF4406000901220019001200290032055
:100F900003900420049069460748FFF7E3FC0748E4
:100FA000016841F480010160006800F48000059050
:100FB00007B000BD00580040000402404038024025
:100FC00002480168491C01607047000004000020CD
:100FD0000B4810B5016841F400710160016841F4EB
:100FE00080610160016841F480710160032000F0BC
:100FF00075F8002000F006F800F018F8002010BD89
:10100000003C024010B5044607484FF47A7100686E
:10101000B0FBF1F000F039FB00222146501E00F039
:101020003DF8002010BD00000000002010B5032096
:1010300000F054F8002211466FF00B0000F02EF87B
:10104000002211466FF00A0000F028F80022114635
:101050006FF0090000F022F800221146501F00F046
:101060001DF800221146101F00F018F8002211464A
:10107000901E00F013F80022BDE810401146501EEB
:1010800000F00CB800F01F020121914040098000DF
:1010900000F1E020C0F8001170470000F0B40E4BE2
:1010A0001B680C46C3F30223C3F10705042D00D9C6
:1010B0000425191D072901D2002300E0DB1E0126AB
:1010C00006FA05F1491E214099409E40761E1640C1
:1010D0003143F0BC01F0D4B90CED00E0064900F05A
:1010E000070208684FF6FF03184040EA0220034A4F
:1010F00010430860704700000CED00E00000FA05A6
:101100002DE9F047DFF8649105460F46D9F8000055
:1011100000F00F01F8B28046B94208D2014689F8C2
:101120000010D9F8000000F00F00B84274D1287800
:101130004F4C800705D52068A96820F0F0000843CF
:1011400020602878C00759D04949686808390128C3
:101150001AD002281BD0032819D009688907002952
:101160005ADA216821F0030101432160FFF7DCFC1A
:101170006968064641F28830012911D002291DD044
:101180000329824627D035E009688903E7E7096823
:101190008901E4E7FFF7C8FC811B514501D926E02E
:1011A00082462068C0F381000128F3D126E000BF09
:1011B000FFF7BAFC811B514501D918E0824620682F
:1011C000C0F381000228F3D118E000BFFFF7ACFCA8
:1011D000811B51450BD82068C0F381000328F5D14D
:1011E0000CE000BFFFF7A0FC811B514502D9032092
:1011F000BDE8F087206810F00C0FF3D1D9F800108B
:10120000484601F00F01B94208D980F80080006813
:1012100000F00F00B84201D00120E9E7287840072C
:1012200005D52068E96820F4E0500843206028785C
:10123000000706D52068296920F4604040EAC10013
:10124000206000F051F82168F02292FAA2F201F039
:10125000F001B2FA82F2D140064A515CC840064918
:1012600008600020FFF7CEFE0020C1E7003C0240EE
:1012700008380240904A0008000000200148006839
:10128000704700000000002008480949006809680C
:101290004FF4E05292FAA2F201F4E051B2FA82F273
:1012A000D140044A515CC840704700000000002053
:1012B00008380240A04A000808480949006809683F
:1012C0004FF4604292FAA2F201F46041B2FA82F263
:1012D000D140044A515CC840704700000000002023
:1012E00008380240A04A000830B51948006810F0DC
:1012F0000C01184812D0184C04290ED008290DD121
:101300001349091F0A6802F03F030A68550247F6AD
:10131000C07204D5B4FBF3F003E0204630BDB0FB4F
:10132000F3F00B680968134092FAA2F2B2FA82F263
:10133000D34058434FF4403292FAA2F201F44031C4
:10134000B2FA82F2D140491C4900B0FBF1F030BD45
:10135000083802400024F40040787D012DE9F84F60
:101360000546DFF8FC920078A9F1040BC007ABF149
:10137000040449D0D9F800104846C1F3810101297D
:1013800008D00068C0F3810002280AD1DBF8000011
:10139000400206D52068800336D5686800286ED0E4
:1013A00032E06868B0F5803F10D0B0F5A02F20681B
:1013B00010D020F480302060206820F4802020604D
:1013C0006868A0B1FFF7B0FB06460CE0206840F467
:1013D0008030F4E740F480202060F7E7FFF7A4FBBB
:1013E000801B642871D820688003F7D50CE0FFF7D4
:1013F0009BFB064605E000BFFFF796FB801B6428B9
:10140000F0D820688003F7D42878964F80074FF0F3
:10141000010A4FF0000841D5D9F80010484611F0F4
:101420000C0F08D00068C0F3810002280AD1DBF855
:101430000000400206D42068800713D5E868012820
:101440001DD10FE0E868D8B1C7F800A0FFF76CFB2A
:10145000064604E0FFF768FB801B0228C2D820681C
:101460008007F7D52068F82292FAA2F22969B2FA29
:1014700082F220F0F8009140084320600EE0ECE09A
:10148000C7F80080FFF750FB064604E0FFF74CFB6F
:10149000801B022819D820688007F7D42878000715
:1014A00024D57148696989B1C0F800A0FFF73CFBF9
:1014B000064604E0FFF738FB801B022805D8684881
:1014C0006C3000688007F5D510E07AE0C0F8008045
:1014D000FFF72AFB064604E0FFF726FB801B0228E5
:1014E0006FD85F486C3000688007F5D428784007D3
:1014F00053D55B483830016841F080510160006885
:1015000000F0805000905948016841F480710160FA
:10151000FFF70AFB064604E0FFF706FB801B0228E4
:101520004FD852480068C005F6D54D4EA8686836B9
:1015300001280FD00528306810D020F0010030605D
:10154000306820F004003060A868B8B1FFF7ECFA0A
:1015500000900FE0306840F00100F4E740F0040034
:101560003060F7E7FFF7E0FA0099411A41F288305E
:1015700081426AD830688007F4D50EE0FFF7D4FACC
:10158000009007E0FFF7D0FA0099411A41F2883045
:1015900081425AD830688007F4D4A869E8B3D9F8F2
:1015A0000010C1F38101022957D00228C7F86080DA
:1015B00003D0FFF7B9FA05464AE0FFF7B5FA064649
:1015C00005E042E0FFF7B0FA801B02283DD8206812
:1015D0008001F7D4D5E90701084347F6C07292FAB3
:1015E000A2F2696AB2FA82F29140AA6A4FF0FF331E
:1015F00003EB52024FF4403393FAA3F3B3FA83F3AD
:101600009A40114308434FF0706292FAA2F2E96ADD
:10161000B2FA82F29140084300E01CE0CBF80000EF
:10162000C7F860A0FFF780FA054604E0FFF77CFAF0
:10163000401B022809D820688001F7D50BE000BFC5
:10164000FFF772FA401B022802D90320BDE8F88F89
:1016500020688001F4D40020F8E70120F6E70000BC
:101660000838024000004742800E474200700040A8
:101670004FF0E0210428086903D020F0040008613D
:10168000704740F00400FAE7704710B5401EB0F113
:10169000807F01D3012010BD4FF0E02460610F2155
:1016A000601700F0EDFE0020A061072020610020FF
:1016B00010BD10B5FFF7E8FF10BD30B590F8382029
:1016C000012A20D0012280F83820022380F8393006
:1016D00003685C6824F070045C6003685C680D68F3
:1016E0002C435C6003689C6824F080049C60036861
:1016F0009C6849680C439C6080F83920002180F880
:101700003810084630BD022030BD10B5040003D0AB
:1017100094F8390010B107E0012010BD002084F8D2
:101720003800204600F00CF8022084F83900211D12
:10173000206800F039FF012084F83900002010BD36
:1017400008B500680649884208D10648016841F09A
:1017500001010160006800F00100009008BD000078
:101760000000014044380240022180F8391001682D
:101770000A6842F001020A60012180F83910002055
:10178000704770B5044690F83800012817D001253D
:1017900084F83850022084F839002068826822F0EA
:1017A000770222F47F4282600868502837D00DDC2F
:1017B000202859D005DC88B3102841D151E00220FF
:1017C00070BD302853D040283AD13FE060282ED059
:1017D00070280BD0B0F5805F03D0B0F5005F2FD13B
:1017E00010E02068816821F0070115E0CB68D1E99D
:1017F0000121206800F038FF2168886840F07700F8
:1018000088601DE0CB68D1E90121206800F02CFF41
:101810002068816841F48041816011E01EE0CA685F
:101820004968206800F032FF5021206806E0CA684D
:101830004968206800F03BFF6021206800F01EFF2F
:1018400084F83950002084F8380070BDCA684968AF
:10185000206800F01BFF40212068EFE7002120688E
:10186000ECE710212068E9E720212068E6E7302135
:101870002068E3E77047000070B50268044610680E
:10188000D168536910F00F0F50D003F0010501F437
:10189000907635435DD0C20705D0CA0503D5E26B0B
:1018A00042F00102E263420705D5DA0703D0E26B9A
:1018B00042F00202E263820705D5DA0703D0E26B49
:1018C00042F00402E263020705D5DA0703D0E26BB7
:1018D00042F00802E263E26B002A33D0800604D5AE
:1018E000880602D5204600F011FF20684069E16BB0
:1018F000C0F38010090700D428B3204600F0F8FE9A
:101900002068416949061AD5416921F040014161C9
:10191000606BA0B11B490165606BFFF702F80028FE
:1019200010D0606B016DBDE870400847830610D58C
:101930008B060ED52046BDE8704000F0E7BE20467D
:10194000FFF798FF70BD2046FFF794FF0020E0638B
:1019500070BD030606D50B0604D52046BDE87040D1
:1019600001F070B84006F3D54806F1D5D16820469D
:1019700021F04001D160202184F8391000F0DAF81C
:1019800070BD0000E126000870B5040004D094F892
:101990003900002510B106E0012070BD84F83850F0
:1019A000204600F023F8242084F839002068C1681C
:1019B00021F40051C160204600F0EEFE206801696C
:1019C00021F4904101612068416921F02A014161BF
:1019D0002068C16841F40051C160E563202084F8AB
:1019E000390084F83A00002070BD000010B51E4C8C
:1019F00003681E4903221E4886B0A3421CD10B680F
:101A000043F400230B60096801F4002105911221C1
:101A1000CDE900210121CDE9021208210491694696
:101A2000FEF7A0FF002211463420FFF737FB3420D9
:101A3000FFF728FB06B010BD0E4CA342FAD10B688D
:101A400043F400330B60096801F4003105910C2167
:101A500000910221CDE9021201910721049169460A
:101A6000FEF780FFE6E70000004C004040380240EF
:101A7000000002400044004070472DE9F84304464E
:101A800090F839001F4616460D46202850D1A5B1C2
:101A90009EB194F8380001284AD0012084F838001B
:101AA0004FF00008C4F83C80212084F83900FFF78B
:101AB0003BF8A6848146E68426E00120BDE8F88351
:101AC000E08C401EE084A0684B46B0F5805F4FF08C
:101AD00000024FF080012046009703D000F0E3FFA2
:101AE000E8B90DE000F0DFFFC8B928882168C0F32D
:101AF00008004860206908B16D1C05E0AD1C03E0DA
:101B0000216815F8010B4860E08C0028D8D14B46BD
:101B1000002240212046009700F0C5FF08B10320B5
:101B2000CCE7202084F8390084F838800020C5E70D
:101B30000220C3E77047FEE701684A69D2435205B5
:101B40000CD46FF480624A6104210164002140F8E2
:101B5000301F20224273017301207047002070471C
:101B60002DE9F84F0446006889460B9D01689846A8
:101B7000174641F4806101602068016841F480717A
:101B8000016000954FF0011A0022514620460A9B41
:101B900000F0D5F8F0BB216809F0FE0008610AF1F9
:101BA000010B2B46594620460A9A00F0F9F818B165
:101BB000206C042812D03AE02068416980690090C6
:101BC0002A4620460A9900F060F950B1206C04289A
:101BD0002DD12068016841F4007101600120BDE849
:101BE000F88FFEB2B8F1010F09D02168380A0861F8
:101BF0002A4620460A9900F048F90028E6D12068D4
:101C000006612A4620460A9900F03FF90028DDD1F6
:101C1000206800E00BE0016841F4807101600095EC
:101C20000022514620460A9B00F089F808B10320A3
:101C3000D5E7216809F0FF0040F0010008612B465C
:101C4000594620460A9A00F0ABF80028B0D1C6E702
:101C50002DE9F843044600680D46DDE90897016860
:101C60009846164641F4807101604B4600224FF0C1
:101C700001112046009700F062F8E8B9216805F0EC
:101C8000FE0008613B464A461849204600F088F8A5
:101C900028B1206C04280FD10120BDE8F88320680A
:101CA0004169806900903A464946204600F0EDF8C7
:101CB00020B1206C042813D00320EEE7F5B2B8F170
:101CC000010F09D02168300A08613A46494620468A
:101CD00000F0DBF80028ECD1206805610020DCE78B
:101CE0002068016841F400710160D5E7020001003D
:101CF00070B516460D4604461AE02046FFF71CFF55
:101D000008B1012070BD681C12D025B1FEF70CFF90
:101D1000801BA8420CD954F8400F40F0200044F832
:101D2000100900202060202161732073032070BD02
:101D300020684069C0434007DFD4002070BD2DE912
:101D4000F0471E4690460D460446C1F30747DDF8AE
:101D5000209012E0701C10D02EB1FEF7E5FEA0EB33
:101D60000900B04209D9002044F8300F20216173E6
:101D7000A07320730320BDE8F0872068012F0AD0EC
:101D8000806925EA00000004000C06D000214145CE
:101D9000E0D00020EFE74069F3E70121F7E700001A
:101DA0002DE9F0479A4691460D46044600264FF02D
:101DB0002008C1F307472AE020684069C043400576
:101DC00012D42068016841F40071016021686FF449
:101DD0008060486104202064266384F83D8084F894
:101DE0003C600120BDE8F087B9F1FF3F0FD0B9F1A9
:101DF000000F05D0FEF798FEA0EB0A01494506D971
:101E000044F8306F84F80D8026730320EAE72068D9
:101E1000012F07D0D0F8180025EA00000004000CBC
:101E2000E0D0C9E74069F7E72DE9F0410025904689
:101E30000E460446202721E04069C043C0060CD46A
:101E400021686FF0100048612564256384F83D70B7
:101E500084F83C500120BDE8F0812EB1FEF764FE0D
:101E6000A0EB0800B04209D954F8400F40F0200020
:101E700044F80409677025700320ECE72068416985
:101E8000C9434906D8D40020E5E770B516460D468B
:101E900004461AE02046FFF74FFE08B1012070BD4E
:101EA000681C12D025B1FEF73FFE801BA8420CD95A
:101EB00054F8400F40F0200044F810090020206042
:101EC000202161732073032070BD20684069C043E6
:101ED0000006DFD4002070BDF0B5224887B0002492
:101EE000016841F010010160016801F010010591E5
:101EF000016841F001010160016801F001010591F3
:101F0000016841F002010160016801F002010591E0
:101F1000016841F0080101600068134E00F00800FC
:101F20000590002210213046FEF7F8FD0F4F0022E9
:101F300081213846FEF7F2FD102000900125CDE901
:101F40000154694630460394FEF70CFD8120009051
:101F5000CDE90154694638460394FEF703FD07B006
:101F6000F0BD00003038024000100240000C02407A
:101F70000E4810B50C4901600D49416000214FF435
:101F800080428160C0E9031241618161C1610162E7
:101F9000FEF7D0FD002805D0BDE81040422105A085
:101FA00000F0A5BF10BD000000580040CC0000208C
:101FB000A08601002E2E2F5372632F6932632E6389
:101FC0000000000010B5184886B01649016044F2C0
:101FD000A0110024C0E901144FF4FA71C0E9031400
:101FE0004461FFF792FB18B13F2110A000F07FFF82
:101FF0004FF48050009069460B48FFF7C2FB18B1C0
:1020000045210AA000F073FF049404A90648059432
:10201000FFF753FB002803D04C2104A000F067FF1A
:1020200006B010BD00000140100000202E2E2F53DE
:1020300072632F74696D2E63000000000D4810B5A7
:102040000B4901604FF461414160002181600C2225
:10205000C160C0E904128161C161FFF795FC0028ED
:1020600005D0BDE81040422103A000F040BF10BDE4
:10207000004C00404C0000202E2E2F5372632F7511
:10208000736172742E6300000D4810B50B49016036
:102090004FF461414160002181600C22C160C0E9C0
:1020A00004128161C161FFF76FFC002805D0BDE813
:1020B0001040552103A000F01ABF10BD004400409D
:1020C0008C0000202E2E2F5372632F757361727453
:1020D0002E63000000B5D1ED010A91ED100AD0ED9C
:1020E000001AD0ED012A80EE806AD1ED020A90ED4F
:1020F000023A90ED032A024680EE805AD1ED030A9F
:102100001C31B5EEC06AD1EC033AC0EE805AF1EE54
:1021100010FA09D1B5EEC05AF1EE10FA04D1F5EE7D
:10212000C05AF1EE10FA4DD026EE060A05EE050A69
:1021300005EEA50A02F0E6FA26EE006A65EE006AF0
:1021400025EE801AB6EE000A61EEA20A11EEA10A8F
:1021500062EE825A43EE020A41EEC35A02EE020ACE
:1021600026EE805A01EE605A21EE251A06EE401A3C
:1021700026EE200ADFED340A06EEE50AD2ED0B5A10
:1021800045EE205AC2ED0B5A92ED0C6A75EEA33A59
:1021900001EE206A82ED0C6AD2ED0D6A36EE044A39
:1021A00040EE206ADFED290AC2ED0D6AD2ED0E5A2B
:1021B00076EEA44A65EEA00A40EE853A00EE814A2A
:1021C00040EE804A9FED221A23EE810A64EE010A56
:1021D00024EE811A62EEC03A21EEA04A43EE603A44
:1021E00002EEC14A42EE413A02EE004A73EEA14AC3
:1021F00061EE803A34EE034A43EE013A21EE811A51
:1022000002EEA01A42EE603A03EE401A73EEA23AD2
:1022100024EEA40A03EEA30A71EE021A04EE040AE5
:1022200001EEA10A02F06EFA64EE800A23EE801A33
:1022300024EE002A21EE800A82ED022A82ED030AB2
:10224000C2EC020A00BD0000CDCCCC3C9A995940AA
:10225000CDCC4C3CFEE700001FB50A464FF47A7423
:10226000012303A98DE81A0010F85C1BFEF7E6FCB9
:10227000024908709DF80C0004B010BD0800002051
:1022800070B504463B21FFF7E7FF2B4D3C216870FA
:102290002046FFF7E1FF2870B5F900003D2100EE70
:1022A000100A2046B8EEC00A84ED010AFFF7D4FFF9
:1022B00068703E212046FFF7CFFF2870B5F9000077
:1022C0003F2100EE100A2046B8EEC00A84ED020A53
:1022D000FFF7C2FF687040212046FFF7BDFF28705E
:1022E000B5F90000D4ED010A00EE100A9FED131AB3
:1022F000B8EEC02A94ED040A70EEC00A00EE810A1E
:1023000084ED010AD4ED021AD4ED050A71EEE01A4B
:1023100041EE810AC4ED020AD4ED061A32EE612ABA
:1023200042EE011AC4ED031A84ED040AC4ED050A55
:10233000C4ED061A70BD00000A0000208E8E0E3F0C
:1023400070B504464321FFF787FF3B4D4421687079
:102350002046FFF781FF2870B5F90000452100EE07
:10236000100A2046B8EEC00A84ED0A0AFFF774FF8F
:10237000687046212046FFF76FFF2870B5F900000E
:10238000472100EE100A2046B8EEC00A84ED0B0A81
:10239000FFF762FF687048212046FFF75DFF287055
:1023A000B5F9000094ED0D1A00EE100A2348F8EE7E
:1023B000C00A94ED0A0A30EE410A84ED0A0A94ED4F
:1023C0000B1AD4ED0E1A31EE611A84ED0B1AD4ED0E
:1023D0000F1A70EEE10AF0EEC01A11EE901ADFED5E
:1023E000181AC4ED0C0A814201DCB0EE610AB0EEAD
:1023F000C12A12EE101A84ED0A0A814201DCB0EE05
:10240000611AB0EEE02A12EE101A84ED0B1A814226
:1024100001DCF0EE610ADFED0B1AC4ED0C0A20EED0
:10242000210A84ED070A21EE210A84ED080A20EE34
:10243000A10A84ED090A70BD0A0000200000F041E5
:10244000000000000B808B3A17B583B00A464FF4AA
:102450007A74012305A98DE81A0010F85C1BFEF7B9
:10246000EBFC06B010BD10B50446FFF709FF20468F
:10247000FFF766FF2046BDE8104000F0CDBC704776
:102480000907090E002806DA00F00F0000F1E0202D
:1024900080F8141D704700F1E02080F800147047A8
:1024A0007047704710B5FEF78BFDBDE81040FFF791
:1024B00000B9000030B5254893B00025016841F00F
:1024C00080510160006800F0805011902048016840
:1024D00041F4804101600068022400F480401190C2
:1024E0000120039010200490009406940820CDE968
:1024F0000750A820CDE9090404200B906846FEF798
:102500002DFF00B1FEE70CA90F2081E831004FF448
:10251000A0500F904FF48050109005210CA8FEF7AA
:10252000EFFD00B1FEE7FEF7A9FE4FF47A71B0FBB4
:10253000F1F0FFF7AAF80420FFF79AF800221146FD
:10254000501EFEF7ABFD13B030BD00004038024016
:10255000007000401048016841F4700101600F48AC
:10256000016841F0010101600C4A0021083211604C
:1025700002680B4B1A400260031D0A4A1A60026887
:1025800022F48022026005480C300160024958069E
:10259000803908607047000088ED00E00038024094
:1025A000FFFFF6FE10300024F0B50268234B244DE7
:1025B000244E254F254C4FF0804C984209D0604561
:1025C00007D0A84205D0B04203D0B84201D0A04203
:1025D00004D122F0700E4A6842EA0E0298421BD0E3
:1025E000604519D0A84217D0B04215D0B84213D0D8
:1025F000A04211D0164DA8420ED0164DA8420BD0C5
:10260000154DA84208D0154DA84205D0144DA8423A
:1026100002D0144DA84203D122F44075CA682A435F
:1026200002608A68C2620A688262984201D0A0424F
:1026300001D10969016301214161F0BD0000014040
:102640000004004000080040000C0040000401406D
:102650000040014000440140004801400018004093
:10266000001C00400020004010B5846842EA0322AC
:1026700024F47F440A432243826010BD826822F022
:1026800070020A4342F007018160704710B5036A87
:10269000046A24F001040462846924F0F00444EA2A
:1026A000021423F00A020A438461026210BD10B5CD
:1026B000036A23F0100303628369046A23F47043FE
:1026C00043EA023224F0A00343EA0111826101626D
:1026D00010BD00000148FFF7CFB800004C000020FB
:1026E00010B5806B0021C185C184FFF7C3F810BD10
:1026F0000168CA6822F49072CA6001684A6922F0CF
:1027000001024A61202180F83A10704710B590F814
:102710003A10222901D0022010BD8168B1F5805FF6
:1027200011D00169002901681FD0496801F07F03B9
:10273000816A4A1C82620B70C18D491E0904090C12
:10274000C18518D026E00269816A002A02685268B1
:1027500005D0D2B20A80816A491C8162ECE7C2F3DB
:1027600008020A80816A891CF7E74A68816A4B1C63
:1027700083620A70E0E70168CA6822F49072CA6056
:1027800001684A6922F001024A61202180F83A106A
:10279000FFF772F9002010BD2DE9F04104460068F2
:1027A000016921F44052E168114301612168C86860
:1027B00049F20C6290432369A268E5691A43636990
:1027C0002B431A430243CA602168486920F44072CF
:1027D000A06910434861E1696425B1F5004F97484D
:1027E000974A21684FF032083FD0914201D0814290
:1027F0007CD1FEF761FD00EBC00101EB00106168C8
:102800008900B0FBF1F6FEF757FD00EBC00101EBCC
:10281000001061688900B0FBF1F0B0FBF5F06FF0DB
:102820001801484306EB800108EB0110B0FBF5F0FE
:1028300000F0F006FEF740FD00EBC00101EB0010D8
:1028400061688900B0FBF1F0B0FBF5F006EB001613
:10285000FEF732FD00EBC00101EB0010616889005A
:10286000B0FBF1F7FEF728FDD2E0914201D08142A2
:102870003DD1FEF721FD00EBC00101EB00106168C6
:102880004900B0FBF1F0B0FBF5F00601FEF714FDD6
:1028900000EBC00101EB001061684900B0FBF1F7EB
:1028A000FEF70AFD00EBC00101EB00106168490072
:1028B000B0FBF1F0B0FBF5F06FF01801484307EB07
:1028C000800108EBC100B0FBF5F000F0F80006EB6A
:1028D0004006FEF7F1FC00EBC00101EB001061685F
:1028E0004900B0FBF1F7FEF7E7FC3CE055E0FEF7EE
:1028F000CBFC00EBC00101EB001061684900B0FBAC
:10290000F1F0B0FBF5F00601FEF7BEFC00EBC001F4
:1029100001EB001061684900B0FBF1F7FEF7B4FC71
:1029200000EBC00101EB001061684900B0FBF1F061
:10293000B0FBF5F06FF01801484307EB800108EB9E
:10294000C100B0FBF5F000F0F80006EB4006FEF722
:102950009BFC00EBC00101EB001061684900B0FB7B
:10296000F1F7FEF791FC00EBC00101EB001061688C
:102970004900B0FBF1F0B0FBF5F06FF018014843EF
:1029800007EB800108EBC100B0FBF5F000F0070099
:10299000216830448860BDE8F081FEF775FC00EBEB
:1029A000C00101EB001061688900B0FBF1F6FEF791
:1029B0006BFC00EBC00101EB001061688900B0FB0B
:1029C000F1F0B0FBF5F06FF01801484306EB800121
:1029D00008EB0110B0FBF5F000F0F006FEF754FC38
:1029E00000EBC00101EB001061688900B0FBF1F061
:1029F000B0FBF5F006EB0016FEF746FC00EBC0015D
:102A000001EB001061688900B0FBF1F7FEF73CFCB8
:102A100000EBC00101EB001061688900B0FBF1F030
:102A2000B0FBF5F06FF01801484307EB800108EBAD
:102A30000110B0FBF5F000F00F00A9E70014014011
:102A40000010014090F83910212901D00220704770
:102A50008168B1F5805F016A0BD04A1C026202688E
:102A600009785160C18C491E0904090CC1840ED03B
:102A700017E009880268C1F3080151600169002963
:102A8000016A02D0491C0162ECE7891CFBE701687E
:102A9000CA6822F08002CA600068C16841F0400143
:102AA000C160002070472DE9F041984617460E4658
:102AB0000446069D1DE0681C1BD02DB1FEF734F8BE
:102AC000A0EB0800A84214D92068C16821F4D07195
:102AD000C1602068416921F001014161202084F832
:102AE000390084F83A00002084F838000320BDE85B
:102AF000F0812068006836EA000004D00020B84267
:102B0000D9D00020F3E70120F9E7000082B20123C9
:102B100001490248FEF7B1BF200100208C000020CF
:102B200070B504462DED0C8BB7EE009AB0EE008A1E
:102B3000F0EE498A0D46B0EE680A90ED01BAD0ED8C
:102B4000029A6BEE0B0A49EEA90A00EEC80A10EED3
:102B5000100AFDF7CFFC94ED000AD4ED030A41EC16
:102B60001A0B20EE0B0A09EEA00A20EE080A10EE5E
:102B7000100AFDF7BFFC41EC100BB0EE4A1AF0EE64
:102B80006A1A00F0E9FC9FED99AB51EC100B53EC85
:102B90001A2BFDF7CEFB9FED97BB53EC1B2BFDF7DC
:102BA0003AFCFDF7BAFC606194ED000AD4ED020A2C
:102BB00094ED011A20EE200AD4ED030A00EEC10ABA
:102BC00020EE080A10EE100AFDF794FC41EC100B01
:102BD00000F0A6F953EC1A2B51EC100BFDF7A9FBF2
:102BE00053EC1B2BFDF717FCFDF797FC206194EDD0
:102BF00002DAD4ED039A2DEE0D0A09EEA90A40EE91
:102C0000488A18EE900AFDF775FC94ED000AD4EDA1
:102C1000010A41EC1C0B20EE290A00EE8D0A20EE81
:102C2000080A10EE100AFDF765FC41EC100BB0EE3F
:102C30004C1AF0EE6C1A00F08FFC53EC1A2B51EC8E
:102C4000100BFDF776FB53EC1B2BFDF7E4FBFDF7B8
:102C500064FC00EE100A694984ED060AD4ED070A07
:102C600070EEC00A10EE900A884205D994ED0A1A57
:102C700031EE491A84ED0A1A10EE900A6049884232
:102C800005DDD4ED0A0A70EE890AC4ED0A0A84ED66
:102C9000070AD4ED0A0A9FED5B1A2946204600EE8A
:102CA000810A84ED060A94ED040A84ED090A94ED84
:102CB000050A84ED080AFDF7B3FDD4ED010AD4ED51
:102CC000031A94ED000A94ED021A60EEA12A95ED24
:102CD000013AD5ED023A95ED035AB0EE622A4C491D
:102CE00000EE412A22EE082A22EE034A21EE213A82
:102CF000B0EE432A00EE202A22EE082A02EE234AF2
:102D000020EE002AF6EE003AF0EE424A41EEA14AE9
:102D100074EEE34A64EE884A04EE854A84ED154A6F
:102D2000D5ED104A34EE644A84EE245A9FED364ABB
:102D3000DFED364A45EE044AC4ED154AF0EEE44AAA
:102D400014EE900A884203DADFED324AC4ED154AE8
:102D500060EE814AD5ED015A00EE603A95ED026AC7
:102D6000B0EE645A40EE614A00EE215A40EE012A6C
:102D700023EE083A64EE881A25EE085A22EE880AF5
:102D800025EE255AF0EE425A00EEA02A41EE015AF5
:102D900072EE630A75EEE35A60EE880A65EE885AB1
:102DA00005EE865AD5ED035A03EE255AD5ED105A95
:102DB00085EE253A23EE043A84ED143A95ED012A86
:102DC00095ED031A60EE820A95ED022A41EE820A21
:102DD00040EE010A95ED101A80EE810A20EE040AF9
:102DE00084ED130ABDEC0C8B70BD000000000000E8
:102DF00000806640000000C0CA2109400000A0C356
:102E00000000A0430000B443CDCC1C41295C8F3DA1
:102E10000AD7A33C0000000010B590ED010AD0EDE8
:102E2000020A044620EE000A00EEA00AD0ED030AD2
:102E300000EEA00A10EE100AFDF75CFB41EC100B4F
:102E400000F0E6FC51EC100BFDF767FB00EE100AFA
:102E500084ED110AD4ED120A94ED141A70EE600A92
:102E600070EE810A9FED151A60EE810AC4ED130A17
:102E7000C4ED140AF0EEE00A10EE900A84ED120A96
:102E8000B0F1814F09DAD4ED100ADFED0D1A30EE02
:102E9000601A41EE210AC4ED100A94ED101AC0EE3A
:102EA000010AB7EE000AC4ED110A30EE600AB0EE76
:102EB000C00AB0EEC00A84ED150A10BDA7371D3F49
:102EC000826B1C3F70B505460C460846FFF7CBFAEF
:102ED0002146284601F03AFD21462846FFF7FAF838
:102EE00021462846BDE87040FFF71ABEFEE7FEE720
:102EF00003B401984100009850EAC12018BF042093
:102F00004A0D18BF40F0010040F2FF72B2EB515F72
:102F100008BF40F00200012808BF052002B070473A
:102F200070B5C1482DED020B2DED0E8B82B0119DB9
:102F300025F000449FEDBEDB9FEDBFEB84423EDBFE
:102F4000A4F140511098A1F17F6108430FD0BC4813
:102F5000844202DC28D1109830B39DED100B02B0F2
:102F6000BDEC0E8B02B0BDE8704001F061BA9DED82
:102F7000100B53EC1D2B51EC100BFDF7DAF99DED06
:102F8000100B41EC180B53EC1E2B51EC100BFDF702
:102F9000D0F953EC182BFDF725F941EC100B02B0DA
:102FA000BDEC0E8B02B070BD012001F085FA02B0BD
:102FB000BDEC0E8B02B0BDE8704001F04DBAA148E7
:102FC0009FEDA18B844256DA9DED100BB4F1795F31
:102FD0000ADA51EC100BFFF78BFF042808BF01F051
:102FE0004BFA9DED100BDAE753EC102B51EC100B64
:102FF000FDF79FF941EC190B95480621B0EE490AFF
:10300000F0EE690A784400F057FF53EC192B51ECAD
:10301000100BFDF78EF941EC1A0B8E48B0EE490A01
:10302000F0EE690A0421784400F046FF53EC192BB6
:1030300051EC100BFDF77DF953EC182BFDF7D2F88E
:1030400041EC100B51EC1A0B53EC102BFDF7E3F98C
:10305000CDE900019DED000B53EC102B9DED100B05
:1030600051EC100BFDF765F99DED101B53EC112B86
:10307000FDF7B8F8D2E09DED100B51EC100B01F00C
:1030800029FA53EC182BFDF751F99FED730BCDE99D
:10309000000153EC102B9DED000B51EC100BFDF7D4
:1030A00048F941EC190B6E480621B0EE490AF0EEE2
:1030B000690A784400F000FF53EC192B51EC100B17
:1030C000FDF737F941EC1B0B6648B0EE490AF0EE0C
:1030D000690A0421784400F0EFFE53EC192B51ECFF
:1030E000100BFDF726F953EC182BFDF77BF841EC9C
:1030F0001C0B51EC190B01F0F2FB41EC180B5A4878
:103100009FED5BABA04222DC53EC1C2B51EC1B0B64
:10311000FDF781F9CDE900019DED000B51EC180B95
:1031200053EC102BFDF705F953EC182BFDF75AF86B
:1031300053EC1A2BFDF7FDF853EC1D2BFDF7F3F8BC
:1031400053EC1E2BFDF7F2F841EC100B5FE08DED18
:10315000008B002000909DED000B51EC180B53EC00
:10316000102BFDF73FF89DED000B41EC1E0B53ECCF
:10317000102B51EC100BFDF7DCF853EC192BFDF77D
:10318000D5F853EC1E2BFDF746F941EC190B53EC27
:103190001C2B51EC1B0BFDF73EF941EC1B0B53ECC8
:1031A0001A2B51EC190BFDF7C4F853EC1D2BFDF74E
:1031B000BDF841EC190B53EC1A2B51EC180BFDF731
:1031C000B8F853EC1B2BFDF7B4F853EC192BFDF7B3
:1031D000AAF89DED000B41EC180B53EC1A2B51ECA7
:1031E000100BFDF7A6F89FED249B53EC192BFDF770
:1031F0009DF841EC100B51EC180B53EC102BFDF724
:1032000092F853EC192BFDF791F841EC100B002DBF
:103210003FF7C5AE51EC100B81F0004141EC100BB3
:10322000BDE60000000000000000F03F00000000CC
:10323000075C143326A6913C182D4454FB21F93F1A
:103240000000F07F0000E03F000000000000F03FC1
:10325000A01A0000AE1A0000000000000000E03FCD
:10326000F2190000001A00003333EF3F00000000A5
:103270000000000000000040182D4454FB21E93FED
:1032800070B59B482DED020B2DED068B079D25F0AB
:103290000044A04218DC9748844202DC0AD1069818
:1032A00040B19DED060BBDEC068B02B0BDE8704051
:1032B00001F0BEB8002DCCBF9FED8F0B9FED900BA2
:1032C000BDEC068B02B070BD8F48A04215DD8F4863
:1032D000A042D8BF4FF0FF3458DD9DED060B51ECF6
:1032E000100BFFF705FE042808BF01F0C5F89DED9F
:1032F000060BBDEC068B02B070BD9DED060B51ECCC
:10330000100B01F0E7F8CDE9060181489FED828BB3
:10331000A0423CDD8248A0421FDD00249FED82AB2D
:103320009DED060B53EC1A2B51EC100BFCF75AFFDA
:103330009DED060B41EC190B53EC1A2B51EC100BC5
:10334000FCF7F7FF53EC182BFCF7EDFF53EC192BB0
:10335000FDF761F8CDE9060149E09DED060B01247A
:1033600053EC182B51EC100BFCF73CFF9DED060BBA
:1033700041EC190B53EC182B51EC100BFCF7D3FF5D
:1033800053EC192BFDF747F8CDE906012FE068480B
:10339000A0421FDD02249FED689B9DED060B53ECC0
:1033A000192B51EC100BFCF7C4FF53EC182BFCF756
:1033B00019FF9DED060B41EC180B53EC192B51EC4A
:1033C000100BFCF7B0FF53EC182BFDF724F8CDE9F8
:1033D00006010CE09DED060B032453EC102B9FED32
:1033E000580B51EC100BFDF716F8CDE906019DEDD9
:1033F000060B53EC102B51EC100BFCF79AFF41EC31
:10340000180B53EC182BFCF794FF41EC190B4E48AA
:103410000621B0EE490AF0EE690A784400F04CFD4E
:1034200053EC182B51EC100BFCF783FF41EC180BFD
:103430004648B0EE490AF0EE690A0521784400F0EA
:103440003BFD53EC192B51EC100BFCF772FF41ECD8
:10345000100B51EC180B53EC102B002C0EDAFCF770
:10346000C1FE9DED061B53EC112BFCF762FF9DED99
:10347000061B53EC112BFCF759FF35E0FCF7B2FEAD
:103480009DED061B53EC112BFCF753FF41EC100B89
:103490002F48784400EBC40090ED001B51EC100B5A
:1034A00053EC112BFCF73FFF9DED061B53EC112B4A
:1034B000FCF739FF41EC100B2648784400EBC400C0
:1034C00090ED001B51EC100B53EC112BFCF72EFF71
:1034D00041EC100B002DA2BFBDEC068B02B070BDFD
:1034E00051EC100B81F0004141EC100B01E70000A2
:1034F000000010440000F07F182D4454FB21F93FD8
:10350000182D4454FB21F9BF0000DC3F0000203E91
:103510000000F33F00000000000000000000F03F4A
:103520000000E63F00000000000000000000004036
:103530000080034000000000000000000000F83F91
:10354000000000000000F0BF42170000F816000065
:10355000821600003A16000070B56B4E2DED040B7C
:103560002DED028B82B0DDF81CC0DDE905235C4245
:103570002CF000411C4341EAD474049D22F0004029
:10358000B44205D86C422C4340EAD474B4420BD9FF
:103590009DED061B9DED040B02B0BDEC028B04B04B
:1035A000BDE8704000F04EBFACF14054A4F17F6420
:1035B0001C430BD0022404EAAC7444EAD2740543E1
:1035C0009FED538B9FED542B07D015E09DED040B21
:1035D00051EC100B00F076FF42E0002C11BF012CE3
:1035E0009DED040B02B0BDEC028B04BF04B070BDB6
:1035F000022C38D0032C3BD00B439FED491B9FED91
:103600004A0B0AD0B14218D1B04209D121F0804111
:1036100020F08040079105900FE0002A15DA10E0B5
:10362000434B7B44002C08BF93ED000B0DD0012CC5
:1036300010D0022C17D0032C1AD0B0421DD1002A72
:1036400003DAB0EE410AF0EE610A02B0BDEC028B83
:1036500004B070BD93ED000B51EC100B81F00041F4
:1036600041EC100BF1E7B0EE480AF0EE680AECE727
:10367000B0EE420AF0EE620AE7E7401A00153C2875
:10368000C8BF8DED000B19DCBCF1000FBEBF10F1FF
:103690003C0F9FED290B8DED000B0FDB9DED060B15
:1036A00053EC102B9DED040B51EC100BFCF7B3FE0B
:1036B00000F010FF00F006FFCDE90001002C08BF6C
:1036C0009DED000BC1D0012C10D0022C9FED1C0BE6
:1036D00053EC102B9DED000B51EC100B0DD0FCF7B3
:1036E00022FE53EC182BFCF71EFEB9E7019880F080
:1036F000004001909DED000BA7E7FCF714FE53EC92
:10370000182BFCF713FEABE70000F07F0000000071
:10371000182D4454FB210940182D4454FB2109C0A5
:10372000182D4454FB21F9BF182D4454FB21F93FB7
:103730009A150000000000000000000000000000DA
:10374000075C143326A6A13C10B52F499FED2C1B16
:103750002DED020B84B0059820F000408842DCBFBC
:1037600000209DED040B32DD2849884209D10498E0
:1037700040B94FF0010000F09FFE00F06DFE06B072
:1037800010BD05DB9DED040B00F052FE06B010BD30
:1037900068469DED040B00F0BBF810F0030011D05B
:1037A000012818D09DED021B9DED000B02281AD0B8
:1037B00000F0CAFA51EC100B81F0004106B041EC68
:1037C000100B10BD9DED021B9DED000B012000F0C4
:1037D000EFFB06B010BD9DED021B9DED000B00F050
:1037E000B3FA06B010BD012000F0E2FB51EC100B63
:1037F00081F0004106B041EC100B10BD000000004C
:103800000000000000000000FB21E93F0000F07F05
:1038100000B52DED048BB0EE409AF0EE609A83B0C7
:1038200051EC190BFCF74AFF41EC180B18EE100A8B
:1038300018EE901A8DED008B002818BF0120084368
:1038400020F00040C0F17F6000F1E040C00F14D0D4
:1038500019EE101A19EE900A8DED009B002918BF81
:103860000121084320F00040C0F17F6000F1E040FA
:10387000C00F04BF012000F01FFEB0EE480A03B0E5
:10388000F0EE680ABDEC048B00BD000000000000F3
:1038900010B51D499FED1A1B2DED020B84B0059844
:1038A00020F000408842DCBF01209DED040B21DDAB
:1038B0001649884209D1049840B94FF0010000F040
:1038C000FBFD00F0C9FD06B010BD05DB9DED040B4E
:1038D00000F0AEFD06B010BD68469DED040B00F093
:1038E00017F800F001000121A1EB40009DED021B43
:1038F0009DED000B00F0F4FB06B010BD00000000D1
:103900000000000000000000FB21E93F0000F07F04
:103910002DE9F14F04462DED020B2DED088B8AB0F9
:103920009FEDE70B80ED020B139EE74826F0004564
:1039300085420ADC9DED120B002084ED000B0AB0DD
:10394000BDEC088B03B0BDE8F08FE0489FEDE0AB25
:103950009FEDE1BBA84247DDE14F9FEDE39B9FED6B
:10396000E48B9DED120B53EC1A2B51EC100B002E37
:103970001CDDFCF7D8FC41EC100BBD4208D053EC29
:103980001B2B51EC100BFCF7CEFCC4E900010BE043
:1039900053EC192B51EC100BFCF7C5FC53EC182B16
:1039A000FCF7C1FCC4E900010120C8E7FCF71AFCE0
:1039B00041EC100BBD4208D053EC1B2B51EC100B0B
:1039C000FCF710FCC4E900010BE053EC192B51EC9F
:1039D000100BFCF707FC53EC182BFCF703FCC4E9B5
:1039E00000014FF0FF30AAE7C348A84279DB9DED04
:1039F000120B51EC100B00F06DFD41EC180B9FED1C
:103A0000C00B53EC102BFCF794FC9FEDBF1B53EC49
:103A1000112BFCF7E7FBFCF7E3FE0746FCF7C2FEC1
:103A200041EC190B53EC1A2BFCF783FC53EC182BCD
:103A3000FCF77CFC41EC180B53EC1B2B51EC190BE5
:103A4000FCF777FCDFF8C8A241EC100B4FEA1558E1
:103A50000125FA4453EC102B51EC180BFCF763FCD6
:103A6000032DC4E900013DD0C1F30A5005EB451117
:103A7000A8EB00001139814234DA0AEB051BB0EEE5
:103A800048AA9BED000BF0EE68AA53EC102B51EC0A
:103A9000190BFCF74EFC41EC1B0B51EC1A0B53ECD1
:103AA0001B2BFCF740FC41EC180B51EC1A0B53ECB0
:103AB000182BFCF738FC53EC1B2BFCF734FC9BED6C
:103AC000020B41EC1A0B53EC102B51EC190BFCF7C9
:103AD00030FC53EC1A2BFCF726FC41EC100B6D1C50
:103AE000B8E70EE0002EA8BF3846BFF628AF94ED29
:103AF000000B51EC100B81F00041C4E90001784249
:103B00001DE7C6F3130040F4801EC6F30A50A0F26E
:103B1000F530471100F01F05C5F12000DDF848B071
:103B200008900020069007900520EC467949002D6A
:103B300007EB0002794408BF51F8221009D051F870
:103B4000223001EB8201AB404A68089922FA01F168
:103B50001943A1FB0E26A1FB0B131A449A4234BF52
:103B60000123002303EB06080CEB8003D3E901A635
:103B70000E448E4234BF0121002192448A4411B187
:103B8000924502D903E0924501D2012100E00021D3
:103B9000C3E901A641444CF82010011EA0F1010028
:103BA000C4DC029800F10050850F0298DDE903673C
:103BB0008000DDF81480FCF7F5FD41EC1A0B30466F
:103BC000FCF701FE9FED541B53EC112BFCF7B1FBEE
:103BD00041EC1B0B3846FCF7F6FD9FED511B53ECF7
:103BE000112BFCF7A6FB41EC180B4046FCF7EBFD54
:103BF0009FED4D1B53EC112BFCF79BFB41EC190B7C
:103C000051EC180B53EC192BFCF7ECFA53EC1B2B73
:103C1000FCF7E8FA53EC1A2BFCF7E4FACDE90801BB
:103C2000002008909DED080B53EC1A2B51EC100B63
:103C3000FCF779FB53EC1B2BFCF775FB53EC182BB3
:103C4000FCF771FB53EC192BFCF770FB9FED381B55
:103C500053EC112BFCF76DFB9FED370B41EC180B70
:103C600053EC102B9DED080B51EC100BFCF761FB96
:103C700053EC182BFCF7B6FA9FED310B41EC180B07
:103C800053EC102B9DED080B51EC100BFCF751FB86
:103C900053EC182BFCF7A6FA41EC100B139810F01C
:103CA000004F06D06D4251EC100B81F0004141EC09
:103CB000100B284684ED000B41E6000000000000D8
:103CC0000000000000000000FB21E93F7CD9024019
:103CD00000004054FB21F93F3163621A61B4D03DCA
:103CE000FB21F93F000000000000601A61B4D03DE4
:103CF0007370032E8A19A33BFB2139410000000099
:103D000083C8C96D305FE43F000000000000E03F61
:103D100072110000C0100000000000000000103E02
:103D2000000000000000103C000000000000103AFD
:103D3000182D4454FB21F93D3326A611460B113CA6
:103D400000000054FB21F93D10B52DED040B2DEDC5
:103D5000088B82B0B0EE419AF0EE619A0B9820F099
:103D600000449FED4BABB4F1795F11DA9DED0A0B86
:103D700051EC100BFCF734FD002801BFB0EE4A0AED
:103D8000F0EE6A0A02B0BDEC088B04BF04B010BDAF
:103D90009DED0A0B53EC102B51EC100BFCF7C9FAFC
:103DA00041EC180B3C480621B0EE480AF0EE680AD8
:103DB000784400F081F853EC182B51EC100BFCF711
:103DC000B8FA9DED0A0B41EC1B0B53EC192B51EC8F
:103DD000100BFCF7AEFA41EC190B53EC1B2B51EC1A
:103DE000180BFCF7A6FA53EC192BFCF79CFA9FED85
:103DF0002C0B41EC190B53EC102B51EC180BFCF76E
:103E000098FA41EC100B2848844210DA53EC192B35
:103E100051EC100BFCF787FA53EC1A2BFCF786FADF
:103E200041EC100B02B0BDEC088B04B010BD1F4874
:103E3000A042BCBF9FED1E1B8DED001B06DBA4F551
:103E400000100190002000909DED001B51EC100B24
:103E500053EC112BFCF767FA9DED000B41EC180BAE
:103E600053EC102B51EC1A0BFCF75DFA41EC1A0BDA
:103E700053EC192B51EC180BFCF755FA53EC1A2B99
:103E8000FCF754FA41EC100BCCE7000000000000F6
:103E9000000000000000F03FDC0D0000000000000A
:103EA000000000000000E03F3333D33F0000E93F53
:103EB000000000000000D23F70B504462DED028BDB
:103EC0004D1E00EBC500B0EE408AF0EE608A90ED2A
:103ED000000B35F0060017D053EC182B51EC100BEB
:103EE000FCF727FA41EC100B6D1E04EBC50090EDBA
:103EF000001B51EC100B53EC112BFCF773F941EC48
:103F0000100B35F00600E7D1022D36D0042D1CD061
:103F1000062D1CBFBDEC028B70BD53EC182B51EC71
:103F2000100BFCF706FA94ED0A1B53EC112BFCF76F
:103F300059F953EC182BFCF7FCF994ED081B53ECE2
:103F4000112BFCF74FF941EC100B53EC182B51ECF3
:103F5000100BFCF7EEF994ED061B53EC112BFCF75C
:103F600041F953EC182BFCF7E4F994ED040B53ECF6
:103F7000102BFCF737F941EC100B53EC182B51ECDC
:103F8000100BFCF7D6F994ED021B53EC112BFCF748
:103F900029F953EC182BFCF7CCF994ED001B53ECEA
:103FA000112BFCF71FF9BDEC028B41EC100B70BD1F
:103FB00031B504462DED040B2DED0A8BB0EE41BA60
:103FC000F0EE61BA0B989DED0A0B20F00040B0F1C5
:103FD000795F0DDA51EC100BFEF78AFF042808BF59
:103FE00000F04AFA9DED0A0BBDEC0A8B05B030BD1E
:103FF00053EC102B51EC100BFCF79BF941EC180B18
:104000009DED0A0B53EC182B51EC100BFCF791F9BA
:1040100041EC190B2C48B0EE480AF0EE680A052175
:104020007844FFF749FF9FED2ACBB0EE40AAF0EEAF
:1040300060AA9CB353EC1C2B51EC190BFCF779F9DB
:1040400041EC1C0B53EC1A2B51EC190BFCF771F9DA
:104050009FED210B41EC190B53EC102B51EC1B0B7A
:10406000FCF767F953EC192BFCF75DF953EC182BAF
:10407000FCF75FF953EC1B2BFCF755F953EC1C2BA9
:10408000FCF751F99DED0A1B53EC112BFCF74EF98F
:10409000BDEC0A8B05B041EC100B30BDFFE753ECD3
:1040A0001A2B51EC180BFCF744F953EC1C2BFCF7C2
:1040B00099F853EC192BFCF73CF99DED0A1B53ECD6
:1040C000112BFCF78FF8E3E76C0C000000000000F8
:1040D000495555555555C5BF000000000000E03F4B
:1040E000F1B506462DED040BBD482DED0C8B8AB0C5
:1040F000B0EE418AF0EE618A179D25F000449FEDF5
:10410000BABB9FEDBBCB844208DA9DED160B51EC98
:10411000100BFCF765FB002800F0E980B64FA742C2
:1041200031DC002D0DDA9DED160B51EC100B81F0FA
:104130000041CDE9160151EC180B81F0004141EC32
:10414000180B9FEDAF0B53EC102B9DED160B51ECA4
:10415000100BFCF7EBF853EC182B9FEDAB0BCDE9F4
:10416000040151EC100BFCF7DEF841EC100B53ECA2
:10417000102B9DED040B51EC100BFCF733F89FED69
:10418000A48BCDE916019DED160B53EC102B51ECD1
:10419000100BFCF7CEF8CDE904019DED040B53ECB8
:1041A000102B51EC100BFCF7C4F841EC190B9A489A
:1041B0000621B0EE490AF0EE690A7844FFF77CFE6A
:1041C0009648B0EE40DAF0EE60DAB0EE490AF0EE72
:1041D000690A06217844FFF76FFE9DED041B51EC40
:1041E000100B53EC112BFCF7A4F89DED040B41ECE4
:1041F0001A0B53EC102B9DED160B51EC100BFCF72A
:1042000098F841EC190B53EC1A2B51EC1D0BFBF7F2
:10421000E9FF53EC192BFCF78CF853EC182BFBF748
:10422000E1FF9DED041B53EC112BFCF782F853ECDE
:10423000182BFBF7D7FF41EC180B9FED790B51ECD6
:10424000190B53EC102BFCF774F853EC182BFBF7FD
:10425000C9FF41EC190B9DED160B53EC192B51ECDA
:10426000100BFBF7BFFF41EC180BA74269DC30468F
:10427000FCF798FA41EC1A0B51EC180B53EC1A2B83
:10428000FBF7B0FF41EC1B0B53EC182B51EC180B58
:10429000FCF74FF853EC1B2BFCF7BDF853EC192B34
:1042A000FCF741F89DED161B53EC112BFCF73EF883
:1042B0009FED5D1B53EC112BFCF73BF853EC1A2BD5
:1042C000FCF734F841EC180B022000EAA570C0F1AD
:1042D0000100FCF767FA53EC182BFCF72AF800BF33
:1042E00041EC100B0AB0BDEC0C8B05B0F0BD711C9D
:1042F0001698214308430CD09DED160B012E1CBFD0
:1043000053EC102B51EC1C0B10D000BFFCF783F8C2
:10431000E6E79DED160B51EC100B00F0DBF841ECDD
:10432000100B51EC1B0B53EC102BEFE751EC100B67
:10433000FEF7DEFD042808BF00F09EF89DED160B89
:10434000D0E7012E04BFB0EE480AF0EE680AC9D0EB
:104350008DED048B002404949DED040B53EC102B85
:104360009DED160B51EC100BFBF7E0FF53EC192BF6
:10437000FBF7DCFF41EC190B53EC182B51EC1C0B39
:10438000FCF749F841EC180B8DED008B00949DED86
:10439000040B53EC102B9DED000B51EC100BFBF7B5
:1043A000C8FF53EC1B2BFBF71DFF9DED000B41ECF1
:1043B0001A0B53EC192B51EC100BFBF7BAFF53EC13
:1043C0001A2BFBF70FFF53EC182BFBF7B2FF9DEDF9
:1043D000001B53EC112BFBF705FF81E700000000E9
:1043E0000000303E00000000000000000000F03F30
:1043F000000000000000F0BF2894E53F000000002E
:10440000182D4454FB21E93F075C143326A6813C58
:104410000000000000000000FA0A0000100B00007D
:10442000635555555555D53F00000000000000402C
:1044300010B553EC102B51EC100BFBF7D3FE41ECF5
:10444000100B10BD10B553EC112B51EC100BFBF7FA
:10445000C9FE41EC100B10BD9FED050B10B553ECE0
:10446000102B51EC100BFBF7D6FF41EC100B10BDDD
:1044700000000000000000009FED050B10B553EC9C
:10448000102B51EC100BFBF754FF41EC100B10BD3F
:10449000000000000000001002E008C8121F08C160
:1044A000002AFAD170477047002001E001C1121FB5
:1044B000002AFBD1704700000149086070470000E6
:1044C0000C00002010B541EC100BFEF7D9FE51ECAA
:1044D000100B10BD82B0CDE9000121F00040019029
:1044E0009DED000B02B051EC100B704710B5044667
:1044F0002DED028BB0EE408A012210210C48FCF712
:104500000DFB9FED0C0ADFED0C0A204628EE000A99
:10451000BDEC028BBDE8104080EE201ABDEEC10A52
:1045200010EE101ACAB2C1F3072100F0ADB90000B5
:104530000010024000C07F440000964370B5002583
:104540002DED048B044601293FD14FF47A76304695
:10455000FCF7F9F99FED1E0A84ED0D0A84ED0E0AB1
:1045600084ED0F0A2046FDF7EBFE94ED0A0A6D1C60
:10457000642D30EE099A94ED0B0A30EE088A94ED22
:104580000C0A70EE288AEDDB30469FED120AC9EE68
:10459000000A88EE001AC8EE801ABDEEE00AB8EEF6
:1045A000C00A84ED0D0ABDEEC10AB8EEC00A84ED62
:1045B0000E0ABDEEE10AB8EEC00A84ED0F0ABDECAA
:1045C000048BBDE87040FCF7BEB9BDEC048B70BD38
:1045D000000000000000C84270B50D4D012280218E
:1045E0002846FCF79BFA012211462846FCF796FA6A
:1045F000002480212846FCF78DFA01212846FCF78B
:1046000089FA6420FCF79FF9641C062CF1DB70BD6D
:10461000000C02402DE9F041164604461F460D46A7
:104620002A225C30FBF7CCFD688DA4F88600E86A8E
:10463000C4F88800286BC4F88C00092205F1340105
:1046400004F19000FBF7BCFD95F83D0084F899005B
:1046500095F83E0084F89A00286CC4F89C00686CB9
:10466000C4F8A000A86CC4F8A400E86CC4F8A800C2
:10467000286DC4F8AC00267080226B212046FDF71F
:10468000E3FE0520FCF75FF9002219212046FDF723
:10469000DBFE0520FCF757F903226B212046FDF7CE
:1046A000D3FE0520FCF74FF918221B212046FDF709
:1046B000CBFE0520FCF747F900226A212046FDF7D2
:1046C000C3FE0520FCF73FF9022237212046FDF703
:1046D000BBFE0520FCF737F904221A212046FDF71E
:1046E000B3FE0520FCF72FF918221C212046FDF708
:1046F000ABFE0520FCF727F9F9B22046BDE8F041F2
:10470000FFF71CBF10EE100AF6EE000A074960EE34
:10471000200AA1EB600000EE100A20EE801AF7EEEE
:10472000080A41EE400A20EE800A7047DF59375FE1
:104730002DED028BFCF74CFCFDF7BCFEFDF7CCFB2E
:10474000FDF716FCFDF77AFCFDF79EFCFDF73AFC41
:10475000314D3248B7EE000A85ED000A80ED000ABF
:1047600030489FED2F0A00F13402F0EE000ABAEE55
:10477000001A2D49002382EC030A01F1340282EC75
:10478000030AD0229FED290A80ED100A81ED100A5C
:104790002749FFF73FFF0023D22225492248FFF790
:1047A00039FF2448FCF7E0FFFFF716FF9FED220AD0
:1047B0000220FFF79BFE0127DFF880809FED208A13
:1047C000DFED208A204C002601231A4639461F4877
:1047D000FDF753F90520FCF7B6F86662114800F0C2
:1047E00037F838B10F490C48FEF76CFB0121404601
:1047F000FCF790F995ED040A012038EE400AFFF726
:1048000075FE95ED050A022038EEC00AFFF76EFE30
:10481000606AFA28FCD9D7E784010020E40100206F
:104820000000000044020020F40200200000E144E7
:10483000CC000020100000200000F042000C0240DC
:104840000000744300001443000001408C0000206D
:104850001FB500218DF80C104FF47A73012203A9C3
:104860008DE80E00134610F85C1B7522FCF7E6F984
:104870009DF80C0004B010BD024908700120FEF73D
:1048800045B900002001002070B5064614460D46CB
:104890000120FCF758F8FF20FFF7EEFFFF20FFF79D
:1048A000EBFF3046FFF7E8FF0520FFF7E5FF0320A9
:1048B000FFF7E2FF1E20FFF7DFFF2046FFF7DCFFD8
:1048C0002846FFF7D9FF301928442630C043C0B22C
:1048D000FFF7D2FFBDE870400120FCF734B800B507
:1048E0002DED048B83B041EC190BFBF7E7FE41EC97
:1048F000180B18EE100A18EE901A8DED008B002898
:1049000018BF0120084320F00040C0F17F6000F193
:10491000E040C00F14D019EE101A19EE900A8DED78
:10492000009B002918BF0121084320F00040C0F17E
:104930007F6000F1E040C00F04BF0120FFF7BCFD25
:1049400051EC180B03B0BDEC048B00BD70B50546EF
:104950002DED048B0C4691ED010AD1ED020A20EEFB
:10496000000A00EEA00AD1ED030A00EEA00A10EE44
:10497000100AFBF7BFFD41EC100BFEF749FF51ECAD
:10498000100BFBF7CAFD00EE100A94ED101AC0EEF2
:10499000010AB7EE000AC4ED110A30EE600A94ED88
:1049A000168AB0EEC00AB0EEC00A30EE480A10EE29
:1049B000100AFBF79FFD9FED251B53EC112BFBF716
:1049C000B2FC9FED241B53EC112BFBF7B2FC41EC26
:1049D000190B18EE100AFBF78DFD53EC192BFBF7A2
:1049E00001FCFBF79AFD1D496065A065884202DA6B
:1049F0009FED1B0A04E01B49884206DA9FED1A0A64
:104A000085ED0E0ABDEC048B70BD1849884202DAB0
:104A1000B5EE000AF4E71649884202DA9FED150A5E
:104A2000EEE71549884202DA9FED140AE8E7B0F193
:104A30007C5F02DA9FED120AE2E71249884202DA4D
:104A40009FED110ADCE79FED110AD9E73A8C30E2BD
:104A50008E79453E000000E0B115EE3F6F12833CB9
:104A60009A99993FE3A59B3CCDCC4C3F1B2FDD3C55
:104A70006891ED3CCDCC4C3DB6F3FD3C0AD7A33B51
:104A800017B751389A99193FBD37863595BFD63338
:104A900000000000000000000102030406070809EE
:104AA0000000000001020304555555555555C53FFA
:104AB0007D6FEB0312D6D4BF5544880E55C1C93F54
:104AC0003B8F68B52882A4BF88B20175E0EF493FEB
:104AD00009F7FD0DE13D023F4B2D8A1C273A03C02B
:104AE000C88A599CE52A004059018D1B6C06E6BF17
:104AF00082922EB1C5B8B33F4FBB610567ACDD3FB5
:104B0000182D4454FB21E93F9BF681D20B73EF3FF4
:104B1000182D4454FB21F93FE2652F227F2B7A3C6C
:104B2000075C143326A6813CBDCBF07A8807703C25
:104B3000075C143326A6913CC4EB98999999C9BF98
:104B4000711623FEC671BCBF6D9A74AFF2B0B3BFCD
:104B50009AFDDE522DDEADBF2F6C6A2C44B4A2BF8D
:104B60000D5555555555D53FFF8300922449C23FF9
:104B70006E204CC5CD45B73F513DD0A0660DB13F2D
:104B8000EB0D76244B7BA93F11DA22E33AAD903F3F
:104B90004C5555555555A53F7751C1166CC156BF5B
:104BA0009015CB19A001FA3EAD529C804F7E92BE6B
:104BB000C4B1B4BD9EEE213ED43888BEE9FAA8BD8A
:104BC000000000000000000000004054FB21F93FFD
:104BD0003163621A61B4D03D0000601A61B4D03D07
:104BE0007370032E8A19A33B0000002E8A19A33B81
:104BF000C14920259A837B39000000000000000095
:104C00006E83F9A22915444ED15727FCC0DD34F537
:104C1000999562DB4190433CAB6351FE61C5BBDEBD
:104C20003A6E24B7E0D24D42EA2E49061C92D109D1
:104C30001CEB1DFE3EA729B1F53582E88444BB2E4E
:104C400026709CE9417E5FB439D69139F43953839B
:104C50008B5F849C3B28F9BDFF97F81F0F9805DEFA
:104C60008B112FEF1F6D0A5ACF7E366DB709CB27F8
:104C7000663F464F2DEA5F9EC7BA27757BF1E5EB8D
:104C8000F739073DEA92528AB15FFB6B085D8D1FD1
:104C9000A6F810111111813FD561C119A0012ABFD9
:104CA0007DFEB157E31DC73EEB9C2B8AE6E55ABE5D
:104CB0007CD5CF5A3AD9E53D7AFE10111111C13F8A
:104CC00037D60684F464963F280356C9226D6D3F9B
:104CD0000165F2F2D844433FA69237A0887E143F84
:104CE000735360DBCB75F3BEFE41B31BBAA1AB3F80
:104CF00093846EE9E326823F1583E0FEC8DB573FCD
:104D000068108D1AF726303FE9A7F0320FB8123F2E
:104D1000D47ABF74702AFB3E384D00080000002092
:104D20001000000098440008484D000810000020C2
:104D300098070000A84400080024F40000000000C8
:084D400000000000000000006B
:040000050800018965
:00000001FF
