:020000040800F2
:10000000380A0020D100000899310008372F000875
:1000100000000000000000000000000000000000E0
:100020000000000000000000000000009D310008FA
:1000300000000000000000009B3100089F31000814
:10004000E300000800000000E3000008E3000008EF
:10005000E3000008E3000008E3000008E3000008F4
:1000600000000000E3000008E30000084517000856
:10007000E3000008E3000008E300000800000000BF
:1000800009320008E300000800000000E300000857
:10009000E3000008E3000008E3000008E3000008B4
:1000A000E3000008E3000008E30000082936000828
:1000B000393600080548854600F01EFC00F03EF881
:1000C000004800478D5B000800F018FB380A00204C
:1000D0000448804704480047FEE7FEE7FEE7FEE7E6
:1000E000FEE7FEE7AD310008B500000830B50B466D
:1000F000014600202022012409E00D46D5409D4202
:1001000005D31D469540491B254695404019154687
:10011000521E002DF1DC30BD10B5202A04DB08464C
:10012000203AD040002110BD0B46D340D0402024BF
:10013000A21A91400843194610BD000070B5054C45
:10014000054D03E0206800198047241DAC42F9D119
:1001500070BD0000C86A0008D86A0008F8B50746F4
:1001600015460E46102005F06BFD040009D06760AF
:10017000A660E56000F0BEFA01682160046000201E
:10018000F8BD0120F8BDF8B502464A40D40F420040
:100190004B0052085B089A4202D2024608461146BA
:1001A0004A0023D0C30D4A00DDB2120EAD1A202D35
:1001B00035DA49020126490AF6058A19002C00D0D1
:1001C000524220214F1B1146B9402A411018C20D3E
:1001D0009A4221D0002C17D0012D08DCDA05801AB4
:1001E000D20F8019D207DBB200F0B1FAF8BDDA0500
:1001F000801A012340001B06C01880185A4280183C
:10020000CA0F1043490007E04908C2071143DA0545
:10021000801A80194008801800F091FAF8BD61003A
:100220000122511A001BF7E70122D2075140AAE729
:100230000122D2075040A6E7024670B54A40D30FCC
:10024000DB0740002DD04A002AD0010E140E000218
:1002500012020919400A520A8418E501044654435F
:10026000000A120A2E045043A4194219200CC54357
:10027000AA18120C0125AD03521C521912047F3921
:10028000240400D0521C104301D44000491EC2B2C5
:100290000C06C0092018401C4008802A02D003E048
:1002A000002070BD40084000002900DA00201843FB
:1002B00070BD70B502464A40D50F40004A00ED07B8
:1002C00040085208002814D0002A12D0C40DD30DC3
:1002D00041020120C0055202490A520AE41A0918D3
:1002E00012187D34914201D3641C00E04900002CB7
:1002F00001DA002070BD0023914201D3891A034323
:10030000400849000028F7D100290AD0914202D1C3
:100310000121C90705E0914201D2012101E001213B
:10032000C943E005C018401900F009FA70BD00008B
:10033000F0B507460846584087B0C00F0490480003
:100340000E46590040084908BC1A884105D2384673
:1003500031461E4617460B460246580040081043D9
:100360004CD0300D039040055900400D490D0590CB
:10037000401A0290402872DA18030121000B090587
:100380000843019004980092002805D00199524238
:100390000020884100920190029840210A1A019998
:1003A000009800F039F905460C466B4607CB00F083
:1003B00043F9C0197141039A0E0D0023D717564017
:1003C0001A467A40164344D0049A002A2DD0029A45
:1003D000012A039A15DC1205C01A9141012636053F
:1003E000001C7141D20F059ED20700930192029624
:1003F0002A46234600F0F1F907B0F0BD38463146F1
:10040000FAE71605224A0F46B218C01AB741012171
:100410000905001C4F4100187F4111461818794109
:10042000E20F10436D19644113E0E2076D081543B4
:100430006408C2071443039A01261205C01A9141A9
:100440003605001C7141CE07400830434908C018EA
:1004500051412A46234600F0B3F9CDE7FFE704985F
:1004600001224000C117121A00238B410498314623
:10047000C417381AA141EEE730B40124E407634001
:1004800030BC55E730B40124E407614030BC4FE78D
:100490000000E0FFF0B51FB488B00B990998002464
:1004A00048400999C00F490049080991C0070B99B4
:1004B0000090490049080B9109990898A6460843FD
:1004C0001CD00B990A98084318D0099801244000C1
:1004D000420D4800410D099824050003000B2043FC
:1004E00009900B980003000B20430B9050181C49F7
:1004F0004018002201901446104605E000200146F5
:100500000DB0F0BD032801DA034600E003239C464A
:10051000C11A0AAE0AE05F0008ADED5B4F00F75B61
:100520007D430027AA187C41491C5B1E6145F2DD12
:10053000410004AB5A522104120C0A43240C401C03
:100540000828DFDB01980290009970460191009025
:10055000059B049A0799069800F03FF9D0E7000040
:100560000DFCFFFFC217C10F504010B54018CA075D
:100570009623002100F0EBF810BDC20F41004002AD
:100580000123400ADB05D207090EC0187F2901DAD2
:1005900000207047962903DC9623591AC84001E0D1
:1005A00096398840002AF4D040427047C20FD207E3
:1005B000400040080BD0C10D0723DB01C9184002E1
:1005C0000905400A1143C208400711437047002043
:1005D00001467047CB0FDB07490010B549080246BA
:1005E0000A4307D00A0D07240903E401090B121B73
:1005F000002A01DC002010BDC900440F0C43C100DB
:10060000E018D205801800F09AF810BD10B504F07B
:1006100095FD04F0E7FC10BD10B5202A04DB01466F
:10062000203A9140002010BD914020239C1A03469F
:10063000E3401943904010BD10B5202A06DBCB17CC
:100640000846203A1041C1170B4306E00B46134100
:10065000D0402024A21A91400843194610BD421EE2
:100660005378521C002BFBD10B781370491C521C81
:10067000002BF9D17047421C0178401C0029FBD1A6
:10068000801A704703460A780270401C491C002AF1
:10069000F9D1184670470246C9B200E0401C037801
:1006A000002BFBD102E003788B4203D0401E904226
:1006B000F9D20020704700000FB400B58DB009904A
:1006C0000B9010A900200091C0430A9000200C90CC
:1006D00006480690064807906A4609A80F9900F058
:1006E00007FD0DB008BC04B0184700001111000848
:1006F00031110008004870478C000020F8B506460C
:10070000FFF7F8FF0090054615E0002E02D0E068E4
:10071000B0420FD1206828600098A168076860681F
:100720008847204605F008FA00980068B84202D0D1
:100730000098E8E725462C68002CE6D1F8BD002992
:1007400004DA401C490001D140084000704770B4F1
:100750000024050C05D11024000402D1002921D069
:100760001124050E01D100020834050F01D100014A
:10077000241D850F01D18000A41C002801DB40004E
:10078000641C002908D020252E1B0D46F540A140F1
:1007900000D001212943084301061B1B000ADB1D71
:1007A00002D5002070BC7047DB051818801800299E
:1007B000F8DA401C4900F5D170BC40084000704791
:1007C00010B5002B08DA0024401C614192185B41EF
:1007D0001A4301D14008400010BDF0B51FB482B0EB
:1007E00005460C0003D0084604F091FC02E004F03A
:1007F0008EFC20300246009021462846FFF70CFF71
:10080000049B059A04460F4618431143084314D02D
:10081000184610431BD0009840210A1A1846059923
:10082000FFF77AFC05460E46009A05990498FFF7F3
:10083000F3FE084305D0012004E02046394607B006
:10084000F0BD0020C11705430E432C4337430099E8
:100850000E986305401A7905E40A00220C43FD0A4C
:100860000A3002D500200146E9E701051019694167
:100870000C9C0D9D00196941FFF7A2FFDFE710B541
:1008800000F001F810BD10B500F00FF80169002963
:1008900003D000220261884701E080688047C0469B
:1008A000C046000010B5C046C04670B500F056FC0A
:1008B00004680546002C15D1202005F0C1F904007C
:1008C00012D0002009492C6003C40949216020711D
:1008D000A060E06007492061083C002901D000F0D9
:1008E00003FDE061204670BDC046C0460000000028
:1008F000A508000800000000064C0125064E05E092
:10090000E36807CC2B430C3C98471034B442F7D330
:10091000FFF7D4FBA86A0008C86A0008F0B51FB446
:100920000646002082B005464024019100901BE05D
:10093000019922460F463046FFF7EEFB049A059BCD
:10094000801A994110D3104619462246FFF764FEDB
:10095000361A8F410197224601200021009FFFF7A0
:100960005BFE38184D4100902046641E0028DFDCF5
:10097000019B00982946324607B0F0BD00487047F9
:100980006467000810B50446FFF7F8FF0068005DD3
:10099000C007C00F10BD10B5441A0346944209D2D7
:1009A0008318891803E0491E0C785B1E1C70521EC8
:1009B000F9D210BD0C460443A40703D009E010C9C6
:1009C000121F10C3042AFAD203E00C781C70491CD1
:1009D0005B1C521EF9D210BD10B5002200E0521C63
:1009E000835C8C5CA34201D1002BF8D1D8B2E1B278
:1009F000401A10BDFFB50025ED4385B000200090E2
:100A000001909F685E681C46A1696D1C0698884726
:100A10000290216A88470028F6D10298401C0CD029
:100A2000032040028643002F19DD700614D502987A
:100A30002B2809D02D280FD103E00020C04309B096
:100A4000F0BD012080020643A1696D1C069888470D
:100A50007F1E0290002F02DD0298302803D00798F5
:100A6000002828D024E0012040020643A1696D1C23
:100A70007F1E069888470290002F03DD782805D056
:100A8000582803D00798002810D011E007980028B4
:100A900001D010280CD1012040028643A1696D1CB1
:100AA0007F1E069888470290102000E008200790DB
:100AB000C017039016E00A20F9E701204002064320
:100AC0007F1E039B079A0199009800F02EFC029A62
:100AD000D3178018594101910090A1696D1C0698A7
:100AE00088470290002F06DD0799029800F05AFC13
:100AF00002900028E1DAE16906988847B00502D43F
:100B00000120C0439BE7F00710D1700610D5700597
:100B100005D50098019B002241429A4101E0019ACB
:100B200000992068031D2360006806C0284686E7F8
:100B30002068011D21600068019A0099F5E7FFB562
:100B40000027FF4383B000205C6801909E681D462B
:100B5000A9697F1C049888470090296A8847002863
:100B6000F6D10098401C0CD0032040028443002E94
:100B700019DD600614D500982B2809D02D280FD137
:100B800003E00020C04307B0F0BD01208002044311
:100B9000A9697F1C04988847761E0090002E02DD0C
:100BA0000098302803D00598002825D035E0012092
:100BB00040020443A969761E7F1C04988847009070
:100BC000002E03DD782805D0582803D0059800288A
:100BD00010D022E00598002801D010281DD1012056
:100BE00040028443A969761E7F1C049888470090C0
:100BF000102002E0082000E00A2005900DE001210D
:100C000049020C43059A0199761E51430818019038
:100C1000A9697F1C049888470090002E05DD05997E
:100C2000009800F0BFFB0028E9DAE96904988847DA
:100C3000A00502D40120C043A5E7E00722D1600649
:100C400011D56005019800D5404229680A1D2A6027
:100C50000968220501D5087014E0220701D5088033
:100C600010E008600EE02868011D29600068210579
:100C700002D50199017005E02107019901D5018094
:100C800000E0016038467EE7FFB5002083B00090A9
:100C90005068019091691446002697680498884727
:100CA00005460C990698084305D009E0A169761C11
:100CB000049888470546216A284688470028F5D1C8
:100CC000681C03D00198C00704D017E00020C0437F
:100CD00007B0F0BD2068011D2160006800900DE0A4
:100CE0000198C00704D1009805700098401C00903E
:100CF000A169761C7F1E049888470546002F1CDDDD
:100D0000681C1AD0069800280FD0E817C00E4019AA
:100D100041118A0006994009511840012A1A0968B0
:100D2000012090400142DBD107E00C980028D7D188
:100D3000216A284688470028D2D0E169049888476C
:100D40000C98002807D1002E05DD0198C00702D1BC
:100D5000009800210170A068B84204DD0C980028BA
:100D600004D0002F02D00120C043B1E73046AFE7E6
:100D7000FFB5087889B01546FF2805D0491C2D28F5
:100D800004D00022002407E000240BE00122F9E750
:100D90000A235C430419491C0878FF28F8D1002A6B
:100DA00000D06442002004902A7801462D2A01D008
:100DB0002B2A0FD16D1C2D2A02D00022049209E0AB
:100DC0000122FBE700260A2233466D1C00F0ADFA33
:100DD000381871412F78FF2FF4D10C9AA21806927F
:100DE00002460A4304D0FF23069A9133DA4205DA19
:100DF000002109980A4606C00DB0F0BD0024B74A8C
:100E0000B54D2646079200F079FC029006980391B2
:100E1000002801DA474200E0074639050020AF4AC2
:100E2000001C51410191009012E0F80707D02246C2
:100E30002B4630460799FFF72DFB064607912246C1
:100E40002B4610461946FFF725FB04460D467F103A
:100E5000002FEAD10698019B0028009A0399029876
:100E600006DA00F083F93246079B00F07FF905E0CF
:100E7000FFF710FB3246079BFFF70CFB049A002A92
:100E800002D00122D2075140099A03C2B4E7FFB54C
:100E900091B0002009900025ED432E209E685C68EB
:100EA0001F460190B9696D1C129888470090396AF5
:100EB00088470028F6D10098401C0AD00D20C001B8
:100EC0008443002E12DD00982B2809D02D280DD147
:100ED00003E00020C04315B0F0BD012080020443B0
:100EE000B9696D1C12988847761E009003A96005A9
:100EF00001D52D2000E02B206A461073491C0CA858
:100F00000F9102900AE0B9696D1C12988847009011
:100F10000120400204431398761E0560002E02DD76
:100F200000983028EFD001990098884246D180205F
:100F3000044308E00998401E099001204002044340
:100F40001399681C0860B9696D1C761E1298884751
:100F500000903028EED031E00199884205D120067A
:100F600003D480200443761E1EE0009804F02CFA7F
:100F7000002826D001204002044307A90F9803311E
:100F8000761E88420BD200980F99303808700F985F
:100F9000401C0F90200607D50998401E03E020064C
:100FA00002D40998401C0990A00502D51399681C29
:100FB0000860B9696D1C129888470090002ECBDC40
:100FC00059E0002E57DD0098652801D0452852D100
:100FD000A00550D5032000028443B9696D1C761E1C
:100FE000129888470090002E0CDD2B2804D02D2865
:100FF00008D1FF2001300443B9696D1C129888475D
:10100000761E0090E00501D52D2100E02B210298ED
:1010100001700298401C0290019025E001204002DE
:1010200004430EA902980131761E88420ED2009820
:10103000029930380006000E087003D10299019819
:1010400081420AD90298401C029006E0E00501D5D1
:10105000234801E0224840420990B9696D1C12986A
:101060008847009013980560002E04DD009804F076
:10107000ABF90028D2D1F969129888470F99FF205F
:101080000870029903AA087000200A900B900CA91E
:101090000AA8099BFFF76CFEA00502D40120C043FB
:1010A00019E72420044209D0E00713D138680B9ACD
:1010B0000A99031D3B60006806C00BE00B990A9873
:1010C000FFF788FA0146E00704D13868021D3A604C
:1010D000006801602846FEE6000014400000F03F72
:1010E000F1D8FFFF02681378511801601846704765
:1010F00010B5D160044951610449116200211161A8
:10110000114600F05FF910BDE510000885090008E0
:101110004268002A08D001680B78491C002B03D0D4
:10112000521E06C0184670470121C160881E7047D4
:101130004268002A0BD0C3680168002B07D183687E
:101140008B4204D0491E521C06C00020704700206C
:10115000C043704770470000034870470248001DB5
:10116000011F8860001D7047A0000020F0B50C46EC
:101170005C4085B0E40FE40703944C00002664084B
:1011800059009446490802460296224321D06246FD
:101190000A431ED06200570D4A000E032303550D6B
:1011A000012402462C492405781B1B0B360B4018E2
:1011B00023432643614600901C46501AB44103D392
:1011C0000098401C009002E0921800985B410028B3
:1011D00003DA0020014605B0F0BD00200121090519
:1011E0000746864611E064461D46141BB54106D3EA
:1011F0006546521BB341744607430C43A646CD07D0
:1012000040084908284392185B4105460D43EAD13E
:101210001046184313D060461946504071400843A9
:1012200006D06046101AB34106D20122002306E020
:1012300000220123DB0702E00122D2435310009871
:1012400074460105381C6141029C039D00196941E7
:10125000FFF7B6FABFE70000FD0300004A000903EC
:101260000123090B1B0519430A4B10B5520D9A4275
:1012700002DA0020014610BD064B34339A4203DCEB
:101280009A1AFEF749FF10BD034BD218FFF7C4F9B5
:1012900010BD0000FF030000CDFBFFFF10B50029CB
:1012A00004DB0124E40740428C412146002B04DB8F
:1012B0001C460123DB075242A341994200D19042D0
:1012C00010BD000000DEF8B517460E460546002B9F
:1012D00007D0104658434419E41B2046B047A542A6
:1012E000FAD128460838F8BD10B5882004F0A8FCCB
:1012F000002801D00021017010BD802904D80028E9
:1013000002D00178002901D000207047012101702E
:1013100008307047002803D002460832914201D0BD
:1013200000207047002101707047F0B51FB486B0EF
:1013300000200090019002900698069980B20490D7
:101340000798090C02040014114307900027089D18
:10135000099806913E463C4603900398A9B20204C0
:10136000000C039004982D0C15434843002122469D
:10137000FFF752F9C719714110340E46402CECDBCF
:101380003846029AFFF748F9009A019B80180090AE
:10139000594102980191103002904028CCDB00980E
:1013A0000BB0F0BD3A2800D23038202302469A43D1
:1013B000412A01D310463738884201D30020C04368
:1013C00070470000F3B58DB000200A9001200B900B
:1013D000002608460C300C460990626901210998E4
:1013E0009047051E2ED0252D2DD0216A8847002834
:1013F00018D06269012109989047216A884700281E
:10140000F7D1411E62690998904700E0761CA169F6
:101410000D988847216A88470028F7D1E1690D981F
:101420008847DAE7A1690D9888470746A84201D1A5
:10143000761CD2E7E1690D9888477F1C02D10A9893
:10144000002877D049E1002762693D46394609986E
:1014500090472A280CD162690121099890470125FB
:1014600006E00A214F433F18303FEBD410200543DC
:101470006269012109989047014630390A2903D24F
:101480009B498F42DEDCECE7E90600D4994F6C28DB
:101490000AD04C2810D0682824D06A282ED074286E
:1014A0000CD07A280AD00DE0626901210998904792
:1014B0006C2823D004211CE020200543626901210F
:1014C00009989047A760656065284FD026DC5828AA
:1014D00039D01ADC452849D012DC252834D04128DF
:1014E000B0D143E06269012109989047682802D091
:1014F00008210D43E6E70120C002DEE70220DCE719
:10150000462833D047282CD130E05B2870D06128A2
:101510002CD063286CD0642823D161E06F284FD091
:1015200009DC662822D0672820D0692826D06E28BA
:1015300017D12EE0CDE070284DD073286FD07528DC
:101540004ED078280DD154E0A1690D988847054602
:10155000252800D16CE7E1690D9888476D1C00D102
:101560006DE7BAE00A224CE00A2252E0012023464D
:101570006A46C0430D99FFF78AFCA3E02846402144
:1015800008436060A807234601D5002239E0002205
:101590003FE0E80700D020E72068011D21600068D7
:1015A000290501D5067018E7290701D5068014E73B
:1015B000A90703D5F117066041600EE706600CE746
:1015C0002846402108436060A807234601D5082229
:1015D00017E008221DE0484928460840606016E0F0
:1015E0002846402108436060A8072346BCD5B9E7D8
:1015F00015E02846402108436060A80707D5234628
:1016000010220120C0430D99FFF7F4F95AE0234658
:1016100010220120C0430D99FFF791FA52E00021FA
:101620000C910B460091632802D05B2807D043E061
:10163000E80601D40120A060012000903CE062692E
:101640000121099890475E2805D101200C900146A0
:101650006269099890472169002906D10B4601AAC1
:101660008F00491CD3510829FADB002835D02169A5
:1016700000290ED1C117C90E09184A11930001AAF9
:101680009A1849094901411A012013688840034307
:10169000136062690121099890475D28E5D10C9893
:1016A000002808D0002001AB81005A58401CD243CA
:1016B0005A500828F8DB01AB01202246C0430D999F
:1016C000FFF7E2FA00280ADA401C06D10B9800283E
:1016D00003D00020C0430FB0F0BD0A98FBE7E90734
:1016E00002D10A99491C0A91361800200B9074E621
:1016F000CCCCCC0CFFFFFF7FF1F7FFFF0EB5054A06
:1017000002920022009213460192FFF766F803B09E
:1017100000BD000033040000F8B516461F460C4615
:10172000851B02E02846B847AD1B641EFAD2F8BDFF
:1017300038B504466846C046C0460146204604F017
:101740002FFD38BD10B5034800F03FFA024800F005
:101750003CFA10BD88030020CC030020F8B500251A
:101760000446403400952278012A39D001222270A3
:1017700003689E68760767D4384F4E68BE424DD0E6
:101780009E6A0F78BA4016439E620123826B1B0744
:101790009A421FD0012A1DD0022A1BD0032A19D039
:1017A000042A17D0052A15D0062A13D0072A11D0EB
:1017B00002688B6856697607760FB3420AD0536980
:1017C000DB08DB005361006842690B7A5B075B0F43
:1017D0001A4342610A68102A04D0112A02D038E064
:1017E0000220F8BD1E488368102A07D00122920506
:1017F000134383600868102803D02AE00122D20531
:10180000F6E7194817490068FEF770FC0A214843BB
:1018100000E0401E00900028FBD11AE0986A0E7884
:10182000B240904398620968102901D0112910D163
:101830000B488268102904D0012189058A438260FF
:1018400007E00121C905F9E7416C202211434164F9
:101850000125002020702846F8BD0000011000007E
:101860000027014040420F00440000200068006C47
:1018700070470000F8B500250446002803D0606CCE
:10188000002802D008E00120F8BD0020A06440211B
:101890000855204600F0A8F8606C1022C006002809
:1018A00070DB2068816849076CD4616C130199432F
:1018B00002231943616481688907890F012905D1D1
:1018C0000168C9070FD1C16809040CD4C168182385
:1018D0009943A3681943C16020680169636889005E
:1018E0008908194301612068C1683D4B1940C160F6
:1018F000A069E1698003C9030843216A4B031843C7
:10190000636B012B02D001231B0300E0002318436B
:10191000E36818432369022B09D000231843236B83
:10192000666A5B0018430123012E02D00AE00423FB
:10193000F4E7002927D0616C202631436164A16C53
:101940001943A164A16A0E46FF3EC23E02D0E66A78
:10195000314308432168CE680643CE600126A16B5F
:101960003607B14213D0012911D002290FD0032923
:101970000DD004290BD0052909D0062907D0072945
:1019800005D010E028E0012109040843DAE72168C6
:101990004E69F608F6004E6121684E69278F7F0771
:1019A0007F0F3E434E612168C9680E4E314081422F
:1019B00007D10020A064606C80088000401C606437
:1019C00008E0606C0221884310436064A06C1843F7
:1019D000A06401252846F8BD606C10436064F8E7F8
:1019E0001902FEFFE7FF3F8300B500680C4987B08E
:1019F000884212D10B48826941150A43826180698D
:101A000008400590012000900320019000200290E2
:101A100009206946C00600F097F907B000BD000034
:101A20000024014000100240F8B5044640692546F4
:101A300040350E4608280BD02068C068C00709D082
:101A4000606C202108436064002028700120F8BDEC
:101A5000082700E00C2700F025FA009011E0701C28
:101A60000FD0002E05D000F01DFA0099401AB042A8
:101A700007D9606C042108436064002028700320AB
:101A8000F8BD206800683842E9D0606C0121490245
:101A9000084360642068C16809058A0F0C21002A88
:101AA0001AD1226A002A17D10268120714D5826857
:101AB00053070122002B08DB43688B434360606CB3
:101AC000130298431043606406E0606C20231843BF
:101AD0006064A06C1043A064A069002801D1206854
:101AE00001600020F8BD000070B5044621680020A8
:101AF0008968490721D425464035297801291CD019
:101B000001212970E169012904D0204601F09EFDE0
:101B1000002811D1616C0A4A1140FF2201321143A1
:101B200061640021A164297022681C211160216870
:101B30008A6804231A438A6070BD022070BD0000C9
:101B4000FEF1FFFF70B505460446403528780128B0
:101B500007D001262E70204601F086FF002802D013
:101B60000CE0022070BD204601F00CFE002805D1DB
:101B7000616CFF220132914331436164002129707D
:101B800070BD70B50024014620314A78022A03D086
:101B900004218163012416E0026813680E25AB431B
:101BA0001360026813685B085B0013600122056C18
:101BB0001346AB40C56B6B604A7000220A70416BE4
:101BC000002900D08847204670BDF0B4C16B0D6875
:101BD00001680C680422066C1346B3402B420DD0FA
:101BE00063070BD50B689B0602D40B6893430B600D
:101BF000016C8A40C16B4A60C16A19E00227B74094
:101C000002462F4001232032002F15D0A70713D5FD
:101C10000C68A40604D40C680A25AC430C6053700D
:101C2000036C02219940C36B596000211170816AD5
:101C3000002916D0F0BC08470827B7402F4210D023
:101C400024070ED50C680E25AC430C60046C1946B5
:101C5000A140C46B61608363537000211170016BFC
:101C6000E6E7F0BC7047000070B5040024D0022005
:101C7000214620310D464870226811680F48A3683C
:101C80000140606826691843E36833431843636979
:101C90001843A3691843E3691843084310602046BA
:101CA00001F0C2FF0020A062E06220636063A063D5
:101CB00001216970287070BD012070BD0FC0FFFF49
:101CC000F8B504468C46203001780025012909D05A
:101CD0000126067041780027012905D007700225EA
:101CE0002846F8BD0220F8BD02214170A763206894
:101CF00001684908490001606146204601F092FDF3
:101D0000E06A00282068016802D00E22114306E034
:101D10000A22114301602068016804229143016096
:101D20002068016831430160DAE731B500F0BAF8A4
:101D3000009C0546601C00D0641C00F0B3F8401BFA
:101D4000A042FAD338BD0000F8B500238DE001248D
:101D50009C40A44622407DD04C68022C01D0122C1D
:101D60000CD1DC08A40027183C6A5D07ED0E0F2695
:101D7000AE40B4430E69AE4026433E6205685E0045
:101D80000324B4400F79A543BF07BF0FB7402F43CB
:101D900007604D68012D05D0022D03D0112D01D013
:101DA000122D0ED18568CF68A543B7402F438760B9
:101DB00047686546AF430D79ED06ED0F9D403D4305
:101DC0004560C568A5438C68B4402C43C4604C682A
:101DD000E40049D5284CA56901263543A561A469CD
:101DE0009D0834400094254CAD002F19BC689D0718
:101DF0002E0F0F25B540AC430925ED06A84201D1B1
:101E000000250FE01E4DA84201D101250AE01D4D1D
:101E1000A84201D1022505E01B4DA84201D10325AE
:101E200000E00525B5402543BD60184C25684E6887
:101E30009543F60300D51543256065684E689543C4
:101E4000B60300D515436560A5684E689543F60254
:101E500002D500E008E01543A560E5684E689543AB
:101E6000B60200D51543E5605B1C0A681446DC40E9
:101E700000D06CE7F8BD00000010024000000140F7
:101E80000004004800080048000C0048000401401D
:101E900042694A4042617047002A01D0816170471F
:101EA00081627047014800687047000040000020D0
:101EB00002480168491C0160704700004000002092
:101EC00010B506480168102211430160002000F09F
:101ED00007F800F017F8002010BD000000200240B5
:101EE00010B5044600F048F97D21C900FEF7FEF860
:101EF00000F04EFB00222146501E00F02FF800207B
:101F000010BD000008B50F488169012211438161AD
:101F1000816911400091C26901040A43C261C0692C
:101F20000022084000901146501F00F017F80022D0
:101F30001146901E00F012F800221146501E00F0CB
:101F40000DF808BD00100240C106C90E01208840EE
:101F5000014908607047000000E100E010B501F0A1
:101F600015FD10BDF8B505460068354CC00352D5C7
:101F7000E0690026C00007D4E16920040143E16163
:101F8000E1690140012600912E480168C90510D47D
:101F90000168821511430160FFF784FF074604E0E2
:101FA000FFF780FFC01B642824D826480068C005BE
:101FB000F6D5206A03273F02384020D069683940AF
:101FC00081421CD0206A226AB843012109040A43D5
:101FD0002262226A8A4322622062C0070FD0FFF782
:101FE00061FF009008E0FFF75DFF0099411A164875
:101FF000814201D90320F8BD206A8007F3D5206A09
:102000006968B84308432062002E04D0E1690120CA
:1020100000078143E1612878C00705D0206BA968DB
:1020200080088000084320632878800605D5206B4F
:1020300010218843E968084320630020F8BD0000B0
:10204000001002400070004088130000F8B50546FB
:1020500044480E460068C007C00FB0420AD241484B
:10206000016849084900314301600068C007C00F9A
:10207000B0425CD128783C4C800705D56068F021DF
:102080008843A968084360602878C0073FD0686823
:10209000012813D02168022813D08907002946DAC5
:1020A00061688908890001436160FFF7FBFE696888
:1020B000074601290DD0022917D024E021688903A1
:1020C000ECE78901EAE7FFF7EDFEC11B27488142F3
:1020D00017D860680007800F0128F4D117E0FFF7D8
:1020E000E1FEC11B214881420BD860680007800FC8
:1020F0000228F4D10BE0FFF7D5FEC11B1B4881423B
:1021000001D90320F8BD60680007800FF3D115489E
:102110000168C907C90FB1420BD9016849084900D4
:10212000314301600068C007C00FB04201D00120F8
:10213000F8BD2878400706D5606807210902884362
:10214000E9680843606000F02DF86168084A0906F4
:10215000090F515CC840074908600020FFF7C0FE26
:102160000020F8BD0020024000100240881300004B
:102170006C640008440000200148006870470000BB
:10218000440000200448054900684968044A49059C
:10219000490F515CC84070474400002000100240C5
:1021A0007C64000810B513A30FCB88B06C460FC435
:1021B00014A30FCB0FC417494A680C2013460340E1
:1021C000154811D0042B0FD0082B0DD193021B0FF3
:1021D0006C46E45CC96A04AB0907090F595CD20379
:1021E00004D5FDF783FF604308B010BD0B48604382
:1021F000FAE7000002030405060708090A0B0C0DA4
:102200000E0F10100102030405060708090A0B0C43
:102210000D0E0F100010024000127A0000093D0060
:10222000FEB504460078D04DC00747D06868000767
:10223000800F012807D068680007800F022809D1A5
:102240006868C00306D52868800337D56068002811
:102250007ED033E0012062680004012A11D08100A1
:10226000002A01D0052A10D02A6882432A602868F3
:10227000884328606068002814D0FFF713FE0646E4
:102280000CE0296801432960F4E72A680A432A60C0
:10229000F7E7FFF707FE801B64286FD828688003E4
:1022A000F7D50BE0FFF7FEFD064604E0FFF7FAFD69
:1022B000801B6428F1D828688003F7D42078012691
:1022C000800700283BDA68680007800F07D068683D
:1022D0000007800F022809D16868C00306D4286867
:1022E000800715D5E068012832D111E0E0680028A8
:1022F000286815D030432860FFF7D4FD074604E076
:10230000FFF7D0FDC01B0228C7D828688007F7D583
:102310002868F82188432169C900084328600EE035
:10232000400840002860FFF7BDFD074604E0FFF7C6
:10233000B9FDC01B0228B0D828688007F7D42078E0
:10234000000724D5E0690028686A10D0304300E017
:1023500008E16862FFF7A6FD074604E0FFF7A2FD6B
:10236000C01B022899D8686A8007F7D50FE040089B
:1023700040006862FFF796FD074605E09DE0FFF725
:1023800091FDC01B022888D8686A8007F7D420789E
:1023900004274007002860DA00200190E869C000A7
:1023A00008D4E969B8060143E961E96901400120FF
:1023B000009101906D480168C90511D4016882152A
:1023C00011430160FFF76EFD009005E0FFF76AFD25
:1023D0000099401A642870D864480068C005F5D593
:1023E000A06801280AD0002801D0052810D0286A4A
:1023F000400840002862286AB84301E0286A304358
:102400002862A068002812D0FFF74CFD00900AE077
:10241000286A38432862F1E7FFF744FD0099411A22
:102420005348814249D8286A8007F5D50DE0FFF767
:1024300039FD009006E0FFF735FD0099411A4C4840
:1024400081423AD8286A8007F5D40198002804D040
:10245000E969012000078143E9612078C00635D58C
:10246000606901280CD0401D686B23D03843686335
:10247000686B400840006863FFF714FD064622E0E1
:10248000686B38436863686B30436863FFF70AFD25
:10249000064604E0FFF706FD801B02285BD8686B48
:1024A0008007F7D5686BF8218843A169C900084304
:1024B00068630BE0B8436863F4E74CE0FFF7F2FCB5
:1024C000801B022847D8686B8007F7D4206A002851
:1024D00046D069680907890F022943D001263606CC
:1024E0000228286805D0B0432860FFF7DBFC0446CB
:1024F00033E0B0432860FFF7D5FC074604E0FFF760
:10250000D1FCC01B022826D828688001F7D4E86ACD
:10251000E16A000900010843E862616AA06A0843B1
:1025200069683D221204914308436860286830437B
:102530002860FFF7B7FC044604E0FFF7B3FC001B7C
:10254000022808D828688001F7D509E0FFF7AAFC1F
:10255000001B022801D90320FEBD28688001F5D4A4
:102560000020FEBD0120FEBD0010024000700040B2
:1025700088130000042204490428086902D090430B
:10258000086170471043FBE700E000E0704700007F
:10259000094910B5401E884201D9012010BD074CE1
:1025A00060610321081F01F0F1F90020A0610720FC
:1025B0002061002010BD0000FFFFFF0000E000E0F0
:1025C00010B5FFF7E3FF10BD7047704770B50246C6
:1025D0002032137F012B1BD0012313770224547761
:1025E000046865687026B5436560046865680E68B0
:1025F000354365600468A5688026B543A56000681A
:10260000846849680C43846053770020107770BD5C
:10261000022070BD70B5040005D025462035687FC6
:10262000002802D006E0012070BD00202877204657
:1026300000F00AF802206877211D206800F0ECFD08
:1026400001206877002070BD08B5006809498842FC
:102650000FD10948C26902210A43C261C069002240
:102660000840009011461020FFF778FC1020FFF77B
:102670006BFC08BD00040040001002400268D368F3
:1026800001210B43D360006802680A430260002006
:102690007047000002210246203251770168086A23
:1026A000074B184207D1086A9B10184203D10868EB
:1026B000400840000860012050770020704700006B
:1026C00011110000F8B5054604462035287F012881
:1026D00017D001272F770220687722689068772625
:1026E000FF23B0431B02984390600868502837D0FE
:1026F0000EDC202857D006DC00284ED0102840D110
:102700004EE00220F8BD302850D0402839D13CE0BE
:1027100060282DD0702817D001221203801A0ED005
:1027200090422ED1CB684A688968206800F0B8FDD5
:1027300020688168012292031143816021E02068B2
:102740008168C908C900F8E7CB684A6889682068C9
:1027500000F0A6FD21688868B0433043886010E02F
:10276000CA684968206801F071FA5021206806E0C3
:10277000CA684968206801F07AFA6021206801F08F
:10278000DAF96F7700202877F8BDCA6849682068B1
:1027900001F05CFA40212068F1E700212068EEE7B3
:1027A00010212068EBE720212068E8E7302120682D
:1027B000E5E7704770B50446006801690025C94324
:1027C0008907002915DBC168C943890711D4E91EAF
:1027D000016101202077206880698007204602D0AF
:1027E000FFF7E7FF04E000F096F8204600F094F8C9
:1027F000257720680169C943490717D4C168C943CF
:10280000490713D40421C9430161022020772068BD
:1028100080698005800F204602D0FFF7CAFF04E0E0
:1028200000F079F8204600F077F8257720680169F4
:10283000C943090716D4C168C943090712D408213E
:10284000C9430161042020772068C06980072046C1
:1028500002D0FFF7AEFF04E000F05DF8204600F084
:102860005BF8257720680169C943C90617D4C16898
:10287000C943C90613D41021C94301610820207738
:102880002068C0698005800F204602D0FFF791FFC5
:1028900004E000F040F8204600F03EF8257720687C
:1028A0000169C943C90708D1C168C943C90704D12F
:1028B000891E0161204600F031F820680169C94392
:1028C000090609D4C168C943090605D48021C94352
:1028D00001612046FFF778FE20680169C943490677
:1028E00009D4C168C943490605D44021C9430161DF
:1028F000204600F02DF820680169C943890609D4F3
:10290000C168C943890605D42021C9430161204615
:10291000FFF75BFE70BD70477047000070B5006840
:10292000074988420AD1074C01252068012804D1B3
:10293000054805600548FFF7ADFE256070BD000045
:102940000004004028000020380000206802002019
:1029500070477047F8B503680446D96918680D07D1
:102960002D0F07D18A0605D5820603D5204600F033
:102970001DFDF8BD9A68002D64D0D507ED0FFF2628
:10298000213606402E435DD0CE0706D0C60504D5BD
:1029900001261E62E36E3343E3668F07022304269B
:1029A000002F06DAD70704D027683B62E76E37436B
:1029B000E7664F0706D5D20704D022681662E26E9A
:1029C0001A43E2660A0709D5202202402A4305D0AD
:1029D000236808221A62E36E1343E366E26E002A5C
:1029E000C7D0890604D5800602D5204600F0DEFC5B
:1029F000E06E000703D42068806840061CD520469E
:102A000001F0ABF820688168490611D58168402241
:102A100091438160606E00280AD012494163606E64
:102A2000FFF7AFF80028A4D0606E416B8847F8BD6F
:102A30002046FFF78EFFF8BD2046FFF78AFF0020F3
:102A4000E066F8BD0A0605D5020603D5204600F06B
:102A500087FDF8BD4906FCD54006FAD5204600F0B2
:102A600098FCF8BDCB3B000870B5040005D02546A6
:102A70006035687A002802D006E0012070BD002091
:102A80002872204600F026F8242068722068016829
:102A9000490849000160204600F0C6FC0128EDD03D
:102AA000606A002802D0204600F005FC20684168DA
:102AB0000122D2029143416020688168082291433B
:102AC000816020680168012211430160204600F006
:102AD00057FC70BDF0B50646384F056838480223EC
:102AE00003210122002487B0BD4217D186699503D6
:102AF0002E43866180690391284005904802049224
:102B00006D4619C509206946C006FFF71DF9002268
:102B100011461B20FFF722FA1B204AE0294FBD4235
:102B200049D1C76901256D042F43C761C06903916D
:102B3000284005900C2004926D4619C5092069466D
:102B4000C006FFF701F92048204D802701C510205D
:102B500091C52C606C6003200003AC60E8601B48EA
:102B6000103DFFF781F8002803D09F2118A000F046
:102B70006BFD35666E621448144D1430443511C532
:102B80002C60AC60EC602C6128466F606C6108388A
:102B9000083DFFF769F8002803D0AF210CA000F032
:102BA00053FD7566002211461C206E62FFF7D6F9B0
:102BB0001C20FFF7C9F907B0F0BD00000038014044
:102BC00000100240004400404400024088030020FE
:102BD0002E2E2F5372632F75736172742E63000053
:102BE000F8B5054604466035A87A202841D1002969
:102BF0000BD0002A09D00123A0681B03984206D1FC
:102C00002069002803D1C80701D00120F8BD287A27
:102C100001282ED001202872582061650253002619
:102C2000E6662220A872616E13488862616E1348BE
:102C3000C862616E12480863606E13464663676D32
:102C400021683A462431606EFFF73AF82E72206808
:102C50000168FF220132114301602068816801226E
:102C60001143816020688168402211438160002007
:102C7000F8BD0220F8BD00008B3B0008473B000870
:102C80006138000870B5034660339C7A202C39D136
:102C900000290BD0002A09D0012584682D03AC42FD
:102CA00006D10669002E03D1CE0701D0012070BDE8
:102CB0001E7A012E26D001261E7241650146403142
:102CC0000A834A83FF22AC4204D10469002C07D155
:102CD0000D4A05E0002C04D10469002C00D07F22AD
:102CE0008A830021C16622229A72197201688A6859
:102CF00032438A6000680168FF222132114301607B
:102D0000002070BD022070BDFF01000010B572B63A
:102D100000680E49884216D10D4801F0D3FA0D48DB
:102D20000068002802D0012803D00CE001220A49E3
:102D300006E00A480A4900880988401A094982B20F
:102D40000948FFF79FFF62B610BD00000044004035
:102D5000CC0100201C0000203C00002020000020AE
:102D600024000020FC010020180300207047FFB55C
:102D7000064604466036707A83B00D46202858D146
:102D8000002D0CD00598002809D00120A16800036F
:102D9000814207D12069002804D1E80702D0012030
:102DA00007B0F0BD307A012843D0012030720020F6
:102DB000E06621207072FFF775F8019027464037D2
:102DC000059838820598788218E0788A401E7882C3
:102DD00006980090002280212046019B00F0F3FB22
:102DE000002818D10120A1680003814202D1206986
:102DF000002812D02168287808856D1C788A002860
:102E0000E3D106980090002240212046019B00F06B
:102E1000DAFB002808D00320C2E728882168C00513
:102E2000C00D0885AD1CE9E72020707200203072CB
:102E3000B6E70220B4E70000F8B505460446603561
:102E4000687A20283BD100290BD0002A09D0012321
:102E5000A0681B03984206D12069002803D1C80747
:102E600001D00120F8BD287A012828D0012028723D
:102E700020464030E164028242820026E66621203C
:102E80006872216E0F488862216E0F48C862216EF9
:102E90000E480863206E134646632768E16C3A4685
:102EA0002832206EFEF70CFF2168402008622E7247
:102EB000206881688022114381600020F8BD0220D3
:102EC000F8BD0000DF3B0008513B000861380008F6
:102ED00070B572B60020114C09250246ED0620603F
:102EE00020212846FEF7D8FF0121C9022846FEF717
:102EF000CFFF2068002802D0012803D00CE0012277
:102F0000074906E00748084900880988401A074928
:102F100082B20748FFF7B6FE62B670BD1C00002003
:102F20003C0000202000002024000020FC010020A4
:102F3000180300207047FEE73EB5174917480024E4
:102F400012C004600346012104220833446016C302
:102F500044618461C461FF224462C23284620262BD
:102F6000C1620838FEF786FC002803D04A210CA075
:102F700000F06AFB0120000301900004029000941D
:102F800069460648FEF7EAFB002803D0542104A056
:102F900000F05AFB3EBD0000002401401C0200204E
:102FA0002E2E2F5372632F6164632E630000000086
:102FB00008B5084841690122114341614069104048
:102FC0000022009011460B20FEF7C8FF0B20FEF7F1
:102FD000BBFF08BD00100240F0B5244887B042692D
:102FE0000121C9040A43426142690A4005924269CB
:102FF00089100A43426142690A40059242694900C8
:103000000A4342614069032408406403059000229A
:1030100021461748FEF740FF164E09200022314690
:10302000C006FEF739FF144F002239461348FEF759
:1030300033FF0094002401250195029469460C4851
:103040000394FEF781FE092002946946C0060096AB
:1030500001950394FEF778FE0294694607480097AD
:1030600001950394FEF770FE07B0F0BD001002401A
:10307000000800486218000005080000000400482D
:1030800010B5194886B0174901604B21890141608C
:10309000102181600024046114498461C160FFF73C
:1030A000B9FA002803D03F2111A000F0CDFA012089
:1030B0000003009069460C48FFF704FB002803D08A
:1030C00045210BA000F0C0FA049404A90648059419
:1030D000FFF77CFA002803D04C2105A000F0B4FAD9
:1030E00006B010BD000400406802002088130000F4
:1030F0002E2E2F5372632F74696D2E630000000013
:1031000010B50D480B490160E12109024160002121
:103110008160C16001618161C1610C220162426113
:103120004162FFF7A1FC002803D0482103A000F072
:103130008BFA10BD00380140A80200202E2E2F531C
:1031400072632F75736172742E63000010B50D48A1
:103150000B490160E1214902416000218160C160A9
:1031600001618161C1610C22016242614162FFF72C
:103170007BFC002803D05D2103A000F065FA10BDA0
:1031800000440040180300202E2E2F5372632F7529
:10319000736172742E63000070477047704710B5FA
:1031A000FEF786FEFFF70CFA10BD00001348016819
:1031B0000122114301604168114A114041600168D8
:1031C000104A11400160016801229204914301609C
:1031D00041683F22120491434160C16A0909090113
:1031E000C162016BFF22143291430163416B4908B4
:1031F00049004163002181607047000000100240D7
:103200000CB8FF08FFFFF6FE10B50248FFF7D2FA30
:1032100010BD000068020020F0B502681A4B1B4C7C
:10322000984201D0A04203D17025AA434D682A4399
:10323000174D184E184F98420AD0A04208D0174C8C
:10324000A04205D0A84203D0B04201D0B84205D177
:103250001446032212029443CA6822438024A243E4
:103260004C69224302608A68C2620A68826298429C
:1032700005D0A84203D0B04201D0B84201D10969BB
:10328000016301214161F0BD002C014000040040B8
:10329000004001400044014000480140002000403F
:1032A00030B58468FF252D021B021343AC430B434A
:1032B0002343836030BD10B5818CC90707D00168F6
:1032C0004A6801235B049A43836A1A434A60818CEB
:1032D000890707D501684A6801231B049A43C36A1A
:1032E0001A434A60818C490707D501684A6801235F
:1032F0009B049A43036B1A434A60818C090707D5E4
:1033000001684A680123DB039A43436B1A434A600E
:10331000818CC90607D50268916801231B03994374
:10332000836B19439160818C890607D501688A688F
:1033300001235B039A43C36B1A438A60818C49065D
:1033400012D503685A6801210905046C8A43224397
:103350005A60026C8A4207D10268516803235B05F8
:103360009943436C19435160818C090607D5016864
:103370004A680123DB04806C9A4302434A6010BD13
:103380000021C166202260304272827201720846BA
:10339000704710B501680A6840239A430A602022EA
:1033A00069210A54FFF794FD002010BD70B5024654
:1033B000403203466033948B9D7A0168222D05D0FC
:1033C0008869082210438861022070BD898C01261B
:1033D00085683603B54202D10569002D0BD0214026
:1033E000446D651C45652170518B491E0904090C0B
:1033F000518307D015E0456D21402980416D891C1E
:103400004165F1E701680A68FF242134A2430A609C
:1034100001688A68520852008A6020219972FFF779
:1034200075FC002070BD0000F8B504462369A26851
:10343000E5691A43636910202B43002125681A436C
:103440002B680E46404F3B4013432B6023685A685D
:1034500003252D03AA43E5682A435A60236AA2691B
:1034600025681A43AB680B273F02BB431343AB608D
:10347000364A2568954210D1354A126B9207920F51
:103480000ED0012A05D0022A05D0032A09D1022034
:1034900007E0042005E0082003E02E4A954200D111
:1034A00000200122E369D203934226D1042819D0D7
:1034B00004DC00280BD0022802D10BE0082817D02A
:1034C00001260A0912010807400F104331E0FEF7F8
:1034D00059FE09E06168204A48088018FCF706FE9A
:1034E00081B2EEE7FEF75EFE616840004A08F4E74D
:1034F0006168012248081204EFE7042811D004DCB7
:10350000002807D0022802D107E0082814D001269D
:103510003046F8BDFEF736FE05E061680F4A480800
:103520000CE0FEF73FFE61684A088018FCF7DEFDFC
:1035300080B22168C860EBE7616848088018FCF732
:10354000D5FD80B2E860E3E7F369FFFF0038014092
:1035500000100240004400400024F40000127A00F1
:103560006921095C212901D00220704702464032BE
:10357000518A002912D0012381681B03994202D18C
:103580000169002915D0C16C4B1CC364006809781F
:103590000185508A401E50820020704701680A68E9
:1035A00080239A430A600068016840221143016049
:1035B000F2E7C16C03680988C905C90D1985C16C9A
:1035C000891CC164E5E7FFB581B017460E46044685
:1035D0000A9D1DE0681C1BD0002D05D0FEF762FC83
:1035E0000499401AA84213D920680168FF22A13229
:1035F000914301602068816849084900816020206A
:1036000060346072A07200202072032005B0F0BD0B
:103610002068C1693046884304D00020B842D9D020
:103620000020F3E70120F9E710B50248FFF792F90F
:1036300010BD0000A802002010B50248FFF78AF96B
:1036400010BD000018030020FEE70000F8B5044696
:1036500000200090206881688907890F012905D121
:103660000168C9072CD1C168090429D48168154AA9
:10367000102611400125002915D181682943816058
:10368000124811490068FCF731FD00E0401E00902F
:103690000028FBD1FEF706FC07460CE0FEF702FC13
:1036A000C01B022807D9606C30436064A06C2843BB
:1036B000A0640120F8BD20680068C043C007EDD1B8
:1036C0000020F8BD1700008040420F004400002099
:1036D00070B50646D017000E831818121B0A002575
:1036E0001B02D21A2C463B2902D03C2901D002E011
:1036F000001DC4B2D5B20120FEF717FBFF2000F079
:1037000075F8FF2000F072F8304600F06FF80520E1
:1037100000F06CF8032000F069F8202000F066F853
:10372000284600F063F8204600F060F87019001990
:103730002830C043C0B200F059F80120FEF7F5FA76
:1037400070BD0000F8B50C4E0C4F00243168706855
:10375000251D401AA84206D8094A00902B4611465A
:10376000092000F0E7FD3068A10040190078641CD2
:103770007850082CEADBF8BDCC010020AC01002019
:103780002F680008F8B50446006881688907890F2A
:10379000012928D10168C90702D1C168090422D5CD
:1037A0008168052211401025012601290FD1816869
:1037B000022211438160216803200860FEF772FB3A
:1037C00007460CE0FEF76EFBC01B022807D9606CB1
:1037D00028436064A06C3043A0640120F8BD2068D9
:1037E0008068C007EED10020F8BD000010B5034985
:1037F0000870012000F00CFA10BD0000BC00002091
:1038000010B5074801690920C0061D2906D0812985
:1038100003D100220221FEF73FFB10BD0122F9E790
:10382000AC01002030B5056C0124AC40C56B6C6068
:10383000046863604368102B036803D099600068D4
:10384000C26030BD9A600068C16030BD10B5012112
:103850000022C9020148FEF71FFB10BD000400480A
:1038600070B5446A25466035687A0026212808D15B
:1038700020688068000604D552200653204600F0D8
:103880007BF9A87A222808D120688068400604D5F0
:103890005A200653204600F060F9E06E10210843DC
:1038A000E0662046FFF755F870BD000038B50A46BF
:1038B00004460A491046FCF766FC0949FCF7BCFCC3
:1038C0000849FCF7F6FCFCF758FE01466846018003
:1038D00002784178204600F07BF838BD0000704245
:1038E00000C07F440000964310B50A4C01212268B5
:1038F000C90209481D2A02D0812A02D004E001220F
:1039000000E00022FEF7C8FA2179044A0120FFF7FF
:10391000DFFE10BDAC01002000040048FF030000E2
:10392000F8B5002000F002FA13490860002000F00A
:10393000FDF9C117090F08180011FCF713FE0F4E0F
:1039400071680F46FCF770FCFCF730FE0C4A0D4B1B
:10395000FCF7A0FD04460D463846FCF727FE22463C
:103960002B46FCF7E5FCFCF735FE30607060FCF799
:1039700004FE05490860F8BD080000200000002092
:10398000C3F52838575BB13F2C0000208307FF2286
:10399000DB0E9A408907090E994000280BDA0007D0
:1039A000000F0838830808489B001818C369934320
:1039B0000B43C3617047830804489B001B181868B9
:1039C000904308431860704700ED00E000E400E019
:1039D00070B514460D460646012204212148FEF723
:1039E0005BFA0120FEF7A1F90120FEF79EF9FF2006
:1039F000FFF7FCFE0120FEF798F9FF20FFF7F6FE27
:103A00000120FEF792F93046FFF7F0FE0120FEF7A5
:103A10008CF90520FFF7EAFE0120FEF786F9032066
:103A2000FFF7E4FE0120FEF780F91E20FFF7DEFE1F
:103A30000120FEF77AF92046FFF7D8FE0120FEF7B5
:103A400074F92846FFF7D2FE0120FEF76EF930190F
:103A500040192630C043C0B2FFF7C8FE0320FEF76E
:103A600064F970BD0004004870B5044600688168C0
:103A7000490720D5816810264907002905DA8168A1
:103A8000890702D4816831438160FEF70BFA05464D
:103A90000DE0FEF707FA401B022808D9606C30439E
:103AA0006064A06C01210843A064084670BD2068D2
:103AB00080684007EDD4002070BD70B594B001253A
:103AC00012200595009010200490069005200024F7
:103AD000C004039502260A90089609940B94684640
:103AE000FEF79EFB002800D0FEE707200C900E9406
:103AF00001210D960F940CA8FEF7A8FA002800D01B
:103B0000FEE710A810951294FEF72CFA002800D0BA
:103B1000FEE7FEF731FB7D21C900FCF7E7FAFEF76F
:103B200037FD0420FEF726FD00221146501EFEF749
:103B300015FA14B070BD826870239A430A430721B6
:103B40000A438260704710B5406AFFF70FF910BD55
:103B500010B5406AFFF7EEF910BD01680A68FF234F
:103B600021339A430A6001688A68520852008A60C9
:103B7000202160308172704701680A68C0239A432F
:103B80000A60202160304172704710B50146096813
:103B9000406A0968890615D400225A210A52016830
:103BA0000A68FF2301339A430A6001688A68520851
:103BB00052008A6001688A6840239A438A60202202
:103BC0006A210A54FFF7A2F810BD10B5406A00221E
:103BD000014640314A834A82FEF7BBFE10BD10B554
:103BE00001460968406A096889060DD400225221FD
:103BF0000A5201688A6880239A438A6000680168D3
:103C000040221143016010BDFFF762F910BD0000B2
:103C100010B582B2012302490248FFF7A8F810BD8F
:103C2000BC000020A802002010B504460068054929
:103C300040181421FCF75AFA800020640248E0631F
:103C400010BD0000F8FFFDBF0000024030B5036A60
:103C5000046A6408640004628469F025AC431201BC
:103C600022430A24A3430B438261036230BD30B573
:103C7000036A1024A34303628469036A0F252D039A
:103C80001203AC432243A024A343090119438261D8
:103C9000016230BDF8B50126092500243603ED0682
:103CA000771031462846FEF7F3F839462846FEF7E6
:103CB000EFF86420FEF739F8641C062CF1DBF8BD40
:103CC0001FB51C4600F078FC04494968204604B042
:103CD00010BDC046C046C046C046F7E79000002071
:103CE00013B50024012001F089F90446204601F0B3
:103CF0007DF90020C0431CBDC046C046C046C0463A
:103D0000F4E7000010B5084CA068FCF72BFC014656
:103D10000320FFF7CBFDE068FCF724FC01460420FC
:103D2000FFF7C4FD10BD0000AC0100203EB50090BF
:103D3000012001900007029069460A48FDF70EFD38
:103D40000848FDF7D1FE64210648FDF76DFE002806
:103D5000F9D10448FDF78AFD84B20248FDF7F2FE6E
:103D600020463EBD1C02002010B504488069FCF7C7
:103D7000F9FB01460220FFF799FD10BDAC010020C0
:103D800010B5FFF7DFFCFFF7BDFFFFF739FD00F0CF
:103D900009F8FFF7C5FDFFF7A7FD00F017F8FFF7DB
:103DA000E3FF10BD10B50748416907481D2906D03B
:103DB000812903D100220121FEF76EF810BD0122F6
:103DC000F9E70000AC0100200004004810B50748E6
:103DD000C1690920C0061D2906D0812903D100220E
:103DE0004021FEF759F810BD0122F9E7AC0100208F
:103DF00030B5049D039C017042708370C47085606F
:103E000030BDFFB581B01F460D00064601D00C46FF
:103E100000E04024002E03D1204601F0EBF80646D6
:103E20003B462146039A01F00BF9002802DA0020F4
:103E300030700FE0844201DA441C02E0844209D170
:103E40006400002D02D0002005B0F0BD304601F026
:103E5000C9F8E1E73046F7E7FFB5494D0027286884
:103E600089B0002858D147A00020C046040001D1E5
:103E70002C460C3420463A21FCF70DFC00280DD0CE
:103E80003F4A0770121D42A1401CFCF715FC012897
:103E900002D16868002801DC012068603D491420D7
:103EA00005910846C04606001BD0B760F7600120A8
:103EB00040027060384837463060103708A8C04666
:103EC000C0460246354904A802F04EF9014638467C
:103ED00002F06EF90646103E04A802F087F9304859
:103EE00030602C4E07A8C046C046024621466846B0
:103EF00002F03AF9074601A801F002F802463068DC
:103F00003946C36830469847A86001A801F00AF80E
:103F1000684602F06BF92C60AC68601C28D002A8DF
:103F200004906F681B4E06A80B9DC046C046024613
:103F300016A103A802F018F90095019030683B46DD
:103F40000569224631460498A84703A802F04EF9B5
:103F5000029A10460C38806800280BD00C9B0A99F6
:103F60000998FFF74EFF044602A802F03FF92046E9
:103F70000DB0F0BD02A802F039F90020F8E700000A
:103F8000480000205257535444455252000000004C
:103F900025640000100400207067000830680008E5
:103FA00000680008F3B5404881B0002707603F482B
:103FB0003F4D00683F4E0C46032818D00022A168F0
:103FC000019802F0FDF90021019802F0E5F921784D
:103FD00001700121019802F0DFF96178017002217E
:103FE000019802F0D9F9A1780170032039E0019815
:103FF00000220C300B21009002F0E2F92F6009E062
:10400000009802F0C9F92C492A68895C0170286877
:10401000401C2860A0682968001F8842F0DC002549
:1040200037600EE02946009802F0B6F90078316852
:104030004018C117090E0918090A0902401A6D1C17
:104040003060A068801FA842ECDC25E0019802F0F7
:10405000A3F919492A6889182039497F017028680D
:10406000401C2860A06829688842EFDC032537607F
:104070000EE02946019802F08FF900783168401867
:10408000C117090E0918090A0902401A6D1C30608F
:10409000A068801EA842ECDC2146019800F0A4F83C
:1040A000019800F05FF8FEBD1C0000201000002009
:1040B0000C00002014000020FC010020F0B5224A72
:1040C0000F79002001231278002F18D0012F11D072
:1040D0001E4D1F4E1F4C2D78022F14D0032F06D1DA
:1040E0000F78AF4203D1002A23D01FE00B71F0BD3F
:1040F0000871F0BD4C78944201D10220F8E70C78A9
:104100009442F5D1F2E78F7897420FD10F780322CE
:10411000AF4201D10A71F0BD32600F4A95680F4A73
:10412000156023600E4ACB781360E1E708712060C8
:10413000F0BD087104202360306008480F2202603F
:104140000748C9780160F0BD3C000020F001002064
:10415000240000201C000020E4010020200000209A
:104160001000002010B5054A05490020135C8400AA
:10417000401C0B510C28F9DB10BD0000FC01002095
:104180002001002070B5002405460A4E0C3521465A
:10419000284602F001F90078252806D10648FEF7E6
:1041A0006DFA601C282148437062641C0A2CEEDB07
:1041B00070BD0000000400406802002010B5092016
:1041C00000222021C006FDF767FE04490020086098
:1041D000012203490348FEF703FD10BD1C00002027
:1041E0003C0000201803002070B506461C481D4DF9
:1041F00000680C4603281DD0A1683046891E02F0D5
:10420000CBF800782968884213D1A1683046491E4E
:1042100002F0C2F800780D280BD101210920090312
:10422000C006FDF735FE1049012008600F49002047
:10423000086070BD30460C300921044602F0ACF82D
:10424000007829688842F4D10A21204602F0A4F8B7
:1042500000780D28EDD13046FFF794FF70BD0000C7
:104260001000002014000020340000203000002046
:1042700010B51148462101704421417042218170DE
:104280002521C1700D490022097801710C490A608D
:104290000322835C0C68521C1B19DC17240EE418E3
:1042A000240A24021B1B0B60122AF2DB097881749A
:1042B0000D21C17410BD0000080200202C00002058
:1042C0001800002010B504460D48006800280CD0E6
:1042D000012809D10B48016804290FD0032903D113
:1042E00009492046FFF75EFE10BD08492046FFF74A
:1042F000E5FE05492046FFF7E1FE10BD0349F0E762
:104300001C00002010000020F0010020E40100202B
:104310001CB5694602F078F801A90C3002F074F877
:104320000C381CBD10B50C3002F073F80C3802F0DC
:1043300070F810BD0FB47FB5154D2A68002A04D05F
:104340000898032805DC002190477FBC08BC04B016
:10435000184709AE694608200846C046002803D021
:1043600000F0DCFB044600E00024324620460899B9
:1043700000F090FB206881682046884701462A6843
:10438000089890472068016820468847DDE70000CC
:104390008400002013B5002400F030FE0446002CF9
:1043A00002D10320FFF7C6FF20461CBDC046C04611
:1043B000C046C046F3E710B500F018FE10BD7047C8
:1043C000FFB50746002087B03D4638600835786065
:1043D000141E064608D03448844201D9C046C0465F
:1043E000A00000F007FE00E0002011C5083D05E038
:1043F0002046641E80002968001F0E50002CF7D153
:104400000020A860E86028610A9868612C46089836
:10441000083C00280AD0FCF72EF9401C054600F0A5
:10442000E9FD2A460899FCF7B6FAA061062705A817
:10443000C046C046014602A801F0B2FE04903946CB
:104440001A4B1B4A042000F082FE01906568062D7D
:1044500000D33D4626680090A800039007E031464F
:10446000009801F0F1FE0098001D361D00902168B3
:1044700003980818B042F2D106E0A90001986D1C1B
:104480000818049901F0E0FEBD42F6D30749206800
:10449000FCF7BCF867600198206002A801F0A6FE56
:1044A00020460BB0F0BD0000FFFFFF3FED610008AC
:1044B0003117000810B50446806900F093FD2046CE
:1044C000083001F04BFC083801F05AFC10BDF8B57B
:1044D00004460D4616461046002122600020C046C4
:1044E0006060002809D0FCF7C6F8401C00F082FD8F
:1044F00007466168FCF7C6F8676029463046002029
:10450000C0462046F8BD10B541680446002905D0D4
:1045100020680020C046606800F064FD204610BDA1
:104520000C0008D00A460DA1104800F07BFD204683
:1045300000F058FD0AE000280AD001280AD002281D
:104540000AD00BA205A1094800F06CFDC046C04688
:1045500009A2F7E70BA2F5E710A2F3E74578636538
:104560007074696F6E3A2025732E0A00880000204F
:10457000756E6B6E6F776E20657863657074696FAA
:104580006E000000756E6578706563746564206503
:104590007863657074696F6E000000006261645F2B
:1045A000616C6C6F633A206F7574206F66206D6567
:1045B0006D6F72790000000010B50B4904460020B1
:1045C0000B684A6800E0401C824206D981005918F5
:1045D0000968002901D0A142F5D181005918096864
:1045E000002900D1104610BD90000020406870479F
:1045F000FEB50D46174600240168E44306226846CE
:10460000FFF765FF21462868FFF76AFB0646401C56
:1046100012D000F0C7FC416805460468C8002018A5
:10462000A0420ED12846491C01F0B8FB03CDC900B9
:104630004418083C083D09E06846FFF764FF20463F
:10464000FEBD2268521C01D00834E9E73946201D1E
:10465000266000F079FC2868201AC410ECE710B539
:104660000C4600F09FFC4168A14204DD0068E100B7
:104670004018001D10BD00F007FC10BDF8B51C4629
:1046800015460E4600F08EFC4168B1420FDD006811
:10469000F10040180068411C09D0002100916B46D0
:1046A00022462946FFF70CFB6946884200D10020CC
:1046B000F8BD40695200805A084000D00120704780
:1046C000FFB5064600681D46416981B0294201D008
:1046D000002406E001693948294201D0C46800E09D
:1046E0008468002C12D002980768E068B84207D8A6
:1046F0000020009020466A46791C083001F004FB37
:10470000A068B90040180768002F4FD1039800280F
:1047100002D10420FFF70EFE002C12D00298076889
:10472000E068B84207D80020009020466A46791C0D
:10473000083001F0E9FAA068B90040180768002FB6
:1047400034D13268002350691DA128420FD00223C2
:10475000102100200D4204D0116880000818016863
:1047600009E04900401C0628F4D3164903E010690B
:10477000284200D0012318460A9B0022984707468A
:10478000002C13D03068A04210D02146684600F0BB
:104790009FFB39466846029A00F016F80020009008
:1047A000E069401EE061684600F0BCFB39463046D7
:1047B000029A00F009F8384605B0F0BD6800002004
:1047C000000000002C680008F8B50546087A164677
:1047D0000C46C00710D13068002804D11949086878
:1047E000401C086030602068294682682046904757
:1047F000A06801210843A06028683668C068B042FC
:1048000007D80020009028686A46711C083001F023
:104810007BFA28683146083001F0A7FA00680028C2
:1048200006D0C168491EC16002D101684968884745
:10483000E0683146401CE0602868083001F095FAD5
:104840000460F8BDAC0000207CB5054608680C4645
:104850008069002809D06846C046C04602462068E4
:104860008169284601F080FC7CBD01A8C046C04695
:10487000024601A1F5E700002A00000010B5044639
:10488000FCF789F8204610BDFEB504462CA1FCF7C4
:10489000A3F8002850D02BA12046FCF79DF8002853
:1048A0004AD00120400200F0A5FB07460222214623
:1048B0006846FFF70CFE002410264025FCF75EF842
:1048C000034618680021005DC207D20F00D0012105
:1048D0003E22104201D002221143284201D004227C
:1048E0001143304201D0082211430822104200D067
:1048F00031439822104201D02022114320281DD09C
:104900000022002A00D029430222104201D0802236
:104910001143820042408020024201D04000014306
:1049200060003952FF200130641C8442C9D16846BE
:10493000FFF7E9FD3846FEBD0448FEBD0122E0E771
:1049400043000000504F534958000000E064000845
:10495000FEB5064615460C460846FFF795FF01468C
:104960002B460022304600F097F943490160064685
:104970004069424988427CD001203076022221469B
:104980006846FFF7A4FD0024FF25E2B2102130465F
:10499000FFF78FFE002808D10AE0EAB21021304666
:1049A000FFF787FE002806D16D1EA542F5D802E06C
:1049B000641CAC42E9D33562F461F76A1AE0204620
:1049C0006138192812D8E2B210213046FFF771FE83
:1049D00000280BD020462038C2B202900821304671
:1049E000FFF767FE002801D0029800E020463870EB
:1049F000641C7F1CAC42E2D90024FF25E2B20821EE
:104A00003046FFF756FE002808D10AE0EAB2082136
:104A10003046FFF74EFE002806D16D1EA542F5D8A0
:104A200002E0641CAC42E9D3B5627462376B1BE0F0
:104A300020464138192813D8E2B208213046FFF742
:104A400038FE00280CD020462030C2B2029010213F
:104A50003046FFF72EFE002802D0029801E008E061
:104A600020463870641C7F1CAC42E1D96846FFF7D1
:104A70004AFD3046FEBD000084670008E06400087F
:104A800010B500F003F800F0B1FA10BD10B500F059
:104A90009BF910BDF7B51746002413460D46064690
:104AA0000A4621462046FFF7D7F904000DD1002D14
:104AB00001DB172D00D300251749A8000A58002153
:104AC0003B460846FFF79DF904467068002817D05A
:104AD000FBF7D1FD05462046FBF7CDFD2818401C0D
:104AE00000F088FA7168FBF7CDFD2146FBF7B7FDB2
:104AF0000546706800F076FA204600F073FA2C46FE
:104B000074603046FEBDC046C046204600F06AFADA
:104B1000C046C046F5E700008464000810B500F008
:104B20003BFA024901600021416010BDB8670008EE
:104B300010B5044604482060606800F053FA20462F
:104B4000C046C04610BD0000B867000810B501F0AF
:104B50004DFB10BD10B504460020C043206000F09E
:104B600093F90146201D00F0C5F9001F10BD10B5D6
:104B7000001D00F0D7F9001F10BD10B5044601C993
:104B80002060201D00F0E0F9204610BDF0B585B092
:104B9000064602A8FFF758FE022268460299FFF770
:104BA00096FC02A801F022FB0024FF25E2B21021AE
:104BB0003046FFF77EFD002808D10AE0EAB2102156
:104BC0003046FFF776FD002806D16D1EA542F5D8C8
:104BD00002E0641CAC42E9D33562F461F76A1AE082
:104BE00020466138192812D8E2B210213046FFF76A
:104BF00060FD00280BD020462038C2B20390082167
:104C00003046FFF756FD002801D0039800E020460B
:104C10003870641C7F1CAC42E2D90024FF25E2B24C
:104C200008213046FFF745FD002808D10AE0EAB226
:104C300008213046FFF73DFD002806D16D1EA54234
:104C4000F5D802E0641CAC42E9D3B5627462376BFC
:104C50001AE020464138192812D8E2B2082130461D
:104C6000FFF727FD00280BD020462030C2B203906A
:104C700010213046FFF71DFD002801D0039800E009
:104C800020463870641C7F1CAC42E2D96846FFF7AE
:104C90003AFC05B0F0BD0000F8B504462020606085
:104CA0000020E360A060434B23606161227600290D
:104CB00002D14149616120760025FF26EAB2102128
:104CC0002046FFF7F6FC002808D10AE0F2B21021D6
:104CD0002046FFF7EEFC002806D1761EAE42F5D83E
:104CE00002E06D1CB542E9D3701B2662401CE561F1
:104CF00000F080F90746E0621AE02846613819287A
:104D000012D8EAB210212046FFF7D3FC00280BD0BE
:104D100028462038C2B2009008212046FFF7C9FC7F
:104D2000002801D0009800E0284638706D1C7F1CD8
:104D3000B542E2D90025FF26EAB208212046FFF756
:104D4000B8FC002808D10AE0F2B208212046FFF79B
:104D5000B0FC002806D1761EAE42F5D802E06D1CEC
:104D6000B542E9D3701BA662401C656200F042F9AF
:104D7000074620631AE028464138192812D8EAB2BB
:104D800008212046FFF795FC00280BD0284620304C
:104D9000C2B2009010212046FFF78BFC002801D002
:104DA000009800E0284638706D1C7F1CB542E2D99F
:104DB0002046F8BDCC670008E064000810B500F09C
:104DC00003F800F013F910BD10B504460848206040
:104DD000207E002802D0606900F004F9E06A00F04B
:104DE00001F9206B00F0FEF82046C046C04610BD19
:104DF000CC67000810B5C046C04600F0F7F810BDFB
:104E000070B51E4E3069002828D1202000F0F6F839
:104E1000044602230A221AA1FFF7D2FA0025102421
:104E2000B06009E02946B06800F0B4FFB168896954
:104E300001F0E2F964006D1CA005800EF2D1202083
:104E400000F0DCF8044601230A220EA1FFF7B8FAAD
:104E50003F210901F0600161B068306170BDC0465A
:104E6000C046B068002803D0FFF724FB00F0BEF86E
:104E700000203061B060C046C04670BD68000020B0
:104E8000430000000000000010B50E4C206900280F
:104E900001D1FFF7B5FF2078C00710D1094800F015
:104EA00060F900280BD00748A168001D00F010F839
:104EB000054A0649FBF752F90248C046C046014878
:104EC000001D10BD6800002000000008254F0008EC
:104ED00010B50446016006480069002801D1FFF7BB
:104EE0008FFF2168C869401CC861204610BD0000C2
:104EF0006800002009680160CA69521CCA617047D5
:104F000070B5074C05462068002801D1FFF778FFEF
:104F100021682960C869401CC861284670BD00002E
:104F20007800002010B50446006800280AD0C16946
:104F3000491EC16106D12068002803D0FFF7BAFAE4
:104F400000F054F8204610BD70B50D4604460168C7
:104F50002868814210D0C169491CC1612068C169BB
:104F6000491EC16106D12068002803D0FFF7A2FACC
:104F700000F03CF828682060204670BD10B500F0B5
:104F800003F800F033F810BD10B51030FFF7DEFD68
:104F90001038C046C04610BD01490160704700008E
:104FA0002068000810B50B480078C0070FD10948E9
:104FB00000F0D7F800280AD00748002101604160BE
:104FC000064A0749FBF7CAF80248C046C0460248ED
:104FD00010BD0000B0000020B40000200000000858
:104FE0002D5E000810B500F001F810BD10B500F0FE
:104FF000A3FD10BD10B500F001F810BD10B5040000
:1050000008D1012406E0FCF7A7F80068002800D1C9
:1050100003488047204600F013FE0028F3D010BD5F
:105020007F0800080FB410B5024604A9034B03988B
:1050300000F0D2F910BC08BC04B01847275B000888
:105040007CB51546024600201C4600290BD0491E9F
:1050500000920191044B6A462146284600F0BCF9B3
:10506000009A002111707CBD115B0008FFB581B072
:1050700001200090019E02980B99464300D1012621
:10508000039C3019002903D08847002804D001E090
:10509000FFF7B0FF051900E00025002D17D0039899
:1050A000002805D028468038029981670199C16798
:1050B000049800280BD000242F4605E004993846B8
:1050C000884702983F18641C01988442F6DB284602
:1050D00005B0F0BDC046C0460A98002805D003467A
:1050E00021463846029AFCF717FB009800280CD09E
:1050F00003980399281A0C9A7118904705E0C04646
:10510000C046FBF7C0FBC046C046FCF7DBF82021D9
:10511000020C01D010211046020A01D010460839B5
:10512000020901D01046091F820801D01046891ECD
:10513000420801D0881E7047081A704710B5002831
:1051400004D00246083A0CCAFCF7BDF810BD38B5C9
:105150000C460093134601460822204600F00AF848
:1051600038BD0168002901D000207047012101608D
:1051700008467047FEB5089C034E00256F4670C771
:10518000FFF774FFFEBD0000E54F000802E008C80D
:10519000121F08C1002AFAD170477047002001E0B1
:1051A00001C1121F002AFBD17047000002480021F4
:1051B0000160001D016070477C00002070B50B4D40
:1051C000022400260820FFF715FF11C5083D2046E0
:1051D0008000001F2968641E0E50002CF7D128465D
:1051E000034A0449FAF7BAFF70BD0000900000209E
:1051F00000000008735D00081CB50F48FFF788F831
:105200000E4A0F49FAF7AAFF042000900E210A481F
:1052100001914423452248211830FEF7E9FD03207F
:1052200000900F210448019142234422462124305A
:10523000FEF7DEFD1CBD0000CC01002000000008D0
:1052400025430008024800210160001D01607047ED
:1052500060000020F0B51FB486B00998089A030DCD
:105260000021024314D05148514A181850430514E4
:105270001198012810981AD0281A401C00264D4F6A
:105280004D49009601910490002812DA444211E041
:105290001198012449A3012801D11098C14306980F
:1052A000119A84600360C26041600BB0F0BD40425F
:1052B000E4E70446210500203F4A001C51410391C8
:1052C000029012E0E00707D032463B460199009871
:1052D000FBF7E0F80191009032463B461046194634
:1052E000FBF7D8F806460F466410002CEAD1049864
:1052F000039B0028029A0999089806DAFBF7CAF876
:10530000019B009AFBF7C6F805E0FBF72FFF019B16
:10531000009AFBF72BFF04460E460022284BFBF7B2
:10532000BDFF03D80020C043014607E00022254B03
:1053300020463146FAF7FCFFFBF790FF102409E006
:10534000002C0ADB0A220023FBF7E8FA079B303225
:105350001A55641E02460A43F2D11122641C079BAF
:10536000121B1C19119B012B03D0012308430ED1E2
:105370000AE0084304D0112010900020119077E734
:105380001098151A6D1E0BE01098824202DD002362
:105390006D1C03E0824201DA00236D1E002BEED06B
:1053A000069811998260C16030C07EE701FCFFFF62
:1053B000104D0000000014400000F03F30000000DD
:1053C0000000F0430000E03F30380A2801D20120FD
:1053D0007047002070470000FFB597B006460025D3
:1053E00018E2252877D100242746FD49049400E0DF
:1053F0000443761C32780120203A90400842F7D1CD
:1054000030782A280ED00222307801463039092916
:1054100016D804990A235943303940181443761C8E
:105420000490F1E7189802C804911890002904DA52
:105430000120400304434842049002200443761CA8
:1054400030782E2814D1042004437078761C2A2842
:1054500009D11898761C80C8189009E00A214F439A
:10546000303FC719761C3078014630390929F5D903
:1054700030786C2810D006DC4C281AD068280ED062
:105480006A2817D104E0742813D07A2812D110E0CA
:105490000120400504430CE00121090501E003213E
:1054A00009050C437178814203D1012000052418BD
:1054B000761C761C3078119066280BD013DC5828A7
:1054C0007DD009DC00287BD04528F6D04628F4D0D2
:1054D00047281AD1A5E118E0632835D0642870D098
:1054E000652812D19DE170286CD008DC6728F1D0C6
:1054F00069287BD06E280DD06F2806D1BAE07328BA
:105500002ED0752871D0782859D01A9A19999047B9
:105510006D1C7EE16002400F022809D003280DD0E7
:105520000428189801680DD00D60001D189070E1D6
:105530001898EA1701680D604A60F6E71898016844
:105540000D80F2E70D70F0E718986A460178117245
:10555000001D18900020507202A80090012005E064
:10556000189802C8189000200091C04361070DD51B
:10557000002101E00199491C0191B94212DA8142EE
:10558000F8DB009A515C0029F4D10BE0002101E026
:105590000199491C01918142FADB019A0099895CC9
:1055A0000029F5D1019904981A9B471A21463846DB
:1055B000199A00F097FA0199401945180BE04FE04D
:1055C0002CE113E04EE0009800990078491C00910E
:1055D0001A9A199990470198401E0190401CF2D1E7
:1055E000214638461A9B199A10E137E00A2000211B
:1055F000009001916002410F022907D0189A01CA58
:105600001892C2179446032908D00AE01898C01DC2
:10561000C108C90005C91891944607E000B2C21735
:105620009446042902D140B2C1178C46002261463B
:10563000944506DA0A460021404291418C462D21CC
:1056400002E0210504D52B216A461173012103E0F4
:10565000E10701D02021F7E7029155E00A200AE096
:10566000102008E010200090002104200443019144
:10567000082703E008200021019100906002410FFB
:10568000022907D0189A01CA1892002294460329C9
:1056900008D008E01898C01DC108C90005C91891B4
:1056A000944603E080B2042900D1C0B200210291E7
:1056B000210729D51199702906D0009A1021019B44
:1056C0004A401A4305D00EE040216A461173012179
:1056D00008E06146014306D030216A4611731199F2
:1056E000517302210291009A0821019B4A401A43FA
:1056F0000AD16146014301D1610705D530216A46CF
:10570000117301217F1E02911199582904D035A1EE
:105710000E910DA90D910DE037A1F9E76146019BAE
:10572000009AFBF7FBF80E9B8C469B5C0D9A521E71
:105730000D92137061460143F0D10D9805A9081A26
:1057400020300190600703D501200004844300E06D
:1057500001270198874201DD381A00E000200199F5
:1057600000904118029809180498401A0490E00328
:1057700006D421461A9B199A049800F0B3F94519EA
:10578000002706E003A81A9AC05D199990476D1C7E
:105790007F1C02988742F5DBE0030CD521461A9B5B
:1057A000199A049800F09EF9451904E01A9A3020DD
:1057B000199990476D1C0099481E00900029F5DC4E
:1057C00008E00D980D990078491C0D911A9A1999C5
:1057D00090476D1C0199481E01900029F1DC63E19E
:1057E00009280100303132333435363738396162B7
:1057F000636465660000000030313233343536377B
:1058000038394142434445460000000000F05AF94F
:105810004519761C3078002800D0E2E528461BB0F8
:10582000F0BD600700D406271898C01DC108C90044
:1058300048680A680831C30FDB071891190001D0C6
:105840009CA108E0210501D59BA104E0E10701D05E
:105850009AA100E09AA1430011985B081091652875
:105860000CD006DC452809D046281DD0472841D158
:1058700041E0662818D067283CD13CE00021112F78
:1058800001DB112000E0781C0191009008A911A80B
:10589000FFF7E0FC139905910021119A15927F1CE6
:1058A00012980197009150E00120C0070390012059
:1058B000019008A9009711A8FFF7CCFC139A14993E
:1058C00005920022119B009212981593059A01925D
:1058D000002901D0104602E0791C40180190381AC6
:1058E00001D5019804E04042401E0090781C0190D0
:1058F000C01B029043E0012F00DA01270021112F85
:1059000001DD112000E038460191009008A911A89E
:10591000FFF7A0FC13990591119A00211298159296
:105920000091019721070CD40599B94201DB019937
:1059300000E00191012904DD159A491E515C3029CE
:1059400006D0B84201DA011D05DA0121029115E005
:105950000199491EEDE7002805DC009941180091E6
:105960000199091A03E0019A411C914200DD01915D
:105970000099401A401C02900120C00703902007A4
:1059800006D402990198814202DB0020C0430290B4
:1059900000206946C87707AF012103980337C9077C
:1059A000884224D0022011902B20129003980028C6
:1059B0000CDA404203902D20129007E00A21039850
:1059C000FAF794FB30317F1E039039701199481E0D
:1059D00011900029F2DC03980028EFD1791E12986B
:1059E00008703078202108404530BF1E387006A866
:1059F000C01BC01D039010980078002800D0012023
:105A0000019941180298C0170918039809180498B9
:105A1000401A401E0490E00306D421461A9B199AAE
:105A2000049800F05FF8451910980078002803D01A
:105A30001A9A199990476D1CE00324D521461A9BA8
:105A4000199A049800F04EF845191CE000980028B7
:105A500007DB00990598884203DD1598405C199989
:105A600001E0199930201A9A904700986D1C401C4B
:105A700000900298401E0290002804D11A9A2E200D
:105A8000199990476D1C0199481E01900029DDDC91
:105A900005E038781A9A7F1C199990476D1C039974
:105AA000481E03900029F4DC21461A9B199A049899
:105AB000ACE600002D0000002B00000020000000DC
:105AC00000000000F8B5044600251E46174688046D
:105AD00004D405E039462020B0476D1C641EF9D57A
